{
  "contractName": "TestTax",
  "abi": [
    {
      "inputs": [
        {
          "internalType": "address",
          "name": "_treasury",
          "type": "address"
        }
      ],
      "stateMutability": "nonpayable",
      "type": "constructor"
    },
    {
      "anonymous": false,
      "inputs": [
        {
          "indexed": false,
          "internalType": "string",
          "name": "inspectionId",
          "type": "string"
        },
        {
          "indexed": false,
          "internalType": "uint256",
          "name": "amount",
          "type": "uint256"
        },
        {
          "indexed": false,
          "internalType": "address",
          "name": "payer",
          "type": "address"
        }
      ],
      "name": "TaxPaid",
      "type": "event"
    },
    {
      "inputs": [],
      "name": "owner",
      "outputs": [
        {
          "internalType": "address",
          "name": "",
          "type": "address"
        }
      ],
      "stateMutability": "view",
      "type": "function"
    },
    {
      "inputs": [
        {
          "internalType": "string",
          "name": "",
          "type": "string"
        }
      ],
      "name": "taxAmounts",
      "outputs": [
        {
          "internalType": "uint256",
          "name": "",
          "type": "uint256"
        }
      ],
      "stateMutability": "view",
      "type": "function"
    },
    {
      "inputs": [
        {
          "internalType": "string",
          "name": "",
          "type": "string"
        }
      ],
      "name": "taxPaid",
      "outputs": [
        {
          "internalType": "bool",
          "name": "",
          "type": "bool"
        }
      ],
      "stateMutability": "view",
      "type": "function"
    },
    {
      "inputs": [],
      "name": "treasury",
      "outputs": [
        {
          "internalType": "address",
          "name": "",
          "type": "address"
        }
      ],
      "stateMutability": "view",
      "type": "function"
    },
    {
      "inputs": [
        {
          "internalType": "string",
          "name": "inspectionId",
          "type": "string"
        },
        {
          "internalType": "uint256",
          "name": "amount",
          "type": "uint256"
        }
      ],
      "name": "payTax",
      "outputs": [],
      "stateMutability": "payable",
      "type": "function"
    },
    {
      "inputs": [
        {
          "internalType": "string",
          "name": "inspectionId",
          "type": "string"
        }
      ],
      "name": "isTaxPaid",
      "outputs": [
        {
          "internalType": "bool",
          "name": "",
          "type": "bool"
        }
      ],
      "stateMutability": "view",
      "type": "function"
    }
  ],
  "bytecode": "0x60803461007857601f6104d338819003918201601f19168301916001600160401b0383118484101761007c5780849260209460405283398101031261007857516001600160a01b038116908190036100785760018060a01b031933815f5416175f55600154161760015560405161044290816100918239f35b5f80fd5b634e487b7160e01b5f52604160045260245ffdfe60406080815260049081361015610014575f80fd5b5f91823560e01c80630c2fd7911461031457806345a5c0621461028657806361d027b3146102eb5780637b6e967f146102865780638da5cb5b1461025a5763f09e4a6514610060575f80fd5b8160031936011261025657803567ffffffffffffffff8111610252576100899036908301610371565b9060243580341061021857835183519260ff6020928381818901976100af81838b6103eb565b8101600381520301902054166101e857828651838188516100d181838b6103eb565b81016002815203019020558551828187516100ed81838a6103eb565b81016003815203019020600160ff19825416179055868080808660018060a01b03600154168282156101df575bf1156101d557823411610187575b50918461016f94926080947f64ed39e29d42cf8d56cb3ddd8d121b9d296f0a880127be4e79eb6c05fcc91f13975196879560608752518095816060890152888801906103eb565b8401523390830152601f01601f19168101030190a180f35b823403903482116101c257508680808093818734146101b9575b3390f1156101af575f610128565b84513d87823e3d90fd5b506108fc6101a1565b634e487b7160e01b885260119052602487fd5b85513d88823e3d90fd5b506108fc61011a565b60649186519162461bcd60e51b8352820152600c60248201526b105b1c9958591e481c185a5960a21b6044820152fd5b835162461bcd60e51b81526020818401526014602482015273125b9cdd59999a58da595b9d081c185e5b595b9d60621b6044820152606490fd5b8380fd5b8280fd5b505034610282578160031936011261028257905490516001600160a01b039091168152602090f35b5080fd5b5091346102e85760203660031901126102e85782359067ffffffffffffffff82116102e857506102d360206102c1819560ff94369101610371565b818551938285809451938492016103eb565b81016003815203019020541690519015158152f35b80fd5b50503461028257816003193601126102825760015490516001600160a01b039091168152602090f35b5091346102e85760203660031901126102e85782359067ffffffffffffffff82116102e85750602061034d819461035f93369101610371565b818451938285809451938492016103eb565b81016002815203019020549051908152f35b81601f820112156103d35780359067ffffffffffffffff928383116103d75760405193601f8401601f19908116603f01168501908111858210176103d757604052828452602083830101116103d357815f926020809301838601378301015290565b5f80fd5b634e487b7160e01b5f52604160045260245ffd5b5f5b8381106103fc5750505f910152565b81810151838201526020016103ed56fea2646970667358221220d0793ac22146f75d252c7f9a52ea5b591c9933f757a6c3991ca8cb64f8e57b6564736f6c63430008140033",
  "immutableReferences": {},
  "source": "// SPDX-License-Identifier: MIT\r\npragma solidity ^0.8.20;\r\n\r\ncontract TestTax {\r\n    address public owner;\r\n    address public treasury;\r\n    \r\n    mapping(string => uint256) public taxAmounts;\r\n    mapping(string => bool) public taxPaid;\r\n    \r\n    event TaxPaid(string inspectionId, uint256 amount, address payer);\r\n    \r\n    constructor(address _treasury) {\r\n        owner = msg.sender;\r\n        treasury = _treasury;\r\n    }\r\n    \r\n    function payTax(string memory inspectionId, uint256 amount) external payable {\r\n        require(msg.value >= amount, \"Insufficient payment\");\r\n        require(!taxPaid[inspectionId], \"Already paid\");\r\n        \r\n        taxAmounts[inspectionId] = amount;\r\n        taxPaid[inspectionId] = true;\r\n        \r\n        payable(treasury).transfer(amount);\r\n        \r\n        if (msg.value > amount) {\r\n            payable(msg.sender).transfer(msg.value - amount);\r\n        }\r\n        \r\n        emit TaxPaid(inspectionId, amount, msg.sender);\r\n    }\r\n    \r\n    function isTaxPaid(string memory inspectionId) external view returns (bool) {\r\n        return taxPaid[inspectionId];\r\n    }\r\n}\r\n",
  "sourcePath": "F:\\TaxTron-FYP\\taxtron\\backend\\contracts\\TestTax.sol",
  "compiler": {
    "name": "solc",
    "version": "0.8.20+commit.a1b79de6.Emscripten.clang"
  },
  "schemaVersion": "3.4.16",
  "updatedAt": "2025-09-13T21:43:51.088Z",
  "devdoc": {
    "kind": "dev",
    "methods": {},
    "version": 1
  },
  "userdoc": {
    "kind": "user",
    "methods": {},
    "version": 1
  }
}