{
  "contractName": "VehicleTax",
  "abi": [
    {
      "inputs": [
        {
          "internalType": "address",
          "name": "_treasury",
          "type": "address"
        }
      ],
      "stateMutability": "nonpayable",
      "type": "constructor"
    },
    {
      "anonymous": false,
      "inputs": [
        {
          "indexed": true,
          "internalType": "string",
          "name": "inspectionId",
          "type": "string"
        },
        {
          "indexed": true,
          "internalType": "address",
          "name": "payer",
          "type": "address"
        },
        {
          "indexed": false,
          "internalType": "uint256",
          "name": "amount",
          "type": "uint256"
        },
        {
          "indexed": false,
          "internalType": "uint256",
          "name": "year",
          "type": "uint256"
        },
        {
          "indexed": false,
          "internalType": "uint256",
          "name": "timestamp",
          "type": "uint256"
        }
      ],
      "name": "TaxPaid",
      "type": "event"
    },
    {
      "anonymous": false,
      "inputs": [
        {
          "indexed": false,
          "internalType": "uint256",
          "name": "year",
          "type": "uint256"
        },
        {
          "indexed": false,
          "internalType": "uint256",
          "name": "rate",
          "type": "uint256"
        }
      ],
      "name": "TaxRateSet",
      "type": "event"
    },
    {
      "anonymous": false,
      "inputs": [
        {
          "indexed": false,
          "internalType": "address",
          "name": "oldTreasury",
          "type": "address"
        },
        {
          "indexed": false,
          "internalType": "address",
          "name": "newTreasury",
          "type": "address"
        }
      ],
      "name": "TreasuryUpdated",
      "type": "event"
    },
    {
      "inputs": [],
      "name": "owner",
      "outputs": [
        {
          "internalType": "address",
          "name": "",
          "type": "address"
        }
      ],
      "stateMutability": "view",
      "type": "function"
    },
    {
      "inputs": [
        {
          "internalType": "address",
          "name": "",
          "type": "address"
        },
        {
          "internalType": "uint256",
          "name": "",
          "type": "uint256"
        }
      ],
      "name": "ownerVehicles",
      "outputs": [
        {
          "internalType": "string",
          "name": "",
          "type": "string"
        }
      ],
      "stateMutability": "view",
      "type": "function"
    },
    {
      "inputs": [],
      "name": "treasury",
      "outputs": [
        {
          "internalType": "address",
          "name": "",
          "type": "address"
        }
      ],
      "stateMutability": "view",
      "type": "function"
    },
    {
      "inputs": [
        {
          "internalType": "string",
          "name": "",
          "type": "string"
        }
      ],
      "name": "vehicleTaxInfo",
      "outputs": [
        {
          "internalType": "string",
          "name": "inspectionId",
          "type": "string"
        },
        {
          "internalType": "string",
          "name": "make",
          "type": "string"
        },
        {
          "internalType": "string",
          "name": "model",
          "type": "string"
        },
        {
          "internalType": "string",
          "name": "vehicleType",
          "type": "string"
        },
        {
          "internalType": "uint256",
          "name": "engineCapacity",
          "type": "uint256"
        },
        {
          "internalType": "uint256",
          "name": "manufacturingYear",
          "type": "uint256"
        }
      ],
      "stateMutability": "view",
      "type": "function"
    },
    {
      "inputs": [
        {
          "internalType": "uint256",
          "name": "",
          "type": "uint256"
        }
      ],
      "name": "yearlyTaxRates",
      "outputs": [
        {
          "internalType": "uint256",
          "name": "",
          "type": "uint256"
        }
      ],
      "stateMutability": "view",
      "type": "function"
    },
    {
      "inputs": [
        {
          "internalType": "string",
          "name": "_inspectionId",
          "type": "string"
        },
        {
          "internalType": "string",
          "name": "_make",
          "type": "string"
        },
        {
          "internalType": "string",
          "name": "_model",
          "type": "string"
        },
        {
          "internalType": "string",
          "name": "_vehicleType",
          "type": "string"
        },
        {
          "internalType": "uint256",
          "name": "_engineCapacity",
          "type": "uint256"
        },
        {
          "internalType": "uint256",
          "name": "_manufacturingYear",
          "type": "uint256"
        },
        {
          "internalType": "address",
          "name": "_vehicleOwner",
          "type": "address"
        }
      ],
      "name": "registerVehicleForTax",
      "outputs": [],
      "stateMutability": "nonpayable",
      "type": "function"
    },
    {
      "inputs": [
        {
          "internalType": "string",
          "name": "_inspectionId",
          "type": "string"
        },
        {
          "internalType": "uint256",
          "name": "_taxAmount",
          "type": "uint256"
        },
        {
          "internalType": "uint256",
          "name": "_year",
          "type": "uint256"
        }
      ],
      "name": "payAnnualTax",
      "outputs": [],
      "stateMutability": "payable",
      "type": "function"
    },
    {
      "inputs": [
        {
          "internalType": "string",
          "name": "_inspectionId",
          "type": "string"
        },
        {
          "internalType": "uint256",
          "name": "_year",
          "type": "uint256"
        },
        {
          "internalType": "string",
          "name": "_txHash",
          "type": "string"
        }
      ],
      "name": "updateTransactionHash",
      "outputs": [],
      "stateMutability": "nonpayable",
      "type": "function"
    },
    {
      "inputs": [
        {
          "internalType": "string",
          "name": "_inspectionId",
          "type": "string"
        },
        {
          "internalType": "uint256",
          "name": "_year",
          "type": "uint256"
        }
      ],
      "name": "isTaxPaid",
      "outputs": [
        {
          "internalType": "bool",
          "name": "",
          "type": "bool"
        }
      ],
      "stateMutability": "view",
      "type": "function"
    },
    {
      "inputs": [
        {
          "internalType": "string",
          "name": "_inspectionId",
          "type": "string"
        },
        {
          "internalType": "uint256",
          "name": "_year",
          "type": "uint256"
        }
      ],
      "name": "getTaxPayment",
      "outputs": [
        {
          "internalType": "address",
          "name": "payer",
          "type": "address"
        },
        {
          "internalType": "uint256",
          "name": "amount",
          "type": "uint256"
        },
        {
          "internalType": "uint256",
          "name": "timestamp",
          "type": "uint256"
        },
        {
          "internalType": "string",
          "name": "transactionHash",
          "type": "string"
        },
        {
          "internalType": "bool",
          "name": "isPaid",
          "type": "bool"
        }
      ],
      "stateMutability": "view",
      "type": "function"
    },
    {
      "inputs": [
        {
          "internalType": "string",
          "name": "_inspectionId",
          "type": "string"
        }
      ],
      "name": "getPaidYears",
      "outputs": [
        {
          "internalType": "uint256[]",
          "name": "",
          "type": "uint256[]"
        }
      ],
      "stateMutability": "view",
      "type": "function"
    },
    {
      "inputs": [],
      "name": "getCurrentYear",
      "outputs": [
        {
          "internalType": "uint256",
          "name": "",
          "type": "uint256"
        }
      ],
      "stateMutability": "view",
      "type": "function"
    },
    {
      "inputs": [
        {
          "internalType": "address",
          "name": "_newTreasury",
          "type": "address"
        }
      ],
      "name": "setTreasuryAddress",
      "outputs": [],
      "stateMutability": "nonpayable",
      "type": "function"
    },
    {
      "inputs": [
        {
          "internalType": "uint256",
          "name": "_year",
          "type": "uint256"
        },
        {
          "internalType": "uint256",
          "name": "_rate",
          "type": "uint256"
        }
      ],
      "name": "setYearlyTaxRate",
      "outputs": [],
      "stateMutability": "nonpayable",
      "type": "function"
    },
    {
      "inputs": [
        {
          "internalType": "string",
          "name": "_inspectionId",
          "type": "string"
        }
      ],
      "name": "getVehicleTaxInfo",
      "outputs": [
        {
          "internalType": "string",
          "name": "make",
          "type": "string"
        },
        {
          "internalType": "string",
          "name": "model",
          "type": "string"
        },
        {
          "internalType": "string",
          "name": "vehicleType",
          "type": "string"
        },
        {
          "internalType": "uint256",
          "name": "engineCapacity",
          "type": "uint256"
        },
        {
          "internalType": "uint256",
          "name": "manufacturingYear",
          "type": "uint256"
        },
        {
          "internalType": "uint256[]",
          "name": "paidYears",
          "type": "uint256[]"
        }
      ],
      "stateMutability": "view",
      "type": "function"
    },
    {
      "inputs": [
        {
          "internalType": "address",
          "name": "_owner",
          "type": "address"
        }
      ],
      "name": "getOwnerVehicles",
      "outputs": [
        {
          "internalType": "string[]",
          "name": "",
          "type": "string[]"
        }
      ],
      "stateMutability": "view",
      "type": "function"
    },
    {
      "inputs": [],
      "name": "withdrawEmergency",
      "outputs": [],
      "stateMutability": "nonpayable",
      "type": "function"
    },
    {
      "inputs": [
        {
          "internalType": "address",
          "name": "_newOwner",
          "type": "address"
        }
      ],
      "name": "transferOwnership",
      "outputs": [],
      "stateMutability": "nonpayable",
      "type": "function"
    }
  ],
  "bytecode": "0x6080346100d557601f6114af38819003918201601f19168301916001600160401b038311848410176100d9578084926020946040528339810103126100d557516001600160a01b038116908190036100d55780156100905760018060a01b031933815f5416175f5560015416176001556107e95f5260046020526103e860405f20556040516113c190816100ee8239f35b60405162461bcd60e51b815260206004820152601f60248201527f547265617375727920616464726573732063616e6e6f74206265207a65726f006044820152606490fd5b5f80fd5b634e487b7160e01b5f52604160045260245ffdfe604060808152600480361015610013575f80fd5b5f91823560e01c80630bd8ee2514610d43578063292866b514610ce1578063367edc0414610cba5780633b5853ba14610ba157806340ea1d6114610b385780634146a07314610ae65780635692f6be1461074f57806361d027b3146107265780636605bfda146106a45780636a12c450146105c05780638014e50014610498578063883f9bb0146104165780638da5cb5b146103ee578063ba984fcc14610307578063bd370bd114610207578063ce41607a146101df578063f2fde38b1461014d5763fac03838146100e3575f80fd5b34610149578060031936011261014957817f205f3abcd3f17eca3c2671239b91647d926f04b29d46b1237837bfcd92fd7e879235906024359061013060018060a01b03875416331461116a565b828652602052808386205582519182526020820152a180f35b8280fd5b50903461014957602036600319011261014957610168610fa7565b835491906001600160a01b0390610182338386161461116a565b1692831561019c5750506001600160a01b03191617815580f35b906020606492519162461bcd60e51b8352820152602060248201527f4e6577206f776e65722063616e6e6f74206265207a65726f20616464726573736044820152fd5b8382346102035781600319360112610203576020906101fc611361565b9051908152f35b5080fd5b509190346102035760209081600319360112610149576001600160a01b0361022d610fa7565b168352600382528383209182549167ffffffffffffffff83116102f45750929084519061025f858260051b0183610f17565b8082528482018094845285842084915b8383106102d057505050508451938085019181865251809252858501958260051b8601019392955b8287106102a45785850386f35b9091929382806102c0600193603f198a82030186528851611043565b9601920196019592919092610297565b60018881926102e2859b98999b6110c9565b8152019201920191909694939661026f565b634e487b7160e01b855260419052602484fd5b50346101495760203660031901126101495781359267ffffffffffffffff84116103eb575061035360206103416103b39536908601610f4d565b81845193828580945193849201611022565b81016002815203019020906103dc61036a836110c9565b936103ce61037a600186016110c9565b93610387600287016110c9565b6103c1600561039860038a016110c9565b958901549801549683519a8b9a60c08c5260c08c0190611043565b908a820360208c0152611043565b9188830390890152611043565b908582036060870152611043565b91608084015260a08301520390f35b80fd5b838234610203578160031936011261020357905490516001600160a01b039091168152602090f35b5082346103eb57816003193601126103eb57610430610fa7565b6001600160a01b03168152600360205281812080546024359190821015610149579061045b91611068565b939093610486576104828361046f866110c9565b9051918291602083526020830190611043565b0390f35b634e487b7160e01b8252819052602490fd5b509190346102035760603660031901126102035767ffffffffffffffff9080358281116105bc576104cc9036908301610f4d565b916044359081116105bc5761054460206104eb60069336908601610f4d565b9461050060018060a01b03885416331461116a565b87519061053461052d82519385818186019661051d81838a611022565b8101600281520301902054611091565b15156112c9565b8851938492839251928391611022565b810160028152030190200160243584526020528383209060ff60068301541615610579575090600561057692016111c0565b80f35b606490602086519162461bcd60e51b8352820152601a60248201527f546178206e6f74207061696420666f72207468697320796561720000000000006044820152fd5b8380fd5b5082346103eb5760203660031901126103eb5782359067ffffffffffffffff82116103eb57506103b39261062c60206105ff6104829436908501610f4d565b85519061061c61052d82519385818186019661051d81838a611022565b8651938492839251928391611022565b810160028152030190209081015490600581015461068c61064f600184016110c9565b9561065c600285016110c9565b936103c16106786007610671600385016110c9565b9301611315565b9583519a8b9a60c08c5260c08c0190611043565b926060860152608085015283820360a0850152610fbd565b838234610203576020366003190112610203577f4ab5be82436d353e61ca18726e984e561f5c1cc7c6d38b29d2553c790434705a906106e1610fa7565b83546001600160a01b03906106f9908216331461116a565b80600154921690816bffffffffffffffffffffffff60a01b8416176001558351921682526020820152a180f35b83823461020357816003193601126102035760015490516001600160a01b039091168152602090f35b5090606036600319011261014957803567ffffffffffffffff81116105bc5761077b9036908301610f4d565b91602492833593604435918351948151926107a661052d60209889818188019861051d81838c611022565b6107ae611361565b8510610aa4578715610a5857873410610a16578551878185516107d281838a611022565b81016002815203019020858a52600681018852868a20600681019160ff8354166109d45791818c93610805888e956111c0565b600182810180546001600160a01b031916331790556002830185905560038084018c90554293890193909355835460ff1916811790935560070180549085805b83811061097c575b5015610922575b50509054839283925082916001600160a01b031682f115610918578734116108ca575b50509061088e918451928392839251928391611022565b810103902092825194855284015242908301527f17ce15d0a82d685dc9e576d6657bd87c585615dae4538770c9289955e36108d460603393a380f35b873403913483116109075750508780808093818b34146108fe575b3390f1156108f4575f80610877565b83513d88823e3d90fd5b506108fc6108e5565b634e487b7160e01b8a526011905288fd5b85513d8a823e3d90fd5b919350919350600160401b82101561096a578b848e959461094d858897958897968897018155611068565b81929154911b908d821b915f19901b191617905592819450610854565b634e487b7160e01b8d5260418652848dfd5b9193958c61098f84879a9496989a611068565b905490891b1c146109c55750505f1981146109b3578501918e9593918e9593610845565b634e487b7160e01b8f5260118852868ffd5b9593915095809492505f61084d565b885162461bcd60e51b81528086018b9052601e818601527f54617820616c7265616479207061696420666f722074686973207965617200006044820152606490fd5b855162461bcd60e51b8152918201879052601b908201527f496e73756666696369656e74207061796d656e7420616d6f756e7400000000006044820152606490fd5b855162461bcd60e51b81529182018790526021908201527f54617820616d6f756e74206d7573742062652067726561746572207468616e206044820152600360fc1b6064820152608490fd5b855162461bcd60e51b8152918201879052601d908201527f43616e6e6f74207061792074617820666f7220706173742079656172730000006044820152606490fd5b8382346102035781600319360112610203578180808060018060a01b03815416610b1181331461116a565b4790828215610b2f575bf115610b25575080f35b51903d90823e3d90fd5b506108fc610b1b565b8382346102035760ff6006826020948583610b84610b5536610ff0565b9390865190610b7461052d82519385818186019661051d81838a611022565b8751938492839251928391611022565b810160028152030190200190825286522001541690519015158152f35b50346101495761052d92610bda6006610bb936610ff0565b9290855190805190610b7460209a848c80968186019661051d81838a611022565b810160028152030190200190825284528181209180519160e083019083821067ffffffffffffffff831117610ca757509181610c9d9360c0959352610c1e836110c9565b825260018301546001600160a01b0390811688840190815260028501548385019081526003860154606086015297850154608085019081529360ff6006610c67600589016110c9565b978860a085015201541615159788910152511695519151918151978897885287015285015260a0606085015260a0840190611043565b9060808301520390f35b634e487b7160e01b815260418652602490fd5b50903461014957602036600319011261014957602092818392358252845220549051908152f35b5091903461020357602091826003193601126103eb5781359067ffffffffffffffff82116103eb57506007610d238461050061048295610d3395369101610f4d565b8101600281520301902001611315565b9251928284938452830190610fbd565b508290346102035760e03660031901126102035767ffffffffffffffff9083358281116105bc57610d779036908601610f4d565b91602435818111610f1357610d8f9036908701610f4d565b604435828111610f0f57610da69036908801610f4d565b91606435908111610f0f57610dbe9036908801610f4d565b60c4356001600160a01b038181169491859003610f0b57610de390885416331461116a565b8451610dfd875191602081818b019461051d818388611022565b610ebd57610e539291610e41610e236020610e4a948b8b51938492839251928391611022565b8101600281520301902095610e388a886111c0565b600187016111c0565b600285016111c0565b600383016111c0565b60843586820155600560a435910155835260036020528220805490600160401b821015610eaa5790610e8a91600182018155611068565b610e985790610576916111c0565b634e487b7160e01b8352828452602483fd5b634e487b7160e01b845260418552602484fd5b855162461bcd60e51b81526020818b0152602260248201527f56656869636c6520616c7265616479207265676973746572656420666f7220746044820152610c2f60f31b6064820152608490fd5b8780fd5b8580fd5b8480fd5b90601f8019910116810190811067ffffffffffffffff821117610f3957604052565b634e487b7160e01b5f52604160045260245ffd5b81601f82011215610fa35780359067ffffffffffffffff8211610f395760405192610f82601f8401601f191660200185610f17565b82845260208383010111610fa357815f926020809301838601378301015290565b5f80fd5b600435906001600160a01b0382168203610fa357565b9081518082526020808093019301915f5b828110610fdc575050505090565b835185529381019392810192600101610fce565b6040600319820112610fa3576004359067ffffffffffffffff8211610fa35761101b91600401610f4d565b9060243590565b5f5b8381106110335750505f910152565b8181015183820152602001611024565b9060209161105c81518092818552858086019101611022565b601f01601f1916010190565b805482101561107d575f5260205f2001905f90565b634e487b7160e01b5f52603260045260245ffd5b90600182811c921680156110bf575b60208310146110ab57565b634e487b7160e01b5f52602260045260245ffd5b91607f16916110a0565b9060405191825f8254926110dc84611091565b9081845260019485811690815f146111475750600114611107575b505061110592500383610f17565b565b909391505f52602090815f20935f915b81831061112f57505061110593508201015f806110f7565b85548884018501529485019487945091830191611117565b91505061110594506020925060ff191682840152151560051b8201015f806110f7565b1561117157565b60405162461bcd60e51b815260206004820152602160248201527f4f6e6c79206f776e65722063616e2063616c6c20746869732066756e6374696f6044820152603760f91b6064820152608490fd5b919091825167ffffffffffffffff8111610f39576111de8254611091565b601f8111611282575b50602080601f83116001146112225750819293945f92611217575b50508160011b915f199060031b1c1916179055565b015190505f80611202565b90601f19831695845f52825f20925f905b88821061126a57505083600195969710611252575b505050811b019055565b01515f1960f88460031b161c191690555f8080611248565b80600185968294968601518155019501930190611233565b5f83815260208120601f840160051c810192602085106112bf575b601f0160051c01915b8281106112b45750506111e7565b8181556001016112a6565b909250829061129d565b156112d057565b60405162461bcd60e51b815260206004820152601e60248201527f56656869636c65206e6f74207265676973746572656420666f722074617800006044820152606490fd5b906040519182815491828252602092838301915f52835f20935f905b8282106113475750505061110592500383610f17565b855484526001958601958895509381019390910190611331565b6301e1338042046107b281018091116113775790565b634e487b7160e01b5f52601160045260245ffdfea26469706673582212207905471e870a893d02453afda1ee22f13f50f8274fdcf72ee9fdeb1330d37e0c64736f6c63430008140033",
  "immutableReferences": {},
  "source": "// SPDX-License-Identifier: MIT\r\npragma solidity ^0.8.20;\r\n\r\ncontract VehicleTax {\r\n    address public owner;\r\n    address public treasury;\r\n    \r\n    struct TaxPayment {\r\n        string inspectionId;\r\n        address payer;\r\n        uint256 amount;\r\n        uint256 year;\r\n        uint256 timestamp;\r\n        string transactionHash;\r\n        bool isPaid;\r\n    }\r\n    \r\n    struct VehicleTaxInfo {\r\n        string inspectionId;\r\n        string make;\r\n        string model;\r\n        string vehicleType;\r\n        uint256 engineCapacity;\r\n        uint256 manufacturingYear;\r\n        mapping(uint256 => TaxPayment) yearlyPayments; // year => payment\r\n        uint256[] paidYears;\r\n    }\r\n    \r\n    // Mappings\r\n    mapping(string => VehicleTaxInfo) public vehicleTaxInfo;\r\n    mapping(address => string[]) public ownerVehicles;\r\n    mapping(uint256 => uint256) public yearlyTaxRates; // year => base rate\r\n    \r\n    // Events\r\n    event TaxPaid(\r\n        string indexed inspectionId,\r\n        address indexed payer,\r\n        uint256 amount,\r\n        uint256 year,\r\n        uint256 timestamp\r\n    );\r\n    \r\n    event TaxRateSet(uint256 year, uint256 rate);\r\n    event TreasuryUpdated(address oldTreasury, address newTreasury);\r\n    \r\n    // Modifiers\r\n    modifier onlyOwner() {\r\n        require(msg.sender == owner, \"Only owner can call this function\");\r\n        _;\r\n    }\r\n    \r\n    modifier vehicleExists(string memory _inspectionId) {\r\n        require(bytes(vehicleTaxInfo[_inspectionId].inspectionId).length > 0, \"Vehicle not registered for tax\");\r\n        _;\r\n    }\r\n    \r\n    constructor(address _treasury) {\r\n        require(_treasury != address(0), \"Treasury address cannot be zero\");\r\n        owner = msg.sender;\r\n        treasury = _treasury;\r\n        \r\n        // Set default tax rates for 2025 (avoid complex calculations in constructor)\r\n        yearlyTaxRates[2025] = 1000; // Base rate in PKR equivalent\r\n    }\r\n    \r\n    // Register vehicle for tax (called when vehicle is first registered)\r\n    function registerVehicleForTax(\r\n        string memory _inspectionId,\r\n        string memory _make,\r\n        string memory _model,\r\n        string memory _vehicleType,\r\n        uint256 _engineCapacity,\r\n        uint256 _manufacturingYear,\r\n        address _vehicleOwner\r\n    ) external onlyOwner {\r\n        require(bytes(vehicleTaxInfo[_inspectionId].inspectionId).length == 0, \"Vehicle already registered for tax\");\r\n        \r\n        VehicleTaxInfo storage taxInfo = vehicleTaxInfo[_inspectionId];\r\n        taxInfo.inspectionId = _inspectionId;\r\n        taxInfo.make = _make;\r\n        taxInfo.model = _model;\r\n        taxInfo.vehicleType = _vehicleType;\r\n        taxInfo.engineCapacity = _engineCapacity;\r\n        taxInfo.manufacturingYear = _manufacturingYear;\r\n        \r\n        // Add to owner's vehicles\r\n        ownerVehicles[_vehicleOwner].push(_inspectionId);\r\n    }\r\n    \r\n    // Pay annual tax\r\n    function payAnnualTax(\r\n        string memory _inspectionId,\r\n        uint256 _taxAmount,\r\n        uint256 _year\r\n    ) external payable vehicleExists(_inspectionId) {\r\n        require(_year >= getCurrentYear(), \"Cannot pay tax for past years\");\r\n        require(_taxAmount > 0, \"Tax amount must be greater than 0\");\r\n        require(msg.value >= _taxAmount, \"Insufficient payment amount\");\r\n        \r\n        VehicleTaxInfo storage taxInfo = vehicleTaxInfo[_inspectionId];\r\n        TaxPayment storage payment = taxInfo.yearlyPayments[_year];\r\n        \r\n        require(!payment.isPaid, \"Tax already paid for this year\");\r\n        \r\n        // Record payment\r\n        payment.inspectionId = _inspectionId;\r\n        payment.payer = msg.sender;\r\n        payment.amount = _taxAmount;\r\n        payment.year = _year;\r\n        payment.timestamp = block.timestamp;\r\n        payment.isPaid = true;\r\n        \r\n        // Add year to paid years if not already present\r\n        bool yearExists = false;\r\n        for (uint i = 0; i < taxInfo.paidYears.length; i++) {\r\n            if (taxInfo.paidYears[i] == _year) {\r\n                yearExists = true;\r\n                break;\r\n            }\r\n        }\r\n        if (!yearExists) {\r\n            taxInfo.paidYears.push(_year);\r\n        }\r\n        \r\n        // Transfer to treasury\r\n        payable(treasury).transfer(_taxAmount);\r\n        \r\n        // Refund excess if any\r\n        if (msg.value > _taxAmount) {\r\n            payable(msg.sender).transfer(msg.value - _taxAmount);\r\n        }\r\n        \r\n        emit TaxPaid(_inspectionId, msg.sender, _taxAmount, _year, block.timestamp);\r\n    }\r\n    \r\n    // Update transaction hash (called after payment confirmation)\r\n    function updateTransactionHash(\r\n        string memory _inspectionId,\r\n        uint256 _year,\r\n        string memory _txHash\r\n    ) external onlyOwner vehicleExists(_inspectionId) {\r\n        TaxPayment storage payment = vehicleTaxInfo[_inspectionId].yearlyPayments[_year];\r\n        require(payment.isPaid, \"Tax not paid for this year\");\r\n        payment.transactionHash = _txHash;\r\n    }\r\n    \r\n    // Check if tax is paid for a specific year\r\n    function isTaxPaid(string memory _inspectionId, uint256 _year) \r\n        external \r\n        view \r\n        vehicleExists(_inspectionId) \r\n        returns (bool) \r\n    {\r\n        return vehicleTaxInfo[_inspectionId].yearlyPayments[_year].isPaid;\r\n    }\r\n    \r\n    // Get tax payment details for a specific year\r\n    function getTaxPayment(string memory _inspectionId, uint256 _year) \r\n        external \r\n        view \r\n        vehicleExists(_inspectionId) \r\n        returns (\r\n            address payer,\r\n            uint256 amount,\r\n            uint256 timestamp,\r\n            string memory transactionHash,\r\n            bool isPaid\r\n        ) \r\n    {\r\n        TaxPayment memory payment = vehicleTaxInfo[_inspectionId].yearlyPayments[_year];\r\n        return (\r\n            payment.payer,\r\n            payment.amount,\r\n            payment.timestamp,\r\n            payment.transactionHash,\r\n            payment.isPaid\r\n        );\r\n    }\r\n    \r\n    // Get all paid years for a vehicle\r\n    function getPaidYears(string memory _inspectionId) \r\n        external \r\n        view \r\n        vehicleExists(_inspectionId) \r\n        returns (uint256[] memory) \r\n    {\r\n        return vehicleTaxInfo[_inspectionId].paidYears;\r\n    }\r\n    \r\n    // Get current year\r\n    function getCurrentYear() public view returns (uint256) {\r\n        return (block.timestamp / 365 days) + 1970;\r\n    }\r\n    \r\n    // Owner functions\r\n    function setTreasuryAddress(address _newTreasury) external onlyOwner {\r\n        address oldTreasury = treasury;\r\n        treasury = _newTreasury;\r\n        emit TreasuryUpdated(oldTreasury, _newTreasury);\r\n    }\r\n    \r\n    function setYearlyTaxRate(uint256 _year, uint256 _rate) external onlyOwner {\r\n        yearlyTaxRates[_year] = _rate;\r\n        emit TaxRateSet(_year, _rate);\r\n    }\r\n    \r\n    // Get vehicle tax info\r\n    function getVehicleTaxInfo(string memory _inspectionId) \r\n        external \r\n        view \r\n        vehicleExists(_inspectionId) \r\n        returns (\r\n            string memory make,\r\n            string memory model,\r\n            string memory vehicleType,\r\n            uint256 engineCapacity,\r\n            uint256 manufacturingYear,\r\n            uint256[] memory paidYears\r\n        ) \r\n    {\r\n        VehicleTaxInfo storage taxInfo = vehicleTaxInfo[_inspectionId];\r\n        return (\r\n            taxInfo.make,\r\n            taxInfo.model,\r\n            taxInfo.vehicleType,\r\n            taxInfo.engineCapacity,\r\n            taxInfo.manufacturingYear,\r\n            taxInfo.paidYears\r\n        );\r\n    }\r\n    \r\n    // Get all vehicles owned by an address\r\n    function getOwnerVehicles(address _owner) \r\n        external \r\n        view \r\n        returns (string[] memory) \r\n    {\r\n        return ownerVehicles[_owner];\r\n    }\r\n    \r\n    // Emergency functions\r\n    function withdrawEmergency() external onlyOwner {\r\n        payable(owner).transfer(address(this).balance);\r\n    }\r\n    \r\n    function transferOwnership(address _newOwner) external onlyOwner {\r\n        require(_newOwner != address(0), \"New owner cannot be zero address\");\r\n        owner = _newOwner;\r\n    }\r\n}\r\n",
  "sourcePath": "F:\\TaxTron-FYP\\taxtron\\backend\\contracts\\VehicleTax.sol",
  "compiler": {
    "name": "solc",
    "version": "0.8.20+commit.a1b79de6.Emscripten.clang"
  },
  "schemaVersion": "3.4.16",
  "updatedAt": "2025-09-13T21:43:51.104Z",
  "devdoc": {
    "kind": "dev",
    "methods": {},
    "version": 1
  },
  "userdoc": {
    "kind": "user",
    "methods": {},
    "version": 1
  }
}