{
  "contractName": "VehicleRegistration",
  "abi": [
    {
      "inputs": [
        {
          "internalType": "address",
          "name": "_treasury",
          "type": "address"
        }
      ],
      "stateMutability": "nonpayable",
      "type": "constructor"
    },
    {
      "anonymous": false,
      "inputs": [
        {
          "indexed": true,
          "internalType": "string",
          "name": "inspectionId",
          "type": "string"
        },
        {
          "indexed": false,
          "internalType": "string",
          "name": "newRegistrationNumber",
          "type": "string"
        }
      ],
      "name": "RegistrationNumberUpdated",
      "type": "event"
    },
    {
      "anonymous": false,
      "inputs": [
        {
          "indexed": true,
          "internalType": "string",
          "name": "inspectionId",
          "type": "string"
        },
        {
          "indexed": false,
          "internalType": "uint256",
          "name": "taxAmount",
          "type": "uint256"
        }
      ],
      "name": "TaxAmountSet",
      "type": "event"
    },
    {
      "anonymous": false,
      "inputs": [
        {
          "indexed": true,
          "internalType": "string",
          "name": "inspectionId",
          "type": "string"
        },
        {
          "indexed": true,
          "internalType": "address",
          "name": "owner",
          "type": "address"
        },
        {
          "indexed": false,
          "internalType": "uint256",
          "name": "taxAmount",
          "type": "uint256"
        },
        {
          "indexed": false,
          "internalType": "uint256",
          "name": "timestamp",
          "type": "uint256"
        }
      ],
      "name": "TaxPaid",
      "type": "event"
    },
    {
      "anonymous": false,
      "inputs": [
        {
          "indexed": true,
          "internalType": "string",
          "name": "inspectionId",
          "type": "string"
        },
        {
          "indexed": true,
          "internalType": "address",
          "name": "owner",
          "type": "address"
        },
        {
          "indexed": false,
          "internalType": "string",
          "name": "registrationNumber",
          "type": "string"
        },
        {
          "indexed": false,
          "internalType": "uint256",
          "name": "registrationFee",
          "type": "uint256"
        },
        {
          "indexed": false,
          "internalType": "uint256",
          "name": "timestamp",
          "type": "uint256"
        }
      ],
      "name": "VehicleRegistered",
      "type": "event"
    },
    {
      "inputs": [
        {
          "internalType": "uint256",
          "name": "",
          "type": "uint256"
        }
      ],
      "name": "allInspectionIds",
      "outputs": [
        {
          "internalType": "string",
          "name": "",
          "type": "string"
        }
      ],
      "stateMutability": "view",
      "type": "function"
    },
    {
      "inputs": [],
      "name": "owner",
      "outputs": [
        {
          "internalType": "address",
          "name": "",
          "type": "address"
        }
      ],
      "stateMutability": "view",
      "type": "function"
    },
    {
      "inputs": [
        {
          "internalType": "address",
          "name": "",
          "type": "address"
        },
        {
          "internalType": "uint256",
          "name": "",
          "type": "uint256"
        }
      ],
      "name": "ownerVehicles",
      "outputs": [
        {
          "internalType": "string",
          "name": "",
          "type": "string"
        }
      ],
      "stateMutability": "view",
      "type": "function"
    },
    {
      "inputs": [
        {
          "internalType": "string",
          "name": "",
          "type": "string"
        }
      ],
      "name": "registrationNumbers",
      "outputs": [
        {
          "internalType": "bool",
          "name": "",
          "type": "bool"
        }
      ],
      "stateMutability": "view",
      "type": "function"
    },
    {
      "inputs": [],
      "name": "treasury",
      "outputs": [
        {
          "internalType": "address",
          "name": "",
          "type": "address"
        }
      ],
      "stateMutability": "view",
      "type": "function"
    },
    {
      "inputs": [
        {
          "internalType": "string",
          "name": "",
          "type": "string"
        }
      ],
      "name": "vehicles",
      "outputs": [
        {
          "internalType": "string",
          "name": "inspectionId",
          "type": "string"
        },
        {
          "internalType": "string",
          "name": "make",
          "type": "string"
        },
        {
          "internalType": "string",
          "name": "model",
          "type": "string"
        },
        {
          "internalType": "uint256",
          "name": "year",
          "type": "uint256"
        },
        {
          "internalType": "string",
          "name": "engineNumber",
          "type": "string"
        },
        {
          "internalType": "string",
          "name": "chassisNumber",
          "type": "string"
        },
        {
          "internalType": "string",
          "name": "vehicleType",
          "type": "string"
        },
        {
          "internalType": "uint256",
          "name": "engineCapacity",
          "type": "uint256"
        },
        {
          "internalType": "string",
          "name": "registrationNumber",
          "type": "string"
        },
        {
          "internalType": "address",
          "name": "vehicleOwner",
          "type": "address"
        },
        {
          "internalType": "uint256",
          "name": "registrationFee",
          "type": "uint256"
        },
        {
          "internalType": "bool",
          "name": "registrationFeePaid",
          "type": "bool"
        },
        {
          "internalType": "uint256",
          "name": "registrationTimestamp",
          "type": "uint256"
        },
        {
          "internalType": "uint256",
          "name": "taxAmount",
          "type": "uint256"
        },
        {
          "internalType": "bool",
          "name": "taxPaid",
          "type": "bool"
        },
        {
          "internalType": "uint256",
          "name": "taxPaidTimestamp",
          "type": "uint256"
        },
        {
          "internalType": "string",
          "name": "registrationTxHash",
          "type": "string"
        },
        {
          "internalType": "string",
          "name": "taxTxHash",
          "type": "string"
        },
        {
          "internalType": "bool",
          "name": "isActive",
          "type": "bool"
        }
      ],
      "stateMutability": "view",
      "type": "function"
    },
    {
      "inputs": [
        {
          "internalType": "string",
          "name": "_inspectionId",
          "type": "string"
        },
        {
          "internalType": "string",
          "name": "_make",
          "type": "string"
        },
        {
          "internalType": "string",
          "name": "_model",
          "type": "string"
        },
        {
          "internalType": "uint256",
          "name": "_year",
          "type": "uint256"
        },
        {
          "internalType": "string",
          "name": "_engineNumber",
          "type": "string"
        },
        {
          "internalType": "string",
          "name": "_chassisNumber",
          "type": "string"
        },
        {
          "internalType": "string",
          "name": "_vehicleType",
          "type": "string"
        },
        {
          "internalType": "uint256",
          "name": "_engineCapacity",
          "type": "uint256"
        },
        {
          "internalType": "string",
          "name": "_registrationNumber",
          "type": "string"
        },
        {
          "internalType": "uint256",
          "name": "_registrationFee",
          "type": "uint256"
        },
        {
          "internalType": "string",
          "name": "_registrationTxHash",
          "type": "string"
        }
      ],
      "name": "registerVehicle",
      "outputs": [],
      "stateMutability": "payable",
      "type": "function"
    },
    {
      "inputs": [
        {
          "internalType": "string",
          "name": "_inspectionId",
          "type": "string"
        },
        {
          "internalType": "uint256",
          "name": "_taxAmount",
          "type": "uint256"
        }
      ],
      "name": "setTaxAmount",
      "outputs": [],
      "stateMutability": "nonpayable",
      "type": "function"
    },
    {
      "inputs": [
        {
          "internalType": "string",
          "name": "_inspectionId",
          "type": "string"
        },
        {
          "internalType": "string",
          "name": "_taxTxHash",
          "type": "string"
        }
      ],
      "name": "payTax",
      "outputs": [],
      "stateMutability": "payable",
      "type": "function"
    },
    {
      "inputs": [
        {
          "internalType": "string",
          "name": "_inspectionId",
          "type": "string"
        }
      ],
      "name": "getVehicle",
      "outputs": [
        {
          "components": [
            {
              "internalType": "string",
              "name": "inspectionId",
              "type": "string"
            },
            {
              "internalType": "string",
              "name": "make",
              "type": "string"
            },
            {
              "internalType": "string",
              "name": "model",
              "type": "string"
            },
            {
              "internalType": "uint256",
              "name": "year",
              "type": "uint256"
            },
            {
              "internalType": "string",
              "name": "engineNumber",
              "type": "string"
            },
            {
              "internalType": "string",
              "name": "chassisNumber",
              "type": "string"
            },
            {
              "internalType": "string",
              "name": "vehicleType",
              "type": "string"
            },
            {
              "internalType": "uint256",
              "name": "engineCapacity",
              "type": "uint256"
            },
            {
              "internalType": "string",
              "name": "registrationNumber",
              "type": "string"
            },
            {
              "internalType": "address",
              "name": "vehicleOwner",
              "type": "address"
            },
            {
              "internalType": "uint256",
              "name": "registrationFee",
              "type": "uint256"
            },
            {
              "internalType": "bool",
              "name": "registrationFeePaid",
              "type": "bool"
            },
            {
              "internalType": "uint256",
              "name": "registrationTimestamp",
              "type": "uint256"
            },
            {
              "internalType": "uint256",
              "name": "taxAmount",
              "type": "uint256"
            },
            {
              "internalType": "bool",
              "name": "taxPaid",
              "type": "bool"
            },
            {
              "internalType": "uint256",
              "name": "taxPaidTimestamp",
              "type": "uint256"
            },
            {
              "internalType": "string",
              "name": "registrationTxHash",
              "type": "string"
            },
            {
              "internalType": "string",
              "name": "taxTxHash",
              "type": "string"
            },
            {
              "internalType": "bool",
              "name": "isActive",
              "type": "bool"
            }
          ],
          "internalType": "struct VehicleRegistration.Vehicle",
          "name": "",
          "type": "tuple"
        }
      ],
      "stateMutability": "view",
      "type": "function"
    },
    {
      "inputs": [
        {
          "internalType": "string",
          "name": "_registrationNumber",
          "type": "string"
        }
      ],
      "name": "getVehicleByRegistration",
      "outputs": [
        {
          "components": [
            {
              "internalType": "string",
              "name": "inspectionId",
              "type": "string"
            },
            {
              "internalType": "string",
              "name": "make",
              "type": "string"
            },
            {
              "internalType": "string",
              "name": "model",
              "type": "string"
            },
            {
              "internalType": "uint256",
              "name": "year",
              "type": "uint256"
            },
            {
              "internalType": "string",
              "name": "engineNumber",
              "type": "string"
            },
            {
              "internalType": "string",
              "name": "chassisNumber",
              "type": "string"
            },
            {
              "internalType": "string",
              "name": "vehicleType",
              "type": "string"
            },
            {
              "internalType": "uint256",
              "name": "engineCapacity",
              "type": "uint256"
            },
            {
              "internalType": "string",
              "name": "registrationNumber",
              "type": "string"
            },
            {
              "internalType": "address",
              "name": "vehicleOwner",
              "type": "address"
            },
            {
              "internalType": "uint256",
              "name": "registrationFee",
              "type": "uint256"
            },
            {
              "internalType": "bool",
              "name": "registrationFeePaid",
              "type": "bool"
            },
            {
              "internalType": "uint256",
              "name": "registrationTimestamp",
              "type": "uint256"
            },
            {
              "internalType": "uint256",
              "name": "taxAmount",
              "type": "uint256"
            },
            {
              "internalType": "bool",
              "name": "taxPaid",
              "type": "bool"
            },
            {
              "internalType": "uint256",
              "name": "taxPaidTimestamp",
              "type": "uint256"
            },
            {
              "internalType": "string",
              "name": "registrationTxHash",
              "type": "string"
            },
            {
              "internalType": "string",
              "name": "taxTxHash",
              "type": "string"
            },
            {
              "internalType": "bool",
              "name": "isActive",
              "type": "bool"
            }
          ],
          "internalType": "struct VehicleRegistration.Vehicle",
          "name": "",
          "type": "tuple"
        }
      ],
      "stateMutability": "view",
      "type": "function"
    },
    {
      "inputs": [
        {
          "internalType": "address",
          "name": "_owner",
          "type": "address"
        }
      ],
      "name": "getVehiclesByOwner",
      "outputs": [
        {
          "internalType": "string[]",
          "name": "",
          "type": "string[]"
        }
      ],
      "stateMutability": "view",
      "type": "function"
    },
    {
      "inputs": [
        {
          "internalType": "string",
          "name": "_inspectionId",
          "type": "string"
        }
      ],
      "name": "isRegistrationFeePaid",
      "outputs": [
        {
          "internalType": "bool",
          "name": "",
          "type": "bool"
        }
      ],
      "stateMutability": "view",
      "type": "function"
    },
    {
      "inputs": [
        {
          "internalType": "string",
          "name": "_inspectionId",
          "type": "string"
        }
      ],
      "name": "isTaxPaid",
      "outputs": [
        {
          "internalType": "bool",
          "name": "",
          "type": "bool"
        }
      ],
      "stateMutability": "view",
      "type": "function"
    },
    {
      "inputs": [
        {
          "internalType": "string",
          "name": "_inspectionId",
          "type": "string"
        }
      ],
      "name": "getTaxAmount",
      "outputs": [
        {
          "internalType": "uint256",
          "name": "",
          "type": "uint256"
        }
      ],
      "stateMutability": "view",
      "type": "function"
    },
    {
      "inputs": [
        {
          "internalType": "string",
          "name": "_inspectionId",
          "type": "string"
        }
      ],
      "name": "getPaymentStatus",
      "outputs": [
        {
          "internalType": "bool",
          "name": "registrationPaid",
          "type": "bool"
        },
        {
          "internalType": "bool",
          "name": "taxPaid",
          "type": "bool"
        },
        {
          "internalType": "uint256",
          "name": "taxAmount",
          "type": "uint256"
        }
      ],
      "stateMutability": "view",
      "type": "function"
    },
    {
      "inputs": [
        {
          "internalType": "string",
          "name": "_inspectionId",
          "type": "string"
        },
        {
          "internalType": "string",
          "name": "_newRegistrationNumber",
          "type": "string"
        }
      ],
      "name": "updateRegistrationNumber",
      "outputs": [],
      "stateMutability": "nonpayable",
      "type": "function"
    },
    {
      "inputs": [
        {
          "internalType": "string",
          "name": "_inspectionId",
          "type": "string"
        },
        {
          "internalType": "address",
          "name": "_newOwner",
          "type": "address"
        }
      ],
      "name": "transferOwnership",
      "outputs": [],
      "stateMutability": "nonpayable",
      "type": "function"
    },
    {
      "inputs": [],
      "name": "getTotalVehicles",
      "outputs": [
        {
          "internalType": "uint256",
          "name": "",
          "type": "uint256"
        }
      ],
      "stateMutability": "view",
      "type": "function"
    },
    {
      "inputs": [
        {
          "internalType": "address",
          "name": "_newTreasury",
          "type": "address"
        }
      ],
      "name": "updateTreasury",
      "outputs": [],
      "stateMutability": "nonpayable",
      "type": "function"
    },
    {
      "inputs": [],
      "name": "emergencyWithdraw",
      "outputs": [],
      "stateMutability": "nonpayable",
      "type": "function"
    },
    {
      "inputs": [
        {
          "internalType": "string",
          "name": "_inspectionId",
          "type": "string"
        }
      ],
      "name": "deactivateVehicle",
      "outputs": [],
      "stateMutability": "nonpayable",
      "type": "function"
    },
    {
      "inputs": [
        {
          "internalType": "string",
          "name": "_inspectionId",
          "type": "string"
        }
      ],
      "name": "reactivateVehicle",
      "outputs": [],
      "stateMutability": "nonpayable",
      "type": "function"
    },
    {
      "inputs": [
        {
          "internalType": "string",
          "name": "_inspectionId",
          "type": "string"
        }
      ],
      "name": "isVehicleActive",
      "outputs": [
        {
          "internalType": "bool",
          "name": "",
          "type": "bool"
        }
      ],
      "stateMutability": "view",
      "type": "function"
    }
  ],
  "bytecode": "0x60803461007857601f6125f338819003918201601f19168301916001600160401b0383118484101761007c5780849260209460405283398101031261007857516001600160a01b038116908190036100785760018060a01b031933815f5416175f55600154161760015560405161256290816100918239f35b5f80fd5b634e487b7160e01b5f52604160045260245ffdfe6101406040526004361015610012575f80fd5b5f3560e01c8063047fd579146117ca57806329049f771461170c57806361d027b3146116e457806369056b27146116c75780636e3c4626146116665780637b6e967f1461162c5780637f51bb1f146115e2578063836f2c79146114ef578063840801631461136457806385b0bb1d14611337578063883f9bb0146112d15780638965e319146112975780638da5cb5b14611270578063976de5c514610f84578063a6b467eb14610f33578063a8d7668014610ee7578063aea5fe2d14610cd5578063c0e793c214610a49578063c833650714610492578063db2e21bc1461043f578063e769e3e1146103f1578063f1ddb0a51461038c578063fc4c22fc146103415763fd2240d314610122575f80fd5b3461033d5760208060031936011261033d57600435906001600160401b03821161033d576101a08161015a60609436906004016119e8565b6040519061018f61018882519385818186019661017881838a611a3d565b8101600281520301902054611c9a565b1515611faf565b604051938492839251928391611a3d565b81016002815203019020906040516101b7816119ab565b6040516101cf816101c88187611cd2565b03826119c7565b81526040516101e5816101c88160018801611cd2565b828201526040516101fd816101c88160028801611cd2565b604082015260038301548482015260405161021f816101c88160048801611cd2565b6080820152604051610238816101c88160058801611cd2565b60a0820152604051610251816101c88160068801611cd2565b60c0820152600783015460e0820152604051610274816101c88160088801611cd2565b61010082015260018060a01b03600984015416610120820152600a83015461014082015260ff600b8401541661016082019015158152600c840154610180830152600d840154916101a0810192835261024060ff601281600e89015416976101c085019815158952600f8101546101e08601526040516102fb816101c88160108601611cd2565b610200860152604051610315816101c88160118601611cd2565b6102208601520154161515910152511515925115159051916040519384528301526040820152f35b5f80fd5b3461033d57602036600319011261033d576004356001600160401b03811161033d5761037c6103776103889236906004016119e8565b612175565b60405191829182611a83565b0390f35b3461033d57602036600319011261033d576004356001600160401b03811161033d576103d760206103c360129336906004016119e8565b61015a60018060a01b035f54163314611f50565b60029082019081520301902001805460ff19166001179055005b3461033d57602036600319011261033d576004356001600160401b03811161033d5761042860206103c360129336906004016119e8565b60029082019081520301902001805460ff19169055005b3461033d575f36600319011261033d575f80548190819081906001600160a01b031661046c338214611f50565b4790828215610489575bf11561047e57005b6040513d5f823e3d90fd5b506108fc610476565b61016036600319011261033d576004356001600160401b03811161033d576104be9036906004016119e8565b6024356001600160401b03811161033d576104dd9036906004016119e8565b906044356001600160401b03811161033d576104fd9036906004016119e8565b916084356001600160401b03811161033d5761051d9036906004016119e8565b9260a4356001600160401b03811161033d5761053d9036906004016119e8565b60c4356001600160401b03811161033d5761055c9036906004016119e8565b90610104356001600160401b03811161033d5761057d9036906004016119e8565b95610144356001600160401b03811161033d5761059e9036906004016119e8565b93865115610a04576105c0604051602081816101788c83815193849201611a3d565b6109bf5761012435341061097a576105fe60ff6105ec60208b8160405193828580945193849201611a3d565b81016004815203019020541615611d7b565b6040519561060b876119ab565b878752602087015260408601526064356060860152608085015260a084015260c083015260e43560e08301528361010083015233610120830152610124356101408301526001610160830152426101808301525f6101a08301525f6101c08301525f6101e08301526102008201526040518060208101106001600160401b0360208301111761096657602081016040525f8152610220820152600161024082015261082660405160208185516106c48183858a01611a3d565b810160028152030190206106d9835182611e21565b6106ea602084015160018301611e21565b6106fb604084015160028301611e21565b60608301516003820155610716608084015160048301611e21565b61072760a084015160058301611e21565b61073860c084015160068301611e21565b60e0830151600782015561075461010084015160088301611e21565b601261024060018060a01b0394856101208201511660098501906001600160601b0360a01b825416179055610140810151600a8501556107aa6101608201511515600b86019060ff801983541691151516179055565b610180810151600c8501556101a0810151600d8501556107e06101c08201511515600e86019060ff801983541691151516179055565b6101e0810151600f8501556107fd61020082015160108601611e21565b61080f61022082015160118601611e21565b0151151591019060ff801983541691151516179055565b335f52600360205261083b8260405f20611ee2565b600554600160401b8110156109665780600161085a9201600555611c3c565b610953575f80809361086d868395611e21565b604051602081816108848b83815193849201611a3d565b81016004815203019020600160ff198254161790556001541681906101243515610949575b6101243591f11561047e57610124353411610915575b6108c890611f30565b7e214c736cb0078b5960b51c7f0f38f3607aca92e554482159fa0b3d4588d64e6108fd60405193606085526060850190611a5e565b926101243560208201524260408201528033940390a3005b5f8080806109266101243534611f0f565b818115610940575b3390f16108bf576040513d5f823e3d90fd5b506108fc61092e565b6108fc91506108a9565b634e487b7160e01b5f525f60045260245ffd5b634e487b7160e01b5f52604160045260245ffd5b60405162461bcd60e51b815260206004820152601d60248201527f496e73756666696369656e7420726567697374726174696f6e206665650000006044820152606490fd5b60405162461bcd60e51b815260206004820152601a60248201527f56656869636c6520616c726561647920726567697374657265640000000000006044820152606490fd5b60405162461bcd60e51b815260206004820152601d60248201527f496e7370656374696f6e2049442063616e6e6f7420626520656d7074790000006044820152606490fd5b3461033d57604036600319011261033d576004356001600160401b03811161033d57610a799036906004016119e8565b6024906001600160a01b0382358181169081900361033d5760405190835192610ab26101886020948581818a019861017881838c611a3d565b610ade81600960405186818a51610aca81838d611a3d565b810160028152030190200154163314611fef565b8115610c9157600960405184818851610af881838b611a3d565b8101600281520301902001541690600960405184818851610b1a81838b611a3d565b8101600281520301902001816001600160601b0360a01b8254161790555f5260038252610b4a8460405f20611ee2565b5f526003815260405f20915f5b835480821015610c8f576101c8610b7e610b718488611c85565b5060405192838092611cd2565b8481519101208651842014610b9c5750610b97906120d8565b610b57565b9293945090505f1991828101908111610c7c57610bbc610bc49186611c85565b509185611c85565b919091610c6a57610bd491612454565b82548015610c57570192610be88484611c85565b919091610c465750610bfa8154611c9a565b80610c06575b50505055005b5f92601f90818311600114610c2257505050555b828080610c00565b8391610c3f9186949585528420940160051c840160018501611dc6565b5555610c1a565b634e487b7160e01b5f525f6004525ffd5b84634e487b7160e01b5f5260316004525ffd5b85634e487b7160e01b5f525f6004525ffd5b85634e487b7160e01b5f5260116004525ffd5b005b60405162461bcd60e51b8152600481018490526019818801527f496e76616c6964206e6577206f776e65722061646472657373000000000000006044820152606490fd5b610cde36611bf6565b604051908251610cfe610188602094858181890195610178818389611a3d565b610d498360405192610d388751610d16818785611a3d565b8501600281526009868560018060a01b03988994030190200154163314611fef565b604051809381928951928391611a3d565b8101600281520301902091600d83019283548015610ead57600e82019081549060ff8216610e75573410610e305760ff1916600117905542600f8201555f9283928392839291610d9b91601101611e21565b60015416855490828215610e27575bf11561047e578054803411610dfa575b50610dc6905492611f30565b9060405192835242908301527f45363bdd96a69e2a6a6d0f76b90f7c8746594460ccbc71117c219cdf7f11fce460403393a3005b5f8080610e08819434611f0f565b818115610e1e575b3390f11561047e5783610dba565b506108fc610e10565b506108fc610daa565b60405162461bcd60e51b815260048101889052601760248201527f496e73756666696369656e742074617820616d6f756e740000000000000000006044820152606490fd5b60405162461bcd60e51b815260048101899052601060248201526f15185e08185b1c9958591e481c185a5960821b6044820152606490fd5b60405162461bcd60e51b815260048101879052601260248201527115185e08185b5bdd5b9d081b9bdd081cd95d60721b6044820152606490fd5b3461033d57602036600319011261033d576004356001600160401b03811161033d57600d610f1f602061015a819436906004016119e8565b810160028152030190200154604051908152f35b3461033d57602036600319011261033d576004356001600160401b03811161033d5760ff6012610f6d602061015a819536906004016119e8565b810160028152030190200154166040519015158152f35b3461033d57602036600319011261033d576004356001600160401b03811161033d57610fb49036906004016119e8565b6040518181809351602081930191610fcb92611a3d565b8101600281520360200190206040519081610fe68183611cd2565b03610ff190836119c7565b60405161010081815292829161100a8160018501611cd2565b03845190611017916119c7565b60405160c081905261102c8160028501611cd2565b0360c0519061103a916119c7565b6003820154604051806110508160048701611cd2565b0361105b90826119c7565b6040518061106c8160058801611cd2565b0361107790826119c7565b60405196876110898160068901611cd2565b0361109490896119c7565b600786015460405191826110ab8160088b01611cd2565b036110b690846119c7565b600160a01b6001900360098901541699600a89015494600b8a015460ff1696600c8b015498600d8c01549a600e8d015460ff169c600f01549d604051806101205280601083019061110691611cd2565b036101205190611115916119c7565b604051608081905261112a8160118401611cd2565b0360805190611138916119c7565b6012015460ff1660e0526040518060a05261026080915260a0510161115c91611a5e565b60a051808203906020015285519061117391611a5e565b60a051808203906040015260c0519061118b91611a5e565b9060a0516060015260a05180820390608001526111a791611a5e565b60a0518082039060a001526111bb91611a5e565b60a0518082039060c001526111cf91611a5e565b9160a05160e0015260a051908183039101526111ea91611a5e565b9660a051610120015260a0516101400152151560a051610160015260a051610180015260a0516101a00152151560a0516101c0015260a0516101e0015260a051808203906102000152610120519061124191611a5e565b60a0518082039061022001526080519061125a91611a5e565b60e051151560a051610240015260a05180910390f35b3461033d575f36600319011261033d575f546040516001600160a01b039091168152602090f35b3461033d57602036600319011261033d576004356001600160401b03811161033d5760ff600b610f6d602061015a819536906004016119e8565b3461033d57604036600319011261033d576112ea611be0565b6001600160a01b03165f90815260036020526040902080546024359081101561033d5761131d6113239161038893611c85565b90611d63565b604051918291602083526020830190611a5e565b3461033d57602036600319011261033d5760043560055481101561033d5761132361131d61038892611c3c565b3461033d5761137236611bf6565b5f54611388906001600160a01b03163314611f50565b6040519180516020938481818501936113a2818387611a3d565b81016002815203019020546113b690611c9a565b15156113c190611faf565b8380604051928551938281818901966113db81838a611a3d565b810160048152030190205460ff16156113f390611d7b565b8560405183818851611406818388611a3d565b8101600281520301902060080191604051611422818095611cd2565b0361142d90846119c7565b836040518080938a51809261144192611a3d565b810160028152030190206008019061145891611e21565b604051928382819351928391019161146f92611a3d565b810160048152030190209060ff1991828154169055846040518080938751809261149892611a3d565b810160048152030190209081541660011790556114b490611f30565b9160405191818392835282016114c991611a5e565b037fd3821bf154a7f8ca1a264a9f4716bb8db1b59808597e53aa6ec94c6be636502791a2005b3461033d5760208060031936011261033d576001600160a01b03611511611be0565b165f526003815260405f208054906001600160401b03821161096657829060405192611542838260051b01856119c7565b80845282840180925f52835f205f915b8383106115b85750505050604051918083019381845251809452604083019360408160051b85010192915f955b82871061158c5785850386f35b9091929382806115a8600193603f198a82030186528851611a5e565b960192019601959291909261157f565b60018681926040999899516115d1816101c88189611cd2565b815201920192019190959495611552565b3461033d57602036600319011261033d576115fb611be0565b5f546001600160a01b0391906116149083163314611f50565b166001600160601b0360a01b60015416176001555f80f35b3461033d57602036600319011261033d576004356001600160401b03811161033d5760ff600e610f6d602061015a819536906004016119e8565b3461033d57602036600319011261033d576004356001600160401b03811161033d5760ff6116b1602061169e819436906004016119e8565b8160405193828580945193849201611a3d565b8101600481520301902054166040519015158152f35b3461033d575f36600319011261033d576020600554604051908152f35b3461033d575f36600319011261033d576001546040516001600160a01b039091168152602090f35b3461033d57604036600319011261033d576004356001600160401b03811161033d5761173c9036906004016119e8565b7f69e80bec500e8346d9d03785cd60d1becdcb124e8db1e46a414d58cf4075a85860206117c06024359361177a60018060a01b035f54163314611f50565b84600d6117af8560405161179e6101888751928481818b0195610178818389611a3d565b604051809381928851928391611a3d565b810160028152030190200155611f30565b92604051908152a2005b3461033d57602036600319011261033d576004356001600160401b03811161033d5761182960206118026103889336906004016119e8565b61180a61204d565b506040519061018f61018882519385818186019661017881838a611a3d565b8101600281520301902060ff601260405192611844846119ab565b604051611855816101c88185611cd2565b845260405161186b816101c88160018601611cd2565b6020850152604051611884816101c88160028601611cd2565b6040850152600381015460608501526040516118a7816101c88160048601611cd2565b60808501526040516118c0816101c88160058601611cd2565b60a08501526040516118d9816101c88160068601611cd2565b60c0850152600781015460e08501526040516118fc816101c88160088601611cd2565b61010085015260098101546001600160a01b0316610120850152600a810154610140850152600b81015483161515610160850152600c810154610180850152600d8101546101a0850152600e810154831615156101c0850152600f8101546101e0850152604051611974816101c88160108601611cd2565b61020085015260405161198e816101c88160118601611cd2565b610220850152015416151561024082015260405191829182611a83565b61026081019081106001600160401b0382111761096657604052565b90601f801991011681019081106001600160401b0382111761096657604052565b81601f8201121561033d578035906001600160401b0382116109665760405192611a1c601f8401601f1916602001856119c7565b8284526020838301011161033d57815f926020809301838601378301015290565b5f5b838110611a4e5750505f910152565b8181015183820152602001611a3f565b90602091611a7781518092818552858086019101611a3d565b601f01601f1916010190565b602081528151611aa161026091826020850152610280840190611a5e565b611bd5611b26611b12611afe611ae0611acc60208a015196601f1997888b83030160408c0152611a5e565b60408a0151878a83030160608b0152611a5e565b606089015160808901526080890151868983030160a08a0152611a5e565b60a0880151858883030160c0890152611a5e565b60c0870151848783030160e0880152611a5e565b611bc0611b4f60e0880151610100908189015288015192610120938689830301858a0152611a5e565b9160018060a01b03908801511661014090818801528701516101609081880152870151151561018090818801528701516101a090818801528701516101c0908188015287015115156101e0908188015287015161020090818801528701519161022092858883030184890152611a5e565b90860151610240938683030184870152611a5e565b930151151591015290565b600435906001600160a01b038216820361033d57565b90604060031983011261033d576001600160401b0360043581811161033d5783611c22916004016119e8565b9260243591821161033d57611c39916004016119e8565b90565b600554811015611c715760055f527f036b6384b5eca791c62761152d0c79bb0604c104a5fb6f4eb0703f3154bb3db001905f90565b634e487b7160e01b5f52603260045260245ffd5b8054821015611c71575f5260205f2001905f90565b90600182811c92168015611cc8575b6020831014611cb457565b634e487b7160e01b5f52602260045260245ffd5b91607f1691611ca9565b905f9291805491611ce283611c9a565b9182825260019384811690815f14611d405750600114611d03575b50505050565b90919394505f52602092835f2092845f945b838610611d2c57505050500101905f808080611cfd565b805485870183015294019385908201611d15565b9294505050602093945060ff191683830152151560051b0101905f808080611cfd565b9061095357611c396101c89160405192838092611cd2565b15611d8257565b606460405162461bcd60e51b815260206004820152602060248201527f526567697374726174696f6e206e756d62657220616c726561647920757365646044820152fd5b818110611dd1575050565b5f8155600101611dc6565b9190601f8111611deb57505050565b611e15925f5260205f20906020601f840160051c83019310611e17575b601f0160051c0190611dc6565b565b9091508190611e08565b91909182516001600160401b03811161096657611e4881611e428454611c9a565b84611ddc565b602080601f8311600114611e825750819293945f92611e77575b50508160011b915f199060031b1c1916179055565b015190505f80611e62565b90601f19831695845f52825f20925f905b888210611eca57505083600195969710611eb2575b505050811b019055565b01515f1960f88460031b161c191690555f8080611ea8565b80600185968294968601518155019501930190611e93565b8054600160401b81101561096657611eff91600182018155611c85565b91909161095357611e1591611e21565b91908203918211611f1c57565b634e487b7160e01b5f52601160045260245ffd5b611f4890602060405192828480945193849201611a3d565b810103902090565b15611f5757565b60405162461bcd60e51b815260206004820152602a60248201527f4f6e6c7920636f6e7472616374206f776e65722063616e2063616c6c207468696044820152693990333ab731ba34b7b760b11b6064820152608490fd5b15611fb657565b60405162461bcd60e51b815260206004820152601160248201527015995a1a58db19481b9bdd08199bdd5b99607a1b6044820152606490fd5b15611ff657565b60405162461bcd60e51b815260206004820152602960248201527f4f6e6c792076656869636c65206f776e65722063616e2063616c6c207468697360448201526810333ab731ba34b7b760b91b6064820152608490fd5b6040519061205a826119ab565b816102406060918281528260208201528260408201525f9283818301528060808301528060a08301528060c08301528360e08301528061010083015283610120830152836101408301528361016083015283610180830152836101a0830152836101c0830152836101e0830152806102008301526102208201520152565b5f198114611f1c5760010190565b60405190815f82546120f781611c9a565b93600191808316908115612159575060011461211f575b505060209250600281520301902090565b9091505f52602090815f20905f915b858310612145575050505060209181015f8061210e565b80548784015286945091830191810161212e565b92505050602093915060ff191682528015150281015f8061210e565b61217d61204d565b50604080519180519260209081830194612198818388611a3d565b810194600495868152828460ff94859303019020541615612411575f936005918254955b86811061220257875162461bcd60e51b81526020818b018181526011918101919091527015995a1a58db19481b9bdd08199bdd5b99607a1b604082015281906060010390fd5b61221f6101c861222b61221484611c3c565b5060089384916120e6565b018b5192838092611cd2565b87815191012084518420146122495750612244906120d8565b6121bc565b949795989650905061225b9150611c3c565b50612265906120e6565b93835196612272886119ab565b84518061227f8189611cd2565b0361228a90826119c7565b88528451908161229d8160018a01611cd2565b036122a890836119c7565b8801528351806122bb8160028901611cd2565b036122c690826119c7565b848801526003850154606088015283518080928701906122e591611cd2565b036122f090826119c7565b6080870152825180809286019061230691611cd2565b0361231190826119c7565b60a08601528151806123268160068701611cd2565b0361233190826119c7565b60c0860152600783015460e0860152815180809285019061235191611cd2565b0361235c90826119c7565b61010085015260098201546001600160a01b0316610120850152600a820154610140850152600b82015483161515610160850152600c820154610180850152600d8201546101a0850152600e820154831615156101c0850152600f8201546101e08501528051806123d08160108601611cd2565b036123db90826119c7565b61020085015251806123f08160118501611cd2565b036123fb90826119c7565b6102208401526012015416151561024082015290565b845162461bcd60e51b8152808701849052601d60248201527f526567697374726174696f6e206e756d626572206e6f7420666f756e640000006044820152606490fd5b90808214612528576124668154611c9a565b906001600160401b03821161096657819061248b826124858654611c9a565b86611ddc565b5f90601f83116001146124be575f926124b35750508160011b915f199060031b1c1916179055565b015490505f80611e62565b81526020808220858352818320935090601f1985169083905b82821061250f5750509084600195949392106124f757505050811b019055565b01545f1960f88460031b161c191690555f8080611ea8565b84958192958501548155600180910196019401906124d7565b505056fea26469706673582212206db67e3406cd951dfe4850c3980278f5648bd7780e1aff569409e31f7058dd8064736f6c63430008140033",
  "immutableReferences": {},
  "source": "// SPDX-License-Identifier: MIT\r\npragma solidity ^0.8.20;\r\n\r\ncontract VehicleRegistration {\r\n    // Owner of the contract (government authority)\r\n    address public owner;\r\n    \r\n    // Treasury address where fees are collected\r\n    address public treasury;\r\n    \r\n    // Structure to store vehicle information\r\n    struct Vehicle {\r\n        string inspectionId;\r\n        string make;\r\n        string model;\r\n        uint256 year;\r\n        string engineNumber;\r\n        string chassisNumber;\r\n        string vehicleType;\r\n        uint256 engineCapacity;\r\n        string registrationNumber;\r\n        address vehicleOwner;\r\n        uint256 registrationFee;\r\n        bool registrationFeePaid;\r\n        uint256 registrationTimestamp;\r\n        uint256 taxAmount;\r\n        bool taxPaid;\r\n        uint256 taxPaidTimestamp;\r\n        string registrationTxHash;\r\n        string taxTxHash;\r\n        bool isActive;\r\n    }\r\n    \r\n    // Mappings\r\n    mapping(string => Vehicle) public vehicles; // inspectionId => Vehicle\r\n    mapping(address => string[]) public ownerVehicles; // owner => inspectionIds[]\r\n    mapping(string => bool) public registrationNumbers; // track used registration numbers\r\n    \r\n    // Arrays to keep track of all vehicles\r\n    string[] public allInspectionIds;\r\n    \r\n    // Events\r\n    event VehicleRegistered(\r\n        string indexed inspectionId,\r\n        address indexed owner,\r\n        string registrationNumber,\r\n        uint256 registrationFee,\r\n        uint256 timestamp\r\n    );\r\n    \r\n    event TaxPaid(\r\n        string indexed inspectionId,\r\n        address indexed owner,\r\n        uint256 taxAmount,\r\n        uint256 timestamp\r\n    );\r\n    \r\n    event RegistrationNumberUpdated(\r\n        string indexed inspectionId,\r\n        string newRegistrationNumber\r\n    );\r\n    \r\n    event TaxAmountSet(\r\n        string indexed inspectionId,\r\n        uint256 taxAmount\r\n    );\r\n    \r\n    // Modifiers\r\n    modifier onlyOwner() {\r\n        require(msg.sender == owner, \"Only contract owner can call this function\");\r\n        _;\r\n    }\r\n    \r\n    modifier vehicleExists(string memory _inspectionId) {\r\n        require(bytes(vehicles[_inspectionId].inspectionId).length > 0, \"Vehicle not found\");\r\n        _;\r\n    }\r\n    \r\n    modifier onlyVehicleOwner(string memory _inspectionId) {\r\n        require(vehicles[_inspectionId].vehicleOwner == msg.sender, \"Only vehicle owner can call this function\");\r\n        _;\r\n    }\r\n    \r\n    // Constructor\r\n    constructor(address _treasury) {\r\n        owner = msg.sender;\r\n        treasury = _treasury;\r\n    }\r\n    \r\n    // Register a new vehicle with registration fee payment\r\n    function registerVehicle(\r\n        string memory _inspectionId,\r\n        string memory _make,\r\n        string memory _model,\r\n        uint256 _year,\r\n        string memory _engineNumber,\r\n        string memory _chassisNumber,\r\n        string memory _vehicleType,\r\n        uint256 _engineCapacity,\r\n        string memory _registrationNumber,\r\n        uint256 _registrationFee,\r\n        string memory _registrationTxHash\r\n    ) external payable {\r\n        require(bytes(_inspectionId).length > 0, \"Inspection ID cannot be empty\");\r\n        require(bytes(vehicles[_inspectionId].inspectionId).length == 0, \"Vehicle already registered\");\r\n        require(msg.value >= _registrationFee, \"Insufficient registration fee\");\r\n        require(!registrationNumbers[_registrationNumber], \"Registration number already used\");\r\n        \r\n        // Create new vehicle record\r\n        Vehicle memory newVehicle = Vehicle({\r\n            inspectionId: _inspectionId,\r\n            make: _make,\r\n            model: _model,\r\n            year: _year,\r\n            engineNumber: _engineNumber,\r\n            chassisNumber: _chassisNumber,\r\n            vehicleType: _vehicleType,\r\n            engineCapacity: _engineCapacity,\r\n            registrationNumber: _registrationNumber,\r\n            vehicleOwner: msg.sender,\r\n            registrationFee: _registrationFee,\r\n            registrationFeePaid: true,\r\n            registrationTimestamp: block.timestamp,\r\n            taxAmount: 0, // Tax not set initially\r\n            taxPaid: false,\r\n            taxPaidTimestamp: 0,\r\n            registrationTxHash: _registrationTxHash,\r\n            taxTxHash: \"\",\r\n            isActive: true\r\n        });\r\n        \r\n        // Store vehicle data\r\n        vehicles[_inspectionId] = newVehicle;\r\n        ownerVehicles[msg.sender].push(_inspectionId);\r\n        allInspectionIds.push(_inspectionId);\r\n        registrationNumbers[_registrationNumber] = true;\r\n        \r\n        // Transfer registration fee to treasury\r\n        payable(treasury).transfer(_registrationFee);\r\n        \r\n        // Refund excess payment if any\r\n        if (msg.value > _registrationFee) {\r\n            payable(msg.sender).transfer(msg.value - _registrationFee);\r\n        }\r\n        \r\n        emit VehicleRegistered(_inspectionId, msg.sender, _registrationNumber, _registrationFee, block.timestamp);\r\n    }\r\n    \r\n    // Set tax amount for a vehicle (only owner can set)\r\n    function setTaxAmount(string memory _inspectionId, uint256 _taxAmount) \r\n        external \r\n        onlyOwner \r\n        vehicleExists(_inspectionId) \r\n    {\r\n        vehicles[_inspectionId].taxAmount = _taxAmount;\r\n        emit TaxAmountSet(_inspectionId, _taxAmount);\r\n    }\r\n    \r\n    // Pay tax for a vehicle\r\n    function payTax(string memory _inspectionId, string memory _taxTxHash) \r\n        external \r\n        payable \r\n        vehicleExists(_inspectionId) \r\n        onlyVehicleOwner(_inspectionId) \r\n    {\r\n        Vehicle storage vehicle = vehicles[_inspectionId];\r\n        require(vehicle.taxAmount > 0, \"Tax amount not set\");\r\n        require(!vehicle.taxPaid, \"Tax already paid\");\r\n        require(msg.value >= vehicle.taxAmount, \"Insufficient tax amount\");\r\n        \r\n        // Update tax payment status\r\n        vehicle.taxPaid = true;\r\n        vehicle.taxPaidTimestamp = block.timestamp;\r\n        vehicle.taxTxHash = _taxTxHash;\r\n        \r\n        // Transfer tax to treasury\r\n        payable(treasury).transfer(vehicle.taxAmount);\r\n        \r\n        // Refund excess payment if any\r\n        if (msg.value > vehicle.taxAmount) {\r\n            payable(msg.sender).transfer(msg.value - vehicle.taxAmount);\r\n        }\r\n        \r\n        emit TaxPaid(_inspectionId, msg.sender, vehicle.taxAmount, block.timestamp);\r\n    }\r\n    \r\n    // Get complete vehicle information\r\n    function getVehicle(string memory _inspectionId) \r\n        external \r\n        view \r\n        vehicleExists(_inspectionId) \r\n        returns (Vehicle memory) \r\n    {\r\n        return vehicles[_inspectionId];\r\n    }\r\n    \r\n    // Get vehicle by registration number\r\n    function getVehicleByRegistration(string memory _registrationNumber) \r\n        external \r\n        view \r\n        returns (Vehicle memory) \r\n    {\r\n        require(registrationNumbers[_registrationNumber], \"Registration number not found\");\r\n        \r\n        // Search through all vehicles to find by registration number\r\n        for (uint i = 0; i < allInspectionIds.length; i++) {\r\n            if (keccak256(bytes(vehicles[allInspectionIds[i]].registrationNumber)) == keccak256(bytes(_registrationNumber))) {\r\n                return vehicles[allInspectionIds[i]];\r\n            }\r\n        }\r\n        revert(\"Vehicle not found\");\r\n    }\r\n    \r\n    // Get all vehicles owned by an address\r\n    function getVehiclesByOwner(address _owner) \r\n        external \r\n        view \r\n        returns (string[] memory) \r\n    {\r\n        return ownerVehicles[_owner];\r\n    }\r\n    \r\n    // Check if registration fee is paid\r\n    function isRegistrationFeePaid(string memory _inspectionId) \r\n        external \r\n        view \r\n        vehicleExists(_inspectionId) \r\n        returns (bool) \r\n    {\r\n        return vehicles[_inspectionId].registrationFeePaid;\r\n    }\r\n    \r\n    // Check if tax is paid\r\n    function isTaxPaid(string memory _inspectionId) \r\n        external \r\n        view \r\n        vehicleExists(_inspectionId) \r\n        returns (bool) \r\n    {\r\n        return vehicles[_inspectionId].taxPaid;\r\n    }\r\n    \r\n    // Get tax amount for a vehicle\r\n    function getTaxAmount(string memory _inspectionId) \r\n        external \r\n        view \r\n        vehicleExists(_inspectionId) \r\n        returns (uint256) \r\n    {\r\n        return vehicles[_inspectionId].taxAmount;\r\n    }\r\n    \r\n    // Get payment status for a vehicle\r\n    function getPaymentStatus(string memory _inspectionId) \r\n        external \r\n        view \r\n        vehicleExists(_inspectionId) \r\n        returns (bool registrationPaid, bool taxPaid, uint256 taxAmount) \r\n    {\r\n        Vehicle memory vehicle = vehicles[_inspectionId];\r\n        return (vehicle.registrationFeePaid, vehicle.taxPaid, vehicle.taxAmount);\r\n    }\r\n    \r\n    // Update registration number (only owner)\r\n    function updateRegistrationNumber(string memory _inspectionId, string memory _newRegistrationNumber) \r\n        external \r\n        onlyOwner \r\n        vehicleExists(_inspectionId) \r\n    {\r\n        require(!registrationNumbers[_newRegistrationNumber], \"Registration number already used\");\r\n        \r\n        string memory oldRegistrationNumber = vehicles[_inspectionId].registrationNumber;\r\n        \r\n        // Update registration number\r\n        vehicles[_inspectionId].registrationNumber = _newRegistrationNumber;\r\n        \r\n        // Update mappings\r\n        registrationNumbers[oldRegistrationNumber] = false;\r\n        registrationNumbers[_newRegistrationNumber] = true;\r\n        \r\n        emit RegistrationNumberUpdated(_inspectionId, _newRegistrationNumber);\r\n    }\r\n    \r\n    // Transfer vehicle ownership\r\n    function transferOwnership(string memory _inspectionId, address _newOwner) \r\n        external \r\n        vehicleExists(_inspectionId) \r\n        onlyVehicleOwner(_inspectionId) \r\n    {\r\n        require(_newOwner != address(0), \"Invalid new owner address\");\r\n        \r\n        address oldOwner = vehicles[_inspectionId].vehicleOwner;\r\n        vehicles[_inspectionId].vehicleOwner = _newOwner;\r\n        \r\n        // Update owner vehicles mapping\r\n        ownerVehicles[_newOwner].push(_inspectionId);\r\n        \r\n        // Remove from old owner's list\r\n        string[] storage oldOwnerVehicles = ownerVehicles[oldOwner];\r\n        for (uint i = 0; i < oldOwnerVehicles.length; i++) {\r\n            if (keccak256(bytes(oldOwnerVehicles[i])) == keccak256(bytes(_inspectionId))) {\r\n                oldOwnerVehicles[i] = oldOwnerVehicles[oldOwnerVehicles.length - 1];\r\n                oldOwnerVehicles.pop();\r\n                break;\r\n            }\r\n        }\r\n    }\r\n    \r\n    // Get total number of registered vehicles\r\n    function getTotalVehicles() external view returns (uint256) {\r\n        return allInspectionIds.length;\r\n    }\r\n    \r\n    // Emergency functions (only owner)\r\n    function updateTreasury(address _newTreasury) external onlyOwner {\r\n        treasury = _newTreasury;\r\n    }\r\n    \r\n    function emergencyWithdraw() external onlyOwner {\r\n        payable(owner).transfer(address(this).balance);\r\n    }\r\n    \r\n    // Deactivate a vehicle (in case of stolen/scrapped)\r\n    function deactivateVehicle(string memory _inspectionId) \r\n        external \r\n        onlyOwner \r\n        vehicleExists(_inspectionId) \r\n    {\r\n        vehicles[_inspectionId].isActive = false;\r\n    }\r\n    \r\n    // Reactivate a vehicle\r\n    function reactivateVehicle(string memory _inspectionId) \r\n        external \r\n        onlyOwner \r\n        vehicleExists(_inspectionId) \r\n    {\r\n        vehicles[_inspectionId].isActive = true;\r\n    }\r\n    \r\n    // Check if vehicle is active\r\n    function isVehicleActive(string memory _inspectionId) \r\n        external \r\n        view \r\n        vehicleExists(_inspectionId) \r\n        returns (bool) \r\n    {\r\n        return vehicles[_inspectionId].isActive;\r\n    }\r\n  }",
  "sourcePath": "F:\\TaxTron-FYP\\taxtron\\backend\\contracts\\VehicleRegistry.sol",
  "compiler": {
    "name": "solc",
    "version": "0.8.20+commit.a1b79de6.Emscripten.clang"
  },
  "schemaVersion": "3.4.16",
  "updatedAt": "2025-09-13T21:43:51.097Z",
  "devdoc": {
    "kind": "dev",
    "methods": {},
    "version": 1
  },
  "userdoc": {
    "kind": "user",
    "methods": {},
    "version": 1
  }
}