{
  "contractName": "VehicleRegistration",
  "abi": [
    {
      "inputs": [
        {
          "internalType": "address",
          "name": "_treasury",
          "type": "address"
        }
      ],
      "stateMutability": "nonpayable",
      "type": "constructor"
    },
    {
      "anonymous": false,
      "inputs": [
        {
          "indexed": true,
          "internalType": "string",
          "name": "inspectionId",
          "type": "string"
        },
        {
          "indexed": true,
          "internalType": "address",
          "name": "oldOwner",
          "type": "address"
        },
        {
          "indexed": true,
          "internalType": "address",
          "name": "newOwner",
          "type": "address"
        },
        {
          "indexed": false,
          "internalType": "uint256",
          "name": "transferFee",
          "type": "uint256"
        },
        {
          "indexed": false,
          "internalType": "uint256",
          "name": "timestamp",
          "type": "uint256"
        }
      ],
      "name": "OwnershipTransferred",
      "type": "event"
    },
    {
      "anonymous": false,
      "inputs": [
        {
          "indexed": true,
          "internalType": "string",
          "name": "inspectionId",
          "type": "string"
        },
        {
          "indexed": false,
          "internalType": "string",
          "name": "newRegistrationNumber",
          "type": "string"
        }
      ],
      "name": "RegistrationNumberUpdated",
      "type": "event"
    },
    {
      "anonymous": false,
      "inputs": [
        {
          "indexed": true,
          "internalType": "string",
          "name": "inspectionId",
          "type": "string"
        },
        {
          "indexed": false,
          "internalType": "uint256",
          "name": "taxAmount",
          "type": "uint256"
        }
      ],
      "name": "TaxAmountSet",
      "type": "event"
    },
    {
      "anonymous": false,
      "inputs": [
        {
          "indexed": true,
          "internalType": "string",
          "name": "inspectionId",
          "type": "string"
        },
        {
          "indexed": true,
          "internalType": "address",
          "name": "owner",
          "type": "address"
        },
        {
          "indexed": false,
          "internalType": "uint256",
          "name": "taxAmount",
          "type": "uint256"
        },
        {
          "indexed": false,
          "internalType": "uint256",
          "name": "timestamp",
          "type": "uint256"
        }
      ],
      "name": "TaxPaid",
      "type": "event"
    },
    {
      "anonymous": false,
      "inputs": [
        {
          "indexed": true,
          "internalType": "string",
          "name": "inspectionId",
          "type": "string"
        },
        {
          "indexed": true,
          "internalType": "address",
          "name": "owner",
          "type": "address"
        },
        {
          "indexed": false,
          "internalType": "string",
          "name": "registrationNumber",
          "type": "string"
        },
        {
          "indexed": false,
          "internalType": "uint256",
          "name": "registrationFee",
          "type": "uint256"
        },
        {
          "indexed": false,
          "internalType": "uint256",
          "name": "timestamp",
          "type": "uint256"
        }
      ],
      "name": "VehicleRegistered",
      "type": "event"
    },
    {
      "inputs": [
        {
          "internalType": "uint256",
          "name": "",
          "type": "uint256"
        }
      ],
      "name": "allInspectionIds",
      "outputs": [
        {
          "internalType": "string",
          "name": "",
          "type": "string"
        }
      ],
      "stateMutability": "view",
      "type": "function"
    },
    {
      "inputs": [],
      "name": "owner",
      "outputs": [
        {
          "internalType": "address",
          "name": "",
          "type": "address"
        }
      ],
      "stateMutability": "view",
      "type": "function"
    },
    {
      "inputs": [
        {
          "internalType": "address",
          "name": "",
          "type": "address"
        },
        {
          "internalType": "uint256",
          "name": "",
          "type": "uint256"
        }
      ],
      "name": "ownerVehicles",
      "outputs": [
        {
          "internalType": "string",
          "name": "",
          "type": "string"
        }
      ],
      "stateMutability": "view",
      "type": "function"
    },
    {
      "inputs": [
        {
          "internalType": "string",
          "name": "",
          "type": "string"
        }
      ],
      "name": "registrationNumbers",
      "outputs": [
        {
          "internalType": "bool",
          "name": "",
          "type": "bool"
        }
      ],
      "stateMutability": "view",
      "type": "function"
    },
    {
      "inputs": [],
      "name": "treasury",
      "outputs": [
        {
          "internalType": "address",
          "name": "",
          "type": "address"
        }
      ],
      "stateMutability": "view",
      "type": "function"
    },
    {
      "inputs": [
        {
          "internalType": "string",
          "name": "",
          "type": "string"
        }
      ],
      "name": "vehicles",
      "outputs": [
        {
          "internalType": "string",
          "name": "inspectionId",
          "type": "string"
        },
        {
          "internalType": "string",
          "name": "make",
          "type": "string"
        },
        {
          "internalType": "string",
          "name": "model",
          "type": "string"
        },
        {
          "internalType": "uint256",
          "name": "year",
          "type": "uint256"
        },
        {
          "internalType": "string",
          "name": "engineNumber",
          "type": "string"
        },
        {
          "internalType": "string",
          "name": "chassisNumber",
          "type": "string"
        },
        {
          "internalType": "string",
          "name": "vehicleType",
          "type": "string"
        },
        {
          "internalType": "uint256",
          "name": "engineCapacity",
          "type": "uint256"
        },
        {
          "internalType": "string",
          "name": "registrationNumber",
          "type": "string"
        },
        {
          "internalType": "address",
          "name": "vehicleOwner",
          "type": "address"
        },
        {
          "internalType": "uint256",
          "name": "registrationFee",
          "type": "uint256"
        },
        {
          "internalType": "bool",
          "name": "registrationFeePaid",
          "type": "bool"
        },
        {
          "internalType": "uint256",
          "name": "registrationTimestamp",
          "type": "uint256"
        },
        {
          "internalType": "uint256",
          "name": "taxAmount",
          "type": "uint256"
        },
        {
          "internalType": "bool",
          "name": "taxPaid",
          "type": "bool"
        },
        {
          "internalType": "uint256",
          "name": "taxPaidTimestamp",
          "type": "uint256"
        },
        {
          "internalType": "string",
          "name": "registrationTxHash",
          "type": "string"
        },
        {
          "internalType": "string",
          "name": "taxTxHash",
          "type": "string"
        },
        {
          "internalType": "bool",
          "name": "isActive",
          "type": "bool"
        }
      ],
      "stateMutability": "view",
      "type": "function"
    },
    {
      "inputs": [
        {
          "internalType": "string",
          "name": "_inspectionId",
          "type": "string"
        },
        {
          "internalType": "string",
          "name": "_make",
          "type": "string"
        },
        {
          "internalType": "string",
          "name": "_model",
          "type": "string"
        },
        {
          "internalType": "uint256",
          "name": "_year",
          "type": "uint256"
        },
        {
          "internalType": "string",
          "name": "_engineNumber",
          "type": "string"
        },
        {
          "internalType": "string",
          "name": "_chassisNumber",
          "type": "string"
        },
        {
          "internalType": "string",
          "name": "_vehicleType",
          "type": "string"
        },
        {
          "internalType": "uint256",
          "name": "_engineCapacity",
          "type": "uint256"
        },
        {
          "internalType": "string",
          "name": "_registrationNumber",
          "type": "string"
        },
        {
          "internalType": "uint256",
          "name": "_registrationFee",
          "type": "uint256"
        },
        {
          "internalType": "string",
          "name": "_registrationTxHash",
          "type": "string"
        }
      ],
      "name": "registerVehicle",
      "outputs": [],
      "stateMutability": "payable",
      "type": "function"
    },
    {
      "inputs": [
        {
          "internalType": "string",
          "name": "_inspectionId",
          "type": "string"
        },
        {
          "internalType": "uint256",
          "name": "_taxAmount",
          "type": "uint256"
        }
      ],
      "name": "setTaxAmount",
      "outputs": [],
      "stateMutability": "nonpayable",
      "type": "function"
    },
    {
      "inputs": [
        {
          "internalType": "string",
          "name": "_inspectionId",
          "type": "string"
        },
        {
          "internalType": "string",
          "name": "_taxTxHash",
          "type": "string"
        }
      ],
      "name": "payTax",
      "outputs": [],
      "stateMutability": "payable",
      "type": "function"
    },
    {
      "inputs": [
        {
          "internalType": "string",
          "name": "_inspectionId",
          "type": "string"
        }
      ],
      "name": "getVehicle",
      "outputs": [
        {
          "components": [
            {
              "internalType": "string",
              "name": "inspectionId",
              "type": "string"
            },
            {
              "internalType": "string",
              "name": "make",
              "type": "string"
            },
            {
              "internalType": "string",
              "name": "model",
              "type": "string"
            },
            {
              "internalType": "uint256",
              "name": "year",
              "type": "uint256"
            },
            {
              "internalType": "string",
              "name": "engineNumber",
              "type": "string"
            },
            {
              "internalType": "string",
              "name": "chassisNumber",
              "type": "string"
            },
            {
              "internalType": "string",
              "name": "vehicleType",
              "type": "string"
            },
            {
              "internalType": "uint256",
              "name": "engineCapacity",
              "type": "uint256"
            },
            {
              "internalType": "string",
              "name": "registrationNumber",
              "type": "string"
            },
            {
              "internalType": "address",
              "name": "vehicleOwner",
              "type": "address"
            },
            {
              "internalType": "uint256",
              "name": "registrationFee",
              "type": "uint256"
            },
            {
              "internalType": "bool",
              "name": "registrationFeePaid",
              "type": "bool"
            },
            {
              "internalType": "uint256",
              "name": "registrationTimestamp",
              "type": "uint256"
            },
            {
              "internalType": "uint256",
              "name": "taxAmount",
              "type": "uint256"
            },
            {
              "internalType": "bool",
              "name": "taxPaid",
              "type": "bool"
            },
            {
              "internalType": "uint256",
              "name": "taxPaidTimestamp",
              "type": "uint256"
            },
            {
              "internalType": "string",
              "name": "registrationTxHash",
              "type": "string"
            },
            {
              "internalType": "string",
              "name": "taxTxHash",
              "type": "string"
            },
            {
              "internalType": "bool",
              "name": "isActive",
              "type": "bool"
            }
          ],
          "internalType": "struct VehicleRegistration.Vehicle",
          "name": "",
          "type": "tuple"
        }
      ],
      "stateMutability": "view",
      "type": "function"
    },
    {
      "inputs": [
        {
          "internalType": "string",
          "name": "_registrationNumber",
          "type": "string"
        }
      ],
      "name": "getVehicleByRegistration",
      "outputs": [
        {
          "components": [
            {
              "internalType": "string",
              "name": "inspectionId",
              "type": "string"
            },
            {
              "internalType": "string",
              "name": "make",
              "type": "string"
            },
            {
              "internalType": "string",
              "name": "model",
              "type": "string"
            },
            {
              "internalType": "uint256",
              "name": "year",
              "type": "uint256"
            },
            {
              "internalType": "string",
              "name": "engineNumber",
              "type": "string"
            },
            {
              "internalType": "string",
              "name": "chassisNumber",
              "type": "string"
            },
            {
              "internalType": "string",
              "name": "vehicleType",
              "type": "string"
            },
            {
              "internalType": "uint256",
              "name": "engineCapacity",
              "type": "uint256"
            },
            {
              "internalType": "string",
              "name": "registrationNumber",
              "type": "string"
            },
            {
              "internalType": "address",
              "name": "vehicleOwner",
              "type": "address"
            },
            {
              "internalType": "uint256",
              "name": "registrationFee",
              "type": "uint256"
            },
            {
              "internalType": "bool",
              "name": "registrationFeePaid",
              "type": "bool"
            },
            {
              "internalType": "uint256",
              "name": "registrationTimestamp",
              "type": "uint256"
            },
            {
              "internalType": "uint256",
              "name": "taxAmount",
              "type": "uint256"
            },
            {
              "internalType": "bool",
              "name": "taxPaid",
              "type": "bool"
            },
            {
              "internalType": "uint256",
              "name": "taxPaidTimestamp",
              "type": "uint256"
            },
            {
              "internalType": "string",
              "name": "registrationTxHash",
              "type": "string"
            },
            {
              "internalType": "string",
              "name": "taxTxHash",
              "type": "string"
            },
            {
              "internalType": "bool",
              "name": "isActive",
              "type": "bool"
            }
          ],
          "internalType": "struct VehicleRegistration.Vehicle",
          "name": "",
          "type": "tuple"
        }
      ],
      "stateMutability": "view",
      "type": "function"
    },
    {
      "inputs": [
        {
          "internalType": "address",
          "name": "_owner",
          "type": "address"
        }
      ],
      "name": "getVehiclesByOwner",
      "outputs": [
        {
          "internalType": "string[]",
          "name": "",
          "type": "string[]"
        }
      ],
      "stateMutability": "view",
      "type": "function"
    },
    {
      "inputs": [
        {
          "internalType": "string",
          "name": "_inspectionId",
          "type": "string"
        }
      ],
      "name": "isRegistrationFeePaid",
      "outputs": [
        {
          "internalType": "bool",
          "name": "",
          "type": "bool"
        }
      ],
      "stateMutability": "view",
      "type": "function"
    },
    {
      "inputs": [
        {
          "internalType": "string",
          "name": "_inspectionId",
          "type": "string"
        }
      ],
      "name": "isTaxPaid",
      "outputs": [
        {
          "internalType": "bool",
          "name": "",
          "type": "bool"
        }
      ],
      "stateMutability": "view",
      "type": "function"
    },
    {
      "inputs": [
        {
          "internalType": "string",
          "name": "_inspectionId",
          "type": "string"
        }
      ],
      "name": "getTaxAmount",
      "outputs": [
        {
          "internalType": "uint256",
          "name": "",
          "type": "uint256"
        }
      ],
      "stateMutability": "view",
      "type": "function"
    },
    {
      "inputs": [
        {
          "internalType": "string",
          "name": "_inspectionId",
          "type": "string"
        }
      ],
      "name": "getPaymentStatus",
      "outputs": [
        {
          "internalType": "bool",
          "name": "registrationPaid",
          "type": "bool"
        },
        {
          "internalType": "bool",
          "name": "taxPaid",
          "type": "bool"
        },
        {
          "internalType": "uint256",
          "name": "taxAmount",
          "type": "uint256"
        }
      ],
      "stateMutability": "view",
      "type": "function"
    },
    {
      "inputs": [
        {
          "internalType": "string",
          "name": "_inspectionId",
          "type": "string"
        },
        {
          "internalType": "string",
          "name": "_newRegistrationNumber",
          "type": "string"
        }
      ],
      "name": "updateRegistrationNumber",
      "outputs": [],
      "stateMutability": "nonpayable",
      "type": "function"
    },
    {
      "inputs": [
        {
          "internalType": "string",
          "name": "_inspectionId",
          "type": "string"
        },
        {
          "internalType": "address",
          "name": "_newOwner",
          "type": "address"
        }
      ],
      "name": "transferOwnership",
      "outputs": [],
      "stateMutability": "nonpayable",
      "type": "function"
    },
    {
      "inputs": [
        {
          "internalType": "string",
          "name": "_inspectionId",
          "type": "string"
        },
        {
          "internalType": "address",
          "name": "_newOwner",
          "type": "address"
        },
        {
          "internalType": "uint256",
          "name": "_transferFee",
          "type": "uint256"
        },
        {
          "internalType": "string",
          "name": "_transferTxHash",
          "type": "string"
        }
      ],
      "name": "transferOwnershipWithFee",
      "outputs": [],
      "stateMutability": "payable",
      "type": "function"
    },
    {
      "inputs": [],
      "name": "getTotalVehicles",
      "outputs": [
        {
          "internalType": "uint256",
          "name": "",
          "type": "uint256"
        }
      ],
      "stateMutability": "view",
      "type": "function"
    },
    {
      "inputs": [
        {
          "internalType": "address",
          "name": "_newTreasury",
          "type": "address"
        }
      ],
      "name": "updateTreasury",
      "outputs": [],
      "stateMutability": "nonpayable",
      "type": "function"
    },
    {
      "inputs": [],
      "name": "emergencyWithdraw",
      "outputs": [],
      "stateMutability": "nonpayable",
      "type": "function"
    },
    {
      "inputs": [
        {
          "internalType": "string",
          "name": "_inspectionId",
          "type": "string"
        }
      ],
      "name": "deactivateVehicle",
      "outputs": [],
      "stateMutability": "nonpayable",
      "type": "function"
    },
    {
      "inputs": [
        {
          "internalType": "string",
          "name": "_inspectionId",
          "type": "string"
        }
      ],
      "name": "reactivateVehicle",
      "outputs": [],
      "stateMutability": "nonpayable",
      "type": "function"
    },
    {
      "inputs": [
        {
          "internalType": "string",
          "name": "_inspectionId",
          "type": "string"
        }
      ],
      "name": "isVehicleActive",
      "outputs": [
        {
          "internalType": "bool",
          "name": "",
          "type": "bool"
        }
      ],
      "stateMutability": "view",
      "type": "function"
    }
  ],
  "bytecode": "0x60803461007857601f6128e538819003918201601f19168301916001600160401b0383118484101761007c5780849260209460405283398101031261007857516001600160a01b038116908190036100785760018060a01b031933815f5416175f55600154161760015560405161285490816100918239f35b5f80fd5b634e487b7160e01b5f52604160045260245ffdfe6101406040526004361015610012575f80fd5b5f3560e01c8063047fd579146119e657806329049f771461192857806361d027b31461190057806369056b27146118e35780636e3c46261461188257806378530b83146115a45780637b6e967f1461156a5780637f51bb1f14611520578063836f2c791461142d57806384080163146112a257806385b0bb1d14611275578063883f9bb01461120f5780638965e319146111d55780638da5cb5b146111ae578063976de5c514610ea7578063a6b467eb14610e56578063a8d7668014610e0a578063aea5fe2d14610bf8578063c0e793c214610a54578063c83365071461049d578063db2e21bc1461044a578063e769e3e1146103fc578063f1ddb0a514610397578063fc4c22fc1461034c5763fd2240d31461012d575f80fd5b346103485760208060031936011261034857600435906001600160401b038211610348576101ab816101656060943690600401611c04565b6040519061019a61019382519385818186019661018381838a611c59565b8101600281520301902054611ecc565b15156121cd565b604051938492839251928391611c59565b81016002815203019020906040516101c281611bc7565b6040516101da816101d38187611f04565b0382611be3565b81526040516101f0816101d38160018801611f04565b82820152604051610208816101d38160028801611f04565b604082015260038301548482015260405161022a816101d38160048801611f04565b6080820152604051610243816101d38160058801611f04565b60a082015260405161025c816101d38160068801611f04565b60c0820152600783015460e082015260405161027f816101d38160088801611f04565b61010082015260018060a01b03600984015416610120820152600a83015461014082015260ff600b8401541661016082019015158152600c840154610180830152600d840154916101a0810192835261024060ff601281600e89015416976101c085019815158952600f8101546101e0860152604051610306816101d38160108601611f04565b610200860152604051610320816101d38160118601611f04565b6102208601520154161515910152511515925115159051916040519384528301526040820152f35b5f80fd5b34610348576020366003190112610348576004356001600160401b03811161034857610387610382610393923690600401611c04565b612393565b60405191829182611c9f565b0390f35b34610348576020366003190112610348576004356001600160401b038111610348576103e260206103ce6012933690600401611c04565b61016560018060a01b035f5416331461216e565b60029082019081520301902001805460ff19166001179055005b34610348576020366003190112610348576004356001600160401b0381116103485761043360206103ce6012933690600401611c04565b60029082019081520301902001805460ff19169055005b34610348575f366003190112610348575f80548190819081906001600160a01b031661047733821461216e565b4790828215610494575bf11561048957005b6040513d5f823e3d90fd5b506108fc610481565b610160366003190112610348576004356001600160401b038111610348576104c9903690600401611c04565b6024356001600160401b038111610348576104e8903690600401611c04565b906044356001600160401b03811161034857610508903690600401611c04565b916084356001600160401b03811161034857610528903690600401611c04565b9260a4356001600160401b03811161034857610548903690600401611c04565b60c4356001600160401b03811161034857610567903690600401611c04565b90610104356001600160401b03811161034857610588903690600401611c04565b95610144356001600160401b038111610348576105a9903690600401611c04565b93865115610a0f576105cb604051602081816101838c83815193849201611c59565b6109ca576101243534106109855761060960ff6105f760208b8160405193828580945193849201611c59565b81016004815203019020541615611fad565b6040519561061687611bc7565b878752602087015260408601526064356060860152608085015260a084015260c083015260e43560e08301528361010083015233610120830152610124356101408301526001610160830152426101808301525f6101a08301525f6101c08301525f6101e08301526102008201526040518060208101106001600160401b0360208301111761097157602081016040525f8152610220820152600161024082015261083160405160208185516106cf8183858a01611c59565b810160028152030190206106e4835182612053565b6106f5602084015160018301612053565b610706604084015160028301612053565b60608301516003820155610721608084015160048301612053565b61073260a084015160058301612053565b61074360c084015160068301612053565b60e0830151600782015561075f61010084015160088301612053565b601261024060018060a01b0394856101208201511660098501906001600160601b0360a01b825416179055610140810151600a8501556107b56101608201511515600b86019060ff801983541691151516179055565b610180810151600c8501556101a0810151600d8501556107eb6101c08201511515600e86019060ff801983541691151516179055565b6101e0810151600f85015561080861020082015160108601612053565b61081a61022082015160118601612053565b0151151591019060ff801983541691151516179055565b335f5260036020526108468260405f20612114565b600554600160401b811015610971578060016108659201600555611e6e565b61095e575f808093610878868395612053565b6040516020818161088f8b83815193849201611c59565b81016004815203019020600160ff198254161790556001541681906101243515610954575b6101243591f11561048957610124353411610920575b6108d39061214e565b7e214c736cb0078b5960b51c7f0f38f3607aca92e554482159fa0b3d4588d64e61090860405193606085526060850190611c7a565b926101243560208201524260408201528033940390a3005b5f8080806109316101243534612141565b81811561094b575b3390f16108ca576040513d5f823e3d90fd5b506108fc610939565b6108fc91506108b4565b634e487b7160e01b5f525f60045260245ffd5b634e487b7160e01b5f52604160045260245ffd5b60405162461bcd60e51b815260206004820152601d60248201527f496e73756666696369656e7420726567697374726174696f6e206665650000006044820152606490fd5b60405162461bcd60e51b815260206004820152601a60248201527f56656869636c6520616c726561647920726567697374657265640000000000006044820152606490fd5b60405162461bcd60e51b815260206004820152601d60248201527f496e7370656374696f6e2049442063616e6e6f7420626520656d7074790000006044820152606490fd5b34610348576040366003190112610348576004356001600160401b03811161034857610a84903690600401611c04565b610a8c611dfc565b90610193604051825193610aaf602093838580958189019961018381838d611c59565b60405190610ae68551610ac381858a611c59565b83016002815260098460018060a01b03968796879403019020015416331461220d565b1690610af3821515612672565b600960405184818751610b0781838c611c59565b8101600281520301902001541690600960405184818751610b2981838c611c59565b8101600281520301902001816001600160601b0360a01b8254161790555f5260038252610b598360405f20612114565b5f526003815260405f20915f5b835480821015610be2576101d3610b8d610b808488611eb7565b5060405192838092611f04565b8481519101208351872014610bab5750610ba6906122f6565b610b66565b92509350505f198101908111610be457610be292610bd7610bcf610bdd9385611eb7565b509184611eb7565b90612796565b6127a5565b005b634e487b7160e01b5f52601160045260245ffd5b610c0136611e28565b604051908251610c21610193602094858181890195610183818389611c59565b610c6c8360405192610c5b8751610c39818785611c59565b8501600281526009868560018060a01b0398899403019020015416331461220d565b604051809381928951928391611c59565b8101600281520301902091600d83019283548015610dd057600e82019081549060ff8216610d98573410610d535760ff1916600117905542600f8201555f9283928392839291610cbe91601101612053565b60015416855490828215610d4a575bf115610489578054803411610d1d575b50610ce990549261214e565b9060405192835242908301527f45363bdd96a69e2a6a6d0f76b90f7c8746594460ccbc71117c219cdf7f11fce460403393a3005b5f8080610d2b819434612141565b818115610d41575b3390f1156104895783610cdd565b506108fc610d33565b506108fc610ccd565b60405162461bcd60e51b815260048101889052601760248201527f496e73756666696369656e742074617820616d6f756e740000000000000000006044820152606490fd5b60405162461bcd60e51b815260048101899052601060248201526f15185e08185b1c9958591e481c185a5960821b6044820152606490fd5b60405162461bcd60e51b815260048101879052601260248201527115185e08185b5bdd5b9d081b9bdd081cd95d60721b6044820152606490fd5b34610348576020366003190112610348576004356001600160401b03811161034857600d610e42602061016581943690600401611c04565b810160028152030190200154604051908152f35b34610348576020366003190112610348576004356001600160401b0381116103485760ff6012610e90602061016581953690600401611c04565b810160028152030190200154166040519015158152f35b34610348576020366003190112610348576004356001600160401b03811161034857610ed7903690600401611c04565b6040518181809351602081930191610eee92611c59565b8101600281520360200190206040519081610f098183611f04565b03610f149083611be3565b604051610100819052610f2a8160018401611f04565b036101005190610f3991611be3565b6040516080819052610f4e8160028401611f04565b0360805190610f5c91611be3565b6003810154604051929083610f748160048601611f04565b03610f7f9085611be3565b6040519384610f918160058701611f04565b03610f9c9086611be3565b6040519485610fae8160068801611f04565b03610fb99087611be3565b60078501549560405180806008890190610fd291611f04565b03610fdd9082611be3565b600160a01b6001900360098801541697600a88015492600b89015460ff1694600c8a015496600d8b015498600e8c015460ff169a600f8d01549c6040518060a05280601083019061102d91611f04565b0360a0519061103b91611be3565b60405160e08190526110508160118401611f04565b0360e0519061105e91611be3565b6012015460ff1660c0526040518061012052610260809152610120510161108491611c7a565b610120518082039060200152610100519061109e91611c7a565b610120518082039060400152608051906110b791611c7a565b9061012051606001526101205180820390608001526110d591611c7a565b610120518082039060a001526110ea91611c7a565b610120518082039060c001526110ff91611c7a565b906101205160e001526101205180820390610100015261111e91611c7a565b966101205161012001526101205161014001521515610120516101600152610120516101800152610120516101a001521515610120516101c00152610120516101e001526101205180820390610200015260a0519061117c91611c7a565b6101205180820390610220015260e0519061119691611c7a565b60c05115156101205161024001526101205180910390f35b34610348575f366003190112610348575f546040516001600160a01b039091168152602090f35b34610348576020366003190112610348576004356001600160401b0381116103485760ff600b610e90602061016581953690600401611c04565b3461034857604036600319011261034857611228611e12565b6001600160a01b03165f9081526003602052604090208054602435908110156103485761125b6112619161039393611eb7565b90611f95565b604051918291602083526020830190611c7a565b34610348576020366003190112610348576004356005548110156103485761126161125b61039392611e6e565b34610348576112b036611e28565b5f546112c6906001600160a01b0316331461216e565b6040519180516020938481818501936112e0818387611c59565b81016002815203019020546112f490611ecc565b15156112ff906121cd565b83806040519285519382818189019661131981838a611c59565b810160048152030190205460ff161561133190611fad565b8560405183818851611344818388611c59565b8101600281520301902060080191604051611360818095611f04565b0361136b9084611be3565b836040518080938a51809261137f92611c59565b810160028152030190206008019061139691612053565b60405192838281935192839101916113ad92611c59565b810160048152030190209060ff199182815416905584604051808093875180926113d692611c59565b810160048152030190209081541660011790556113f29061214e565b91604051918183928352820161140791611c7a565b037fd3821bf154a7f8ca1a264a9f4716bb8db1b59808597e53aa6ec94c6be636502791a2005b3461034857602080600319360112610348576001600160a01b0361144f611e12565b165f526003815260405f208054906001600160401b03821161097157829060405192611480838260051b0185611be3565b80845282840180925f52835f205f915b8383106114f65750505050604051918083019381845251809452604083019360408160051b85010192915f955b8287106114ca5785850386f35b9091929382806114e6600193603f198a82030186528851611c7a565b96019201960195929190926114bd565b600186819260409998995161150f816101d38189611f04565b815201920192019190959495611490565b3461034857602036600319011261034857611539611e12565b5f546001600160a01b039190611552908316331461216e565b166001600160601b0360a01b60015416176001555f80f35b34610348576020366003190112610348576004356001600160401b0381116103485760ff600e610e90602061016581953690600401611c04565b6080366003190112610348576001600160401b03600435818111610348576115d0903690600401611c04565b906115d9611dfc565b60443592606435928311610348576115f8610193933690600401611c04565b9360405191805193611619602096858880978187019961018381838d611c59565b60405190611650835161162d81858a611c59565b83016002815260098460018060a01b039a8b96879403019020015416331461220d565b169561165d871515612672565b82341061183d5751156117ed578460096040518581855161167f81838c611c59565b81016002815203019020015416936009604051858185516116a1818388611c59565b8101600281520301902001876001600160601b0360a01b825416179055865f52600384526116d28260405f20612114565b845f526003845260405f20955f5b8754808210156117d8576101d36116fa610b80848c611eb7565b87815191012085518520146117185750611713906122f6565b6116e0565b9394959697909192505f198401938411610be457855f949361174983610bdd889796610bd7610bcf8a998a99611eb7565b600154168282156117cf575bf1156104895781341161179e575b7fa2aa300253a59b0d14a39bbc97f6f2b03233d01b5957681c184fb6df9c8d908c9161179060409261214e565b9382519182524290820152a4005b5f8080806117ac8634612141565b8181156117c6575b3390f1611763576040513d5f823e3d90fd5b506108fc6117b4565b506108fc611755565b505083949596505f8093948193508192611749565b60405162461bcd60e51b815260048101849052602260248201527f5472616e73666572207472616e73616374696f6e206861736820726571756972604482015261195960f21b6064820152608490fd5b60405162461bcd60e51b815260048101859052601960248201527f496e73756666696369656e74207472616e7366657220666565000000000000006044820152606490fd5b34610348576020366003190112610348576004356001600160401b0381116103485760ff6118cd60206118ba81943690600401611c04565b8160405193828580945193849201611c59565b8101600481520301902054166040519015158152f35b34610348575f366003190112610348576020600554604051908152f35b34610348575f366003190112610348576001546040516001600160a01b039091168152602090f35b34610348576040366003190112610348576004356001600160401b03811161034857611958903690600401611c04565b7f69e80bec500e8346d9d03785cd60d1becdcb124e8db1e46a414d58cf4075a85860206119dc6024359361199660018060a01b035f5416331461216e565b84600d6119cb856040516119ba6101938751928481818b0195610183818389611c59565b604051809381928851928391611c59565b81016002815203019020015561214e565b92604051908152a2005b34610348576020366003190112610348576004356001600160401b03811161034857611a456020611a1e610393933690600401611c04565b611a2661226b565b506040519061019a61019382519385818186019661018381838a611c59565b8101600281520301902060ff601260405192611a6084611bc7565b604051611a71816101d38185611f04565b8452604051611a87816101d38160018601611f04565b6020850152604051611aa0816101d38160028601611f04565b604085015260038101546060850152604051611ac3816101d38160048601611f04565b6080850152604051611adc816101d38160058601611f04565b60a0850152604051611af5816101d38160068601611f04565b60c0850152600781015460e0850152604051611b18816101d38160088601611f04565b61010085015260098101546001600160a01b0316610120850152600a810154610140850152600b81015483161515610160850152600c810154610180850152600d8101546101a0850152600e810154831615156101c0850152600f8101546101e0850152604051611b90816101d38160108601611f04565b610200850152604051611baa816101d38160118601611f04565b610220850152015416151561024082015260405191829182611c9f565b61026081019081106001600160401b0382111761097157604052565b90601f801991011681019081106001600160401b0382111761097157604052565b81601f82011215610348578035906001600160401b0382116109715760405192611c38601f8401601f191660200185611be3565b8284526020838301011161034857815f926020809301838601378301015290565b5f5b838110611c6a5750505f910152565b8181015183820152602001611c5b565b90602091611c9381518092818552858086019101611c59565b601f01601f1916010190565b602081528151611cbd61026091826020850152610280840190611c7a565b611df1611d42611d2e611d1a611cfc611ce860208a015196601f1997888b83030160408c0152611c7a565b60408a0151878a83030160608b0152611c7a565b606089015160808901526080890151868983030160a08a0152611c7a565b60a0880151858883030160c0890152611c7a565b60c0870151848783030160e0880152611c7a565b611ddc611d6b60e0880151610100908189015288015192610120938689830301858a0152611c7a565b9160018060a01b03908801511661014090818801528701516101609081880152870151151561018090818801528701516101a090818801528701516101c0908188015287015115156101e0908188015287015161020090818801528701519161022092858883030184890152611c7a565b90860151610240938683030184870152611c7a565b930151151591015290565b602435906001600160a01b038216820361034857565b600435906001600160a01b038216820361034857565b906040600319830112610348576001600160401b036004358181116103485783611e5491600401611c04565b9260243591821161034857611e6b91600401611c04565b90565b600554811015611ea35760055f527f036b6384b5eca791c62761152d0c79bb0604c104a5fb6f4eb0703f3154bb3db001905f90565b634e487b7160e01b5f52603260045260245ffd5b8054821015611ea3575f5260205f2001905f90565b90600182811c92168015611efa575b6020831014611ee657565b634e487b7160e01b5f52602260045260245ffd5b91607f1691611edb565b905f9291805491611f1483611ecc565b9182825260019384811690815f14611f725750600114611f35575b50505050565b90919394505f52602092835f2092845f945b838610611f5e57505050500101905f808080611f2f565b805485870183015294019385908201611f47565b9294505050602093945060ff191683830152151560051b0101905f808080611f2f565b9061095e57611e6b6101d39160405192838092611f04565b15611fb457565b606460405162461bcd60e51b815260206004820152602060248201527f526567697374726174696f6e206e756d62657220616c726561647920757365646044820152fd5b818110612003575050565b5f8155600101611ff8565b9190601f811161201d57505050565b612047925f5260205f20906020601f840160051c83019310612049575b601f0160051c0190611ff8565b565b909150819061203a565b91909182516001600160401b0381116109715761207a816120748454611ecc565b8461200e565b602080601f83116001146120b45750819293945f926120a9575b50508160011b915f199060031b1c1916179055565b015190505f80612094565b90601f19831695845f52825f20925f905b8882106120fc575050836001959697106120e4575b505050811b019055565b01515f1960f88460031b161c191690555f80806120da565b806001859682949686015181550195019301906120c5565b8054600160401b8110156109715761213191600182018155611eb7565b91909161095e5761204791612053565b91908203918211610be457565b61216690602060405192828480945193849201611c59565b810103902090565b1561217557565b60405162461bcd60e51b815260206004820152602a60248201527f4f6e6c7920636f6e7472616374206f776e65722063616e2063616c6c207468696044820152693990333ab731ba34b7b760b11b6064820152608490fd5b156121d457565b60405162461bcd60e51b815260206004820152601160248201527015995a1a58db19481b9bdd08199bdd5b99607a1b6044820152606490fd5b1561221457565b60405162461bcd60e51b815260206004820152602960248201527f4f6e6c792076656869636c65206f776e65722063616e2063616c6c207468697360448201526810333ab731ba34b7b760b91b6064820152608490fd5b6040519061227882611bc7565b816102406060918281528260208201528260408201525f9283818301528060808301528060a08301528060c08301528360e08301528061010083015283610120830152836101408301528361016083015283610180830152836101a0830152836101c0830152836101e0830152806102008301526102208201520152565b5f198114610be45760010190565b60405190815f825461231581611ecc565b93600191808316908115612377575060011461233d575b505060209250600281520301902090565b9091505f52602090815f20905f915b858310612363575050505060209181015f8061232c565b80548784015286945091830191810161234c565b92505050602093915060ff191682528015150281015f8061232c565b61239b61226b565b506040805191805192602090818301946123b6818388611c59565b810194600495868152828460ff9485930301902054161561262f575f936005918254955b86811061242057875162461bcd60e51b81526020818b018181526011918101919091527015995a1a58db19481b9bdd08199bdd5b99607a1b604082015281906060010390fd5b61243d6101d361244961243284611e6e565b506008938491612304565b018b5192838092611f04565b87815191012084518420146124675750612462906122f6565b6123da565b94979598965090506124799150611e6e565b5061248390612304565b9383519661249088611bc7565b84518061249d8189611f04565b036124a89082611be3565b8852845190816124bb8160018a01611f04565b036124c69083611be3565b8801528351806124d98160028901611f04565b036124e49082611be3565b8488015260038501546060880152835180809287019061250391611f04565b0361250e9082611be3565b6080870152825180809286019061252491611f04565b0361252f9082611be3565b60a08601528151806125448160068701611f04565b0361254f9082611be3565b60c0860152600783015460e0860152815180809285019061256f91611f04565b0361257a9082611be3565b61010085015260098201546001600160a01b0316610120850152600a820154610140850152600b82015483161515610160850152600c820154610180850152600d8201546101a0850152600e820154831615156101c0850152600f8201546101e08501528051806125ee8160108601611f04565b036125f99082611be3565b610200850152518061260e8160118501611f04565b036126199082611be3565b6102208401526012015416151561024082015290565b845162461bcd60e51b8152808701849052601d60248201527f526567697374726174696f6e206e756d626572206e6f7420666f756e640000006044820152606490fd5b1561267957565b60405162461bcd60e51b815260206004820152601960248201527f496e76616c6964206e6577206f776e65722061646472657373000000000000006044820152606490fd5b90808214612792576126d08154611ecc565b906001600160401b0382116109715781906126f5826126ef8654611ecc565b8661200e565b5f90601f8311600114612728575f9261271d5750508160011b915f199060031b1c1916179055565b015490505f80612094565b81526020808220858352818320935090601f1985169083905b82821061277957505090846001959493921061276157505050811b019055565b01545f1960f88460031b161c191690555f80806120da565b8495819295850154815560018091019601940190612741565b5050565b919061095e57612047916126be565b8054801561280a575f1901906127bb8282611eb7565b61095e576127c98154611ecc565b90816127d457505055565b81601f5f93116001146127e657505555565b908083918252612805601f60208420940160051c840160018501611ff8565b555555565b634e487b7160e01b5f52603160045260245ffdfea264697066735822122013c36efab479f714d798ada517d93dc2eafd5a7f9b296f5dd7ad255148b1a0a864736f6c63430008140033",
  "immutableReferences": {},
  "source": "// SPDX-License-Identifier: MIT\r\npragma solidity ^0.8.20;\r\n\r\ncontract VehicleRegistration {\r\n    // Owner of the contract (government authority)\r\n    address public owner;\r\n    \r\n    // Treasury address where fees are collected\r\n    address public treasury;\r\n    \r\n    // Structure to store vehicle information\r\n    struct Vehicle {\r\n        string inspectionId;\r\n        string make;\r\n        string model;\r\n        uint256 year;\r\n        string engineNumber;\r\n        string chassisNumber;\r\n        string vehicleType;\r\n        uint256 engineCapacity;\r\n        string registrationNumber;\r\n        address vehicleOwner;\r\n        uint256 registrationFee;\r\n        bool registrationFeePaid;\r\n        uint256 registrationTimestamp;\r\n        uint256 taxAmount;\r\n        bool taxPaid;\r\n        uint256 taxPaidTimestamp;\r\n        string registrationTxHash;\r\n        string taxTxHash;\r\n        bool isActive;\r\n    }\r\n    \r\n    // Mappings\r\n    mapping(string => Vehicle) public vehicles; // inspectionId => Vehicle\r\n    mapping(address => string[]) public ownerVehicles; // owner => inspectionIds[]\r\n    mapping(string => bool) public registrationNumbers; // track used registration numbers\r\n    \r\n    // Arrays to keep track of all vehicles\r\n    string[] public allInspectionIds;\r\n    \r\n    // Events\r\n    event VehicleRegistered(\r\n        string indexed inspectionId,\r\n        address indexed owner,\r\n        string registrationNumber,\r\n        uint256 registrationFee,\r\n        uint256 timestamp\r\n    );\r\n    \r\n    event TaxPaid(\r\n        string indexed inspectionId,\r\n        address indexed owner,\r\n        uint256 taxAmount,\r\n        uint256 timestamp\r\n    );\r\n    \r\n    event RegistrationNumberUpdated(\r\n        string indexed inspectionId,\r\n        string newRegistrationNumber\r\n    );\r\n    \r\n    event TaxAmountSet(\r\n        string indexed inspectionId,\r\n        uint256 taxAmount\r\n    );\r\n    \r\n    event OwnershipTransferred(\r\n        string indexed inspectionId,\r\n        address indexed oldOwner,\r\n        address indexed newOwner,\r\n        uint256 transferFee,\r\n        uint256 timestamp\r\n    );\r\n    \r\n    // Modifiers\r\n    modifier onlyOwner() {\r\n        require(msg.sender == owner, \"Only contract owner can call this function\");\r\n        _;\r\n    }\r\n    \r\n    modifier vehicleExists(string memory _inspectionId) {\r\n        require(bytes(vehicles[_inspectionId].inspectionId).length > 0, \"Vehicle not found\");\r\n        _;\r\n    }\r\n    \r\n    modifier onlyVehicleOwner(string memory _inspectionId) {\r\n        require(vehicles[_inspectionId].vehicleOwner == msg.sender, \"Only vehicle owner can call this function\");\r\n        _;\r\n    }\r\n    \r\n    // Constructor\r\n    constructor(address _treasury) {\r\n        owner = msg.sender;\r\n        treasury = _treasury;\r\n    }\r\n    \r\n    // Register a new vehicle with registration fee payment\r\n    function registerVehicle(\r\n        string memory _inspectionId,\r\n        string memory _make,\r\n        string memory _model,\r\n        uint256 _year,\r\n        string memory _engineNumber,\r\n        string memory _chassisNumber,\r\n        string memory _vehicleType,\r\n        uint256 _engineCapacity,\r\n        string memory _registrationNumber,\r\n        uint256 _registrationFee,\r\n        string memory _registrationTxHash\r\n    ) external payable {\r\n        require(bytes(_inspectionId).length > 0, \"Inspection ID cannot be empty\");\r\n        require(bytes(vehicles[_inspectionId].inspectionId).length == 0, \"Vehicle already registered\");\r\n        require(msg.value >= _registrationFee, \"Insufficient registration fee\");\r\n        require(!registrationNumbers[_registrationNumber], \"Registration number already used\");\r\n        \r\n        // Create new vehicle record\r\n        Vehicle memory newVehicle = Vehicle({\r\n            inspectionId: _inspectionId,\r\n            make: _make,\r\n            model: _model,\r\n            year: _year,\r\n            engineNumber: _engineNumber,\r\n            chassisNumber: _chassisNumber,\r\n            vehicleType: _vehicleType,\r\n            engineCapacity: _engineCapacity,\r\n            registrationNumber: _registrationNumber,\r\n            vehicleOwner: msg.sender,\r\n            registrationFee: _registrationFee,\r\n            registrationFeePaid: true,\r\n            registrationTimestamp: block.timestamp,\r\n            taxAmount: 0, // Tax not set initially\r\n            taxPaid: false,\r\n            taxPaidTimestamp: 0,\r\n            registrationTxHash: _registrationTxHash,\r\n            taxTxHash: \"\",\r\n            isActive: true\r\n        });\r\n        \r\n        // Store vehicle data\r\n        vehicles[_inspectionId] = newVehicle;\r\n        ownerVehicles[msg.sender].push(_inspectionId);\r\n        allInspectionIds.push(_inspectionId);\r\n        registrationNumbers[_registrationNumber] = true;\r\n        \r\n        // Transfer registration fee to treasury\r\n        payable(treasury).transfer(_registrationFee);\r\n        \r\n        // Refund excess payment if any\r\n        if (msg.value > _registrationFee) {\r\n            payable(msg.sender).transfer(msg.value - _registrationFee);\r\n        }\r\n        \r\n        emit VehicleRegistered(_inspectionId, msg.sender, _registrationNumber, _registrationFee, block.timestamp);\r\n    }\r\n    \r\n    // Set tax amount for a vehicle (only owner can set)\r\n    function setTaxAmount(string memory _inspectionId, uint256 _taxAmount) \r\n        external \r\n        onlyOwner \r\n        vehicleExists(_inspectionId) \r\n    {\r\n        vehicles[_inspectionId].taxAmount = _taxAmount;\r\n        emit TaxAmountSet(_inspectionId, _taxAmount);\r\n    }\r\n    \r\n    // Pay tax for a vehicle\r\n    function payTax(string memory _inspectionId, string memory _taxTxHash) \r\n        external \r\n        payable \r\n        vehicleExists(_inspectionId) \r\n        onlyVehicleOwner(_inspectionId) \r\n    {\r\n        Vehicle storage vehicle = vehicles[_inspectionId];\r\n        require(vehicle.taxAmount > 0, \"Tax amount not set\");\r\n        require(!vehicle.taxPaid, \"Tax already paid\");\r\n        require(msg.value >= vehicle.taxAmount, \"Insufficient tax amount\");\r\n        \r\n        // Update tax payment status\r\n        vehicle.taxPaid = true;\r\n        vehicle.taxPaidTimestamp = block.timestamp;\r\n        vehicle.taxTxHash = _taxTxHash;\r\n        \r\n        // Transfer tax to treasury\r\n        payable(treasury).transfer(vehicle.taxAmount);\r\n        \r\n        // Refund excess payment if any\r\n        if (msg.value > vehicle.taxAmount) {\r\n            payable(msg.sender).transfer(msg.value - vehicle.taxAmount);\r\n        }\r\n        \r\n        emit TaxPaid(_inspectionId, msg.sender, vehicle.taxAmount, block.timestamp);\r\n    }\r\n    \r\n    // Get complete vehicle information\r\n    function getVehicle(string memory _inspectionId) \r\n        external \r\n        view \r\n        vehicleExists(_inspectionId) \r\n        returns (Vehicle memory) \r\n    {\r\n        return vehicles[_inspectionId];\r\n    }\r\n    \r\n    // Get vehicle by registration number\r\n    function getVehicleByRegistration(string memory _registrationNumber) \r\n        external \r\n        view \r\n        returns (Vehicle memory) \r\n    {\r\n        require(registrationNumbers[_registrationNumber], \"Registration number not found\");\r\n        \r\n        // Search through all vehicles to find by registration number\r\n        for (uint i = 0; i < allInspectionIds.length; i++) {\r\n            if (keccak256(bytes(vehicles[allInspectionIds[i]].registrationNumber)) == keccak256(bytes(_registrationNumber))) {\r\n                return vehicles[allInspectionIds[i]];\r\n            }\r\n        }\r\n        revert(\"Vehicle not found\");\r\n    }\r\n    \r\n    // Get all vehicles owned by an address\r\n    function getVehiclesByOwner(address _owner) \r\n        external \r\n        view \r\n        returns (string[] memory) \r\n    {\r\n        return ownerVehicles[_owner];\r\n    }\r\n    \r\n    // Check if registration fee is paid\r\n    function isRegistrationFeePaid(string memory _inspectionId) \r\n        external \r\n        view \r\n        vehicleExists(_inspectionId) \r\n        returns (bool) \r\n    {\r\n        return vehicles[_inspectionId].registrationFeePaid;\r\n    }\r\n    \r\n    // Check if tax is paid\r\n    function isTaxPaid(string memory _inspectionId) \r\n        external \r\n        view \r\n        vehicleExists(_inspectionId) \r\n        returns (bool) \r\n    {\r\n        return vehicles[_inspectionId].taxPaid;\r\n    }\r\n    \r\n    // Get tax amount for a vehicle\r\n    function getTaxAmount(string memory _inspectionId) \r\n        external \r\n        view \r\n        vehicleExists(_inspectionId) \r\n        returns (uint256) \r\n    {\r\n        return vehicles[_inspectionId].taxAmount;\r\n    }\r\n    \r\n    // Get payment status for a vehicle\r\n    function getPaymentStatus(string memory _inspectionId) \r\n        external \r\n        view \r\n        vehicleExists(_inspectionId) \r\n        returns (bool registrationPaid, bool taxPaid, uint256 taxAmount) \r\n    {\r\n        Vehicle memory vehicle = vehicles[_inspectionId];\r\n        return (vehicle.registrationFeePaid, vehicle.taxPaid, vehicle.taxAmount);\r\n    }\r\n    \r\n    // Update registration number (only owner)\r\n    function updateRegistrationNumber(string memory _inspectionId, string memory _newRegistrationNumber) \r\n        external \r\n        onlyOwner \r\n        vehicleExists(_inspectionId) \r\n    {\r\n        require(!registrationNumbers[_newRegistrationNumber], \"Registration number already used\");\r\n        \r\n        string memory oldRegistrationNumber = vehicles[_inspectionId].registrationNumber;\r\n        \r\n        // Update registration number\r\n        vehicles[_inspectionId].registrationNumber = _newRegistrationNumber;\r\n        \r\n        // Update mappings\r\n        registrationNumbers[oldRegistrationNumber] = false;\r\n        registrationNumbers[_newRegistrationNumber] = true;\r\n        \r\n        emit RegistrationNumberUpdated(_inspectionId, _newRegistrationNumber);\r\n    }\r\n    \r\n    // Transfer vehicle ownership\r\n    function transferOwnership(string memory _inspectionId, address _newOwner) \r\n        external \r\n        vehicleExists(_inspectionId) \r\n        onlyVehicleOwner(_inspectionId) \r\n    {\r\n        require(_newOwner != address(0), \"Invalid new owner address\");\r\n        \r\n        address oldOwner = vehicles[_inspectionId].vehicleOwner;\r\n        vehicles[_inspectionId].vehicleOwner = _newOwner;\r\n        \r\n        // Update owner vehicles mapping\r\n        ownerVehicles[_newOwner].push(_inspectionId);\r\n        \r\n        // Remove from old owner's list\r\n        string[] storage oldOwnerVehicles = ownerVehicles[oldOwner];\r\n        for (uint i = 0; i < oldOwnerVehicles.length; i++) {\r\n            if (keccak256(bytes(oldOwnerVehicles[i])) == keccak256(bytes(_inspectionId))) {\r\n                oldOwnerVehicles[i] = oldOwnerVehicles[oldOwnerVehicles.length - 1];\r\n                oldOwnerVehicles.pop();\r\n                break;\r\n            }\r\n        }\r\n    }\r\n    \r\n    // Transfer vehicle ownership with fee\r\n    function transferOwnershipWithFee(\r\n        string memory _inspectionId, \r\n        address _newOwner, \r\n        uint256 _transferFee,\r\n        string memory _transferTxHash\r\n    ) \r\n        external \r\n        payable \r\n        vehicleExists(_inspectionId) \r\n        onlyVehicleOwner(_inspectionId) \r\n    {\r\n        require(_newOwner != address(0), \"Invalid new owner address\");\r\n        require(msg.value >= _transferFee, \"Insufficient transfer fee\");\r\n        require(bytes(_transferTxHash).length > 0, \"Transfer transaction hash required\");\r\n        \r\n        address oldOwner = vehicles[_inspectionId].vehicleOwner;\r\n        vehicles[_inspectionId].vehicleOwner = _newOwner;\r\n        \r\n        // Update owner vehicles mapping\r\n        ownerVehicles[_newOwner].push(_inspectionId);\r\n        \r\n        // Remove from old owner's list\r\n        string[] storage oldOwnerVehicles = ownerVehicles[oldOwner];\r\n        for (uint i = 0; i < oldOwnerVehicles.length; i++) {\r\n            if (keccak256(bytes(oldOwnerVehicles[i])) == keccak256(bytes(_inspectionId))) {\r\n                oldOwnerVehicles[i] = oldOwnerVehicles[oldOwnerVehicles.length - 1];\r\n                oldOwnerVehicles.pop();\r\n                break;\r\n            }\r\n        }\r\n        \r\n        // Transfer fee to treasury\r\n        payable(treasury).transfer(_transferFee);\r\n        \r\n        // Refund excess payment if any\r\n        if (msg.value > _transferFee) {\r\n            payable(msg.sender).transfer(msg.value - _transferFee);\r\n        }\r\n        \r\n        emit OwnershipTransferred(_inspectionId, oldOwner, _newOwner, _transferFee, block.timestamp);\r\n    }\r\n    \r\n    // Get total number of registered vehicles\r\n    function getTotalVehicles() external view returns (uint256) {\r\n        return allInspectionIds.length;\r\n    }\r\n    \r\n    // Emergency functions (only owner)\r\n    function updateTreasury(address _newTreasury) external onlyOwner {\r\n        treasury = _newTreasury;\r\n    }\r\n    \r\n    function emergencyWithdraw() external onlyOwner {\r\n        payable(owner).transfer(address(this).balance);\r\n    }\r\n    \r\n    // Deactivate a vehicle (in case of stolen/scrapped)\r\n    function deactivateVehicle(string memory _inspectionId) \r\n        external \r\n        onlyOwner \r\n        vehicleExists(_inspectionId) \r\n    {\r\n        vehicles[_inspectionId].isActive = false;\r\n    }\r\n    \r\n    // Reactivate a vehicle\r\n    function reactivateVehicle(string memory _inspectionId) \r\n        external \r\n        onlyOwner \r\n        vehicleExists(_inspectionId) \r\n    {\r\n        vehicles[_inspectionId].isActive = true;\r\n    }\r\n    \r\n    // Check if vehicle is active\r\n    function isVehicleActive(string memory _inspectionId) \r\n        external \r\n        view \r\n        vehicleExists(_inspectionId) \r\n        returns (bool) \r\n    {\r\n        return vehicles[_inspectionId].isActive;\r\n    }\r\n  }",
  "sourcePath": "F:\\TaxTron-FYP\\taxtron\\backend\\contracts\\VehicleRegistry.sol",
  "compiler": {
    "name": "solc",
    "version": "0.8.20+commit.a1b79de6.Emscripten.clang"
  },
  "schemaVersion": "3.4.16",
  "updatedAt": "2025-09-27T17:33:58.505Z",
  "devdoc": {
    "kind": "dev",
    "methods": {},
    "version": 1
  },
  "userdoc": {
    "kind": "user",
    "methods": {},
    "version": 1
  }
}