{
  "contractName": "VehicleRegistry",
  "abi": [
    {
      "anonymous": false,
      "inputs": [
        {
          "indexed": false,
          "internalType": "string",
          "name": "registrationNumber",
          "type": "string"
        },
        {
          "indexed": false,
          "internalType": "address",
          "name": "ownerWallet",
          "type": "address"
        }
      ],
      "name": "VehicleRegistered",
      "type": "event"
    },
    {
      "inputs": [
        {
          "internalType": "string",
          "name": "",
          "type": "string"
        }
      ],
      "name": "vehicles",
      "outputs": [
        {
          "internalType": "string",
          "name": "ownerName",
          "type": "string"
        },
        {
          "internalType": "address",
          "name": "ownerWallet",
          "type": "address"
        },
        {
          "internalType": "string",
          "name": "fatherName",
          "type": "string"
        },
        {
          "internalType": "string",
          "name": "cnic",
          "type": "string"
        },
        {
          "internalType": "string",
          "name": "addressDetails",
          "type": "string"
        },
        {
          "internalType": "string",
          "name": "registrationNumber",
          "type": "string"
        },
        {
          "internalType": "string",
          "name": "engineNumber",
          "type": "string"
        },
        {
          "internalType": "string",
          "name": "chassisNumber",
          "type": "string"
        },
        {
          "internalType": "string",
          "name": "make",
          "type": "string"
        },
        {
          "internalType": "string",
          "name": "model",
          "type": "string"
        },
        {
          "internalType": "string",
          "name": "variant",
          "type": "string"
        },
        {
          "internalType": "string",
          "name": "color",
          "type": "string"
        },
        {
          "internalType": "uint256",
          "name": "manufacturingYear",
          "type": "uint256"
        },
        {
          "internalType": "uint256",
          "name": "registrationYear",
          "type": "uint256"
        },
        {
          "internalType": "string",
          "name": "seatingCapacity",
          "type": "string"
        },
        {
          "internalType": "string",
          "name": "vehicleType",
          "type": "string"
        },
        {
          "internalType": "string",
          "name": "vehicleCategory",
          "type": "string"
        },
        {
          "internalType": "string",
          "name": "fuelType",
          "type": "string"
        },
        {
          "internalType": "string",
          "name": "tokenTaxPaid",
          "type": "string"
        },
        {
          "internalType": "bool",
          "name": "isRegistered",
          "type": "bool"
        }
      ],
      "stateMutability": "view",
      "type": "function",
      "constant": true
    },
    {
      "inputs": [
        {
          "internalType": "string",
          "name": "_ownerName",
          "type": "string"
        },
        {
          "internalType": "string",
          "name": "_fatherName",
          "type": "string"
        },
        {
          "internalType": "string",
          "name": "_cnic",
          "type": "string"
        },
        {
          "internalType": "string",
          "name": "_addressDetails",
          "type": "string"
        },
        {
          "internalType": "string",
          "name": "_registrationNumber",
          "type": "string"
        },
        {
          "internalType": "string",
          "name": "_engineNumber",
          "type": "string"
        },
        {
          "internalType": "string",
          "name": "_chassisNumber",
          "type": "string"
        },
        {
          "internalType": "string",
          "name": "_make",
          "type": "string"
        },
        {
          "internalType": "string",
          "name": "_model",
          "type": "string"
        },
        {
          "internalType": "string",
          "name": "_variant",
          "type": "string"
        },
        {
          "internalType": "string",
          "name": "_color",
          "type": "string"
        },
        {
          "internalType": "uint256",
          "name": "_manufacturingYear",
          "type": "uint256"
        },
        {
          "internalType": "uint256",
          "name": "_registrationYear",
          "type": "uint256"
        },
        {
          "internalType": "string",
          "name": "_seatingCapacity",
          "type": "string"
        },
        {
          "internalType": "string",
          "name": "_vehicleType",
          "type": "string"
        },
        {
          "internalType": "string",
          "name": "_vehicleCategory",
          "type": "string"
        },
        {
          "internalType": "string",
          "name": "_fuelType",
          "type": "string"
        }
      ],
      "name": "registerVehicle",
      "outputs": [],
      "stateMutability": "nonpayable",
      "type": "function"
    },
    {
      "inputs": [
        {
          "internalType": "string",
          "name": "_registrationNumber",
          "type": "string"
        }
      ],
      "name": "getVehicle",
      "outputs": [
        {
          "components": [
            {
              "internalType": "string",
              "name": "ownerName",
              "type": "string"
            },
            {
              "internalType": "address",
              "name": "ownerWallet",
              "type": "address"
            },
            {
              "internalType": "string",
              "name": "fatherName",
              "type": "string"
            },
            {
              "internalType": "string",
              "name": "cnic",
              "type": "string"
            },
            {
              "internalType": "string",
              "name": "addressDetails",
              "type": "string"
            },
            {
              "internalType": "string",
              "name": "registrationNumber",
              "type": "string"
            },
            {
              "internalType": "string",
              "name": "engineNumber",
              "type": "string"
            },
            {
              "internalType": "string",
              "name": "chassisNumber",
              "type": "string"
            },
            {
              "internalType": "string",
              "name": "make",
              "type": "string"
            },
            {
              "internalType": "string",
              "name": "model",
              "type": "string"
            },
            {
              "internalType": "string",
              "name": "variant",
              "type": "string"
            },
            {
              "internalType": "string",
              "name": "color",
              "type": "string"
            },
            {
              "internalType": "uint256",
              "name": "manufacturingYear",
              "type": "uint256"
            },
            {
              "internalType": "uint256",
              "name": "registrationYear",
              "type": "uint256"
            },
            {
              "internalType": "string",
              "name": "seatingCapacity",
              "type": "string"
            },
            {
              "internalType": "string",
              "name": "vehicleType",
              "type": "string"
            },
            {
              "internalType": "string",
              "name": "vehicleCategory",
              "type": "string"
            },
            {
              "internalType": "string",
              "name": "fuelType",
              "type": "string"
            },
            {
              "internalType": "string",
              "name": "tokenTaxPaid",
              "type": "string"
            },
            {
              "internalType": "bool",
              "name": "isRegistered",
              "type": "bool"
            }
          ],
          "internalType": "struct VehicleRegistry.Vehicle",
          "name": "",
          "type": "tuple"
        }
      ],
      "stateMutability": "view",
      "type": "function",
      "constant": true
    }
  ],
  "bytecode": "0x6080806040523461001657611f32908161001b8239f35b5f80fdfe6101806040526004361015610012575f80fd5b5f3560e01c8063047fd579146118b9578063976de5c5146115bd5763d25e30ab1461003b575f80fd5b346115b9576102203660031901126115b9576004356001600160401b0381116115b95761006c903690600401611d88565b6024356001600160401b0381116115b95761008b903690600401611d88565b906044356001600160401b0381116115b9576100ab903690600401611d88565b916064356001600160401b0381116115b9576100cb903690600401611d88565b926084356001600160401b0381116115b9576100eb903690600401611d88565b9360a4356001600160401b0381116115b95761010b903690600401611d88565b60c4356001600160401b0381116115b95761012a903690600401611d88565b60e4356001600160401b0381116115b957610149903690600401611d88565b610104356001600160401b0381116115b957610169903690600401611d88565b6001600160401b0361012435116115b95761018a3661012435600401611d88565b916001600160401b0361014435116115b9576101ac3661014435600401611d88565b936001600160401b036101a435116115b9576101ce366101a435600401611d88565b956001600160401b036101c435116115b9576101f0366101c435600401611d88565b976001600160401b036101e435116115b957610212366101e435600401611d88565b996001600160401b0361020435116115b9578d9b6102363660046102043501611d88565b9c604051818180935160208193019161024e92611ddd565b81015f81520360200190206013015460ff1661157457604080519e8f9061027482611d4b565b8152336020820152015260608d015260808c01528b60a08c015260c08b015260e08a015261010089015261012088015261014087015261016086015261016435610180860152610184356101a08601526101c08501526101e08401526102008301526102208201526040518060408101106001600160401b03604083011117610a83576040810160405260028152614e6f60f01b6020820152610240820152600161026082015260405160208184516103308183858901611ddd565b81015f81520301902081519283516001600160401b038111610a83576103568354611e23565b601f8111611533575b506020601f82116001146114ce5781929394955f926114c3575b50508160011b915f199060031b1c19161782555b6001820160018060a01b036020850151166bffffffffffffffffffffffff60a01b82541617905560408301519283516001600160401b038111610a83576103d76002850154611e23565b601f811161147f575b506020601f82116001146114145781929394955f92611409575b50508160011b915f199060031b1c19161760028401555b60608101519283516001600160401b038111610a83576104346003830154611e23565b601f81116113c5575b506020601f821160011461135a5781929394955f9261134f575b50508160011b915f199060031b1c19161760038201555b60808201519283516001600160401b038111610a83576104916004840154611e23565b601f811161130b575b506020601f82116001146112a05781929394955f92611295575b50508160011b915f199060031b1c19161760048301555b60a08301519283516001600160401b038111610a83576104ee6005850154611e23565b601f8111611251575b506020601f82116001146111e65781929394955f926111db575b50508160011b915f199060031b1c19161760058401555b60c08101519283516001600160401b038111610a835761054b6006830154611e23565b601f8111611197575b506020601f821160011461112c5781929394955f92611121575b50508160011b915f199060031b1c19161760068201555b60e08201519283516001600160401b038111610a83576105a86007840154611e23565b601f81116110dd575b506020601f82116001146110725781929394955f92611067575b50508160011b915f199060031b1c19161760078301555b6101008301519283516001600160401b038111610a83576106066008850154611e23565b601f8111611023575b506020601f8211600114610fb85781929394955f92610fad575b50508160011b915f199060031b1c19161760088401555b6101208101519283516001600160401b038111610a83576106646009830154611e23565b601f8111610f69575b506020601f8211600114610efe5781929394955f92610ef3575b50508160011b915f199060031b1c19161760098201555b6101408201519283516001600160401b038111610a83576106c2600a840154611e23565b601f8111610eaf575b506020601f8211600114610e445781929394955f92610e39575b50508160011b915f199060031b1c191617600a8301555b6101608301519283516001600160401b038111610a8357610720600b850154611e23565b601f8111610df5575b506020601f8211600114610d8a5781929394955f92610d7f575b50508160011b915f199060031b1c191617600b8401555b610180810151600c8401556101a0810151600d8401556101c08101519283516001600160401b038111610a8357610794600e830154611e23565b601f8111610d3b575b506020601f8211600114610cd05781929394955f92610cc5575b50508160011b915f199060031b1c191617600e8201555b6101e08201519283516001600160401b038111610a83576107f2600f840154611e23565b601f8111610c81575b506020601f8211600114610c165781929394955f92610c0b575b50508160011b915f199060031b1c191617600f8301555b6102008301519283516001600160401b038111610a83576108506010850154611e23565b601f8111610bc7575b506020601f8211600114610b5c5781929394955f92610b51575b50508160011b915f199060031b1c19161760108401555b6102208101519283516001600160401b038111610a83576108ae6011830154611e23565b601f8111610b0d575b506020601f8211600114610aa25781929394955f92610a97575b50508160011b915f199060031b1c19161760118201555b601281016102408301518051906001600160401b038211610a835761090d8354611e23565b601f8111610a3e575b50602090601f83116001146109ad5793610997959383610260946013947f0cfba914b5106da2fbba725502188ab817f680c8fe51c318c8bf6896a59f7fbd9a985f926109a2575b50508160011b915f199060031b1c19161790555b01910151151560ff80198354169116179055604051918291604083526040830190611dfe565b3360208301520390a1005b015190505f8061095d565b90601f19831691845f5260205f20925f5b818110610a265750846013947f0cfba914b5106da2fbba725502188ab817f680c8fe51c318c8bf6896a59f7fbd9a98946109979a98946102609860019510610a0e575b505050811b019055610971565b01515f1960f88460031b161c191690555f8080610a01565b929360206001819287860151815501950193016109be565b835f5260205f20601f840160051c81019160208510610a79575b601f0160051c01905b818110610a6e5750610916565b5f8155600101610a61565b9091508190610a58565b634e487b7160e01b5f52604160045260245ffd5b015190505f806108d1565b601183015f5260205f20905f5b601f1984168110610af5575060019394959683601f19811610610add575b505050811b0160118201556108e8565b01515f1960f88460031b161c191690555f8080610acd565b9091602060018192858b015181550193019101610aaf565b601183015f5260205f20601f830160051c810160208410610b4a575b601f830160051c82018110610b3f5750506108b7565b5f8155600101610b29565b5080610b29565b015190505f80610873565b601085015f5260205f20905f5b601f1984168110610baf575060019394959683601f19811610610b97575b505050811b01601084015561088a565b01515f1960f88460031b161c191690555f8080610b87565b9091602060018192858b015181550193019101610b69565b601085015f5260205f20601f830160051c810160208410610c04575b601f830160051c82018110610bf9575050610859565b5f8155600101610be3565b5080610be3565b015190505f80610815565b600f84015f5260205f20905f5b601f1984168110610c69575060019394959683601f19811610610c51575b505050811b01600f83015561082c565b01515f1960f88460031b161c191690555f8080610c41565b9091602060018192858b015181550193019101610c23565b600f84015f5260205f20601f830160051c810160208410610cbe575b601f830160051c82018110610cb35750506107fb565b5f8155600101610c9d565b5080610c9d565b015190505f806107b7565b600e83015f5260205f20905f5b601f1984168110610d23575060019394959683601f19811610610d0b575b505050811b01600e8201556107ce565b01515f1960f88460031b161c191690555f8080610cfb565b9091602060018192858b015181550193019101610cdd565b600e83015f5260205f20601f830160051c810160208410610d78575b601f830160051c82018110610d6d57505061079d565b5f8155600101610d57565b5080610d57565b015190505f80610743565b600b85015f5260205f20905f5b601f1984168110610ddd575060019394959683601f19811610610dc5575b505050811b01600b84015561075a565b01515f1960f88460031b161c191690555f8080610db5565b9091602060018192858b015181550193019101610d97565b600b85015f5260205f20601f830160051c810160208410610e32575b601f830160051c82018110610e27575050610729565b5f8155600101610e11565b5080610e11565b015190505f806106e5565b600a84015f5260205f20905f5b601f1984168110610e97575060019394959683601f19811610610e7f575b505050811b01600a8301556106fc565b01515f1960f88460031b161c191690555f8080610e6f565b9091602060018192858b015181550193019101610e51565b600a84015f5260205f20601f830160051c810160208410610eec575b601f830160051c82018110610ee15750506106cb565b5f8155600101610ecb565b5080610ecb565b015190505f80610687565b600983015f5260205f20905f5b601f1984168110610f51575060019394959683601f19811610610f39575b505050811b01600982015561069e565b01515f1960f88460031b161c191690555f8080610f29565b9091602060018192858b015181550193019101610f0b565b600983015f5260205f20601f830160051c810160208410610fa6575b601f830160051c82018110610f9b57505061066d565b5f8155600101610f85565b5080610f85565b015190505f80610629565b600885015f5260205f20905f5b601f198416811061100b575060019394959683601f19811610610ff3575b505050811b016008840155610640565b01515f1960f88460031b161c191690555f8080610fe3565b9091602060018192858b015181550193019101610fc5565b600885015f5260205f20601f830160051c810160208410611060575b601f830160051c8201811061105557505061060f565b5f815560010161103f565b508061103f565b015190505f806105cb565b600784015f5260205f20905f5b601f19841681106110c5575060019394959683601f198116106110ad575b505050811b0160078301556105e2565b01515f1960f88460031b161c191690555f808061109d565b9091602060018192858b01518155019301910161107f565b600784015f5260205f20601f830160051c81016020841061111a575b601f830160051c8201811061110f5750506105b1565b5f81556001016110f9565b50806110f9565b015190505f8061056e565b600683015f5260205f20905f5b601f198416811061117f575060019394959683601f19811610611167575b505050811b016006820155610585565b01515f1960f88460031b161c191690555f8080611157565b9091602060018192858b015181550193019101611139565b600683015f5260205f20601f830160051c8101602084106111d4575b601f830160051c820181106111c9575050610554565b5f81556001016111b3565b50806111b3565b015190505f80610511565b600585015f5260205f20905f5b601f1984168110611239575060019394959683601f19811610611221575b505050811b016005840155610528565b01515f1960f88460031b161c191690555f8080611211565b9091602060018192858b0151815501930191016111f3565b600585015f5260205f20601f830160051c81016020841061128e575b601f830160051c820181106112835750506104f7565b5f815560010161126d565b508061126d565b015190505f806104b4565b600484015f5260205f20905f5b601f19841681106112f3575060019394959683601f198116106112db575b505050811b0160048301556104cb565b01515f1960f88460031b161c191690555f80806112cb565b9091602060018192858b0151815501930191016112ad565b600484015f5260205f20601f830160051c810160208410611348575b601f830160051c8201811061133d57505061049a565b5f8155600101611327565b5080611327565b015190505f80610457565b600383015f5260205f20905f5b601f19841681106113ad575060019394959683601f19811610611395575b505050811b01600382015561046e565b01515f1960f88460031b161c191690555f8080611385565b9091602060018192858b015181550193019101611367565b600383015f5260205f20601f830160051c810160208410611402575b601f830160051c820181106113f757505061043d565b5f81556001016113e1565b50806113e1565b015190505f806103fa565b600285015f5260205f20905f5b601f1984168110611467575060019394959683601f1981161061144f575b505050811b016002840155610411565b01515f1960f88460031b161c191690555f808061143f565b9091602060018192858b015181550193019101611421565b600285015f5260205f20601f830160051c8101602084106114bc575b601f830160051c820181106114b15750506103e0565b5f815560010161149b565b508061149b565b015190505f80610379565b835f5260205f20905f5b601f198416811061151b575060019394959683601f19811610611503575b505050811b01825561038d565b01515f1960f88460031b161c191690555f80806114f6565b9091602060018192858b0151815501930191016114d8565b835f5260205f20601f830160051c81016020841061156d575b601f830160051c8201811061156257505061035f565b5f815560010161154c565b508061154c565b60405162461bcd60e51b815260206004820152601a60248201527f56656869636c6520616c726561647920726567697374657265640000000000006044820152606490fd5b5f80fd5b346115b95760203660031901126115b9576004356001600160401b0381116115b9576115ed903690600401611d88565b604051818180935160208193019161160492611ddd565b81015f815203602001902061161881611e5b565b60018201546001600160a01b03166101605261163660028301611e5b565b60805261164560038301611e5b565b60e05261165460048301611e5b565b61166060058401611e5b565b9061166d60068501611e5b565b61167960078601611e5b565b61168560088701611e5b565b61169160098801611e5b565b9061169e600a8901611e5b565b926116ab600b8a01611e5b565b94600c8a015497600d8b015497600e8c016116c590611e5b565b9a6116d2600f8e01611e5b565b9c6116df60108201611e5b565b60a0526116ee60118201611e5b565b60c0526116fd60128201611e5b565b610100526013015460ff16610120526040518061014052610280809152610140510161172891611dfe565b6101605161014051602001526101405180820390604001526080519061174d91611dfe565b61014051808203906060015260e0519061176691611dfe565b61014051808203906080015261177b91611dfe565b610140518082039060a0015261179091611dfe565b610140518082039060c001526117a591611dfe565b610140518082039060e001526117ba91611dfe565b610140518082039061010001526117d091611dfe565b610140518082039061012001526117e691611dfe565b610140518082039061014001526117fc91611dfe565b6101405180820390610160015261181291611dfe565b91610140516101800152610140516101a0015261014051808203906101c0015261183b91611dfe565b61014051808203906101e0015261185191611dfe565b6101405180820390610200015260a0519061186b91611dfe565b6101405180820390610220015260c0519061188591611dfe565b6101405180820390610240015261010051906118a091611dfe565b6101205115156101405161026001526101405180910390f35b346115b95760203660031901126115b9576004356001600160401b0381116115b9576118e9903690600401611d88565b5f6102606040516118f981611d4b565b606081528260208201526060604082015260608082015260606080820152606060a0820152606060c0820152606060e0820152606061010082015260606101208201526060610140820152606061016082015282610180820152826101a082015260606101c082015260606101e0820152606061020082015260606102208201526060610240820152015260ff6013604051602081855161199d8183858a01611ddd565b81015f81520301902001541615611d125760206119c7918160405193828580945193849201611ddd565b81015f81520301902060ff6013604051926119e184611d4b565b6119ea81611e5b565b845260018101546001600160a01b03166020850152611a0b60028201611e5b565b6040850152611a1c60038201611e5b565b6060850152611a2d60048201611e5b565b6080850152611a3e60058201611e5b565b60a0850152611a4f60068201611e5b565b60c0850152611a6060078201611e5b565b60e0850152611a7160088201611e5b565b610100850152611a8360098201611e5b565b610120850152611a95600a8201611e5b565b610140850152611aa7600b8201611e5b565b610160850152600c810154610180850152600d8101546101a0850152611acf600e8201611e5b565b6101c0850152611ae1600f8201611e5b565b6101e0850152611af360108201611e5b565b610200850152611b0560118201611e5b565b610220850152611b1760128201611e5b565b6102408501520154161515610260820152604051809160208252610260611d03611ced611cd5611cbd611ca5611c75611c5d611c45611c2d611c158b8d60e0611bff611bea611bd4611bbe611ba8611b7d885161028060208a01526102a0890190611dfe565b60208901516001600160a01b0316604089810191909152890151888203601f190160608a0152611dfe565b6060880151878203601f19016080890152611dfe565b6080870151868203601f190160a0880152611dfe565b60a0860151858203601f190160c0870152611dfe565b60c0850151848203601f190184860152611dfe565b92015190610100601f1982850301910152611dfe565b6101008c01518d8203601f19016101208f0152611dfe565b6101208b01518c8203601f19016101408e0152611dfe565b6101408a01518b8203601f19016101608d0152611dfe565b6101608901518a8203601f19016101808c0152611dfe565b6101808801516101a08a01526101a08801516101c08a01526101c0880151601f198a8303016101e08b0152611dfe565b6101e0870151888203601f19016102008a0152611dfe565b610200860151878203601f1901610220890152611dfe565b610220850151868203601f1901610240880152611dfe565b610240840151858203601f190184870152611dfe565b91015115156102808301520390f35b60405162461bcd60e51b815260206004820152601160248201527015995a1a58db19481b9bdd08199bdd5b99607a1b6044820152606490fd5b61028081019081106001600160401b03821117610a8357604052565b90601f801991011681019081106001600160401b03821117610a8357604052565b81601f820112156115b9578035906001600160401b038211610a835760405192611dbc601f8401601f191660200185611d67565b828452602083830101116115b957815f926020809301838601378301015290565b5f5b838110611dee5750505f910152565b8181015183820152602001611ddf565b90602091611e1781518092818552858086019101611ddd565b601f01601f1916010190565b90600182811c92168015611e51575b6020831014611e3d57565b634e487b7160e01b5f52602260045260245ffd5b91607f1691611e32565b9060405191825f825492611e6e84611e23565b9081845260019485811690815f14611ed95750600114611e99575b5050611e9792500383611d67565b565b909391505f52602090815f20935f915b818310611ec1575050611e9793508201015f80611e89565b85548884018501529485019487945091830191611ea9565b915050611e9794506020925060ff191682840152151560051b8201015f80611e8956fea2646970667358221220525410eed3046006cbdbb40fb62a82268ed0977759508af1327a148392f6f7ab64736f6c63430008140033",
  "immutableReferences": {},
  "source": "// SPDX-License-Identifier: MIT\r\npragma solidity ^0.8.0;\r\n\r\ncontract VehicleRegistry {\r\n    struct Vehicle {\r\n        string ownerName;\r\n        address ownerWallet; // Linked to MetaMask (MetaLogin.jsx)\r\n        string fatherName;\r\n        string cnic;\r\n        string addressDetails;\r\n        string registrationNumber;\r\n        string engineNumber;\r\n        string chassisNumber;\r\n        string make;\r\n        string model;\r\n        string variant;\r\n        string color;\r\n        uint256 manufacturingYear;\r\n        uint256 registrationYear;\r\n        string seatingCapacity;\r\n        string vehicleType;\r\n        string vehicleCategory;\r\n        string fuelType;\r\n        string tokenTaxPaid; // Yes/No (For later tax payment)\r\n        bool isRegistered;\r\n    }\r\n\r\n    mapping(string => Vehicle) public vehicles; // registrationNumber -> Vehicle Data\r\n\r\n    event VehicleRegistered(string registrationNumber, address ownerWallet);\r\n\r\n    function registerVehicle(\r\n        string memory _ownerName,\r\n        string memory _fatherName,\r\n        string memory _cnic,\r\n        string memory _addressDetails,\r\n        string memory _registrationNumber,\r\n        string memory _engineNumber,\r\n        string memory _chassisNumber,\r\n        string memory _make,\r\n        string memory _model,\r\n        string memory _variant,\r\n        string memory _color,\r\n        uint256 _manufacturingYear,\r\n        uint256 _registrationYear,\r\n        string memory _seatingCapacity,\r\n        string memory _vehicleType,\r\n        string memory _vehicleCategory,\r\n        string memory _fuelType\r\n    ) public {\r\n        require(!vehicles[_registrationNumber].isRegistered, \"Vehicle already registered\");\r\n\r\n        vehicles[_registrationNumber] = Vehicle(\r\n            _ownerName,\r\n            msg.sender, // Links the wallet address of the user\r\n            _fatherName,\r\n            _cnic,\r\n            _addressDetails,\r\n            _registrationNumber,\r\n            _engineNumber,\r\n            _chassisNumber,\r\n            _make,\r\n            _model,\r\n            _variant,\r\n            _color,\r\n            _manufacturingYear,\r\n            _registrationYear,\r\n            _seatingCapacity,\r\n            _vehicleType,\r\n            _vehicleCategory,\r\n            _fuelType,\r\n            \"No\", // Token tax will be paid later\r\n            true\r\n        );\r\n\r\n        emit VehicleRegistered(_registrationNumber, msg.sender);\r\n    }\r\n\r\n    function getVehicle(string memory _registrationNumber) public view returns (Vehicle memory) {\r\n        require(vehicles[_registrationNumber].isRegistered, \"Vehicle not found\");\r\n        return vehicles[_registrationNumber];\r\n    }\r\n}\r\n",
  "sourcePath": "F:\\TaxTron-FYP\\taxtron\\backend\\contracts\\VehicleRegistry.sol",
  "compiler": {
    "name": "solc",
    "version": "0.8.20+commit.a1b79de6.Emscripten.clang"
  },
  "schemaVersion": "3.4.16",
  "updatedAt": "2025-02-21T07:45:52.664Z",
  "networkType": "ethereum",
  "devdoc": {
    "kind": "dev",
    "methods": {},
    "version": 1
  },
  "userdoc": {
    "kind": "user",
    "methods": {},
    "version": 1
  }
}