{
  "contractName": "VehicleTaxSimple",
  "abi": [
    {
      "inputs": [
        {
          "internalType": "address",
          "name": "_treasury",
          "type": "address"
        }
      ],
      "stateMutability": "nonpayable",
      "type": "constructor"
    },
    {
      "anonymous": false,
      "inputs": [
        {
          "indexed": true,
          "internalType": "string",
          "name": "inspectionId",
          "type": "string"
        },
        {
          "indexed": true,
          "internalType": "address",
          "name": "payer",
          "type": "address"
        },
        {
          "indexed": false,
          "internalType": "uint256",
          "name": "amount",
          "type": "uint256"
        },
        {
          "indexed": false,
          "internalType": "uint256",
          "name": "year",
          "type": "uint256"
        },
        {
          "indexed": false,
          "internalType": "uint256",
          "name": "timestamp",
          "type": "uint256"
        }
      ],
      "name": "TaxPaid",
      "type": "event"
    },
    {
      "inputs": [],
      "name": "owner",
      "outputs": [
        {
          "internalType": "address",
          "name": "",
          "type": "address"
        }
      ],
      "stateMutability": "view",
      "type": "function"
    },
    {
      "inputs": [
        {
          "internalType": "string",
          "name": "",
          "type": "string"
        },
        {
          "internalType": "uint256",
          "name": "",
          "type": "uint256"
        }
      ],
      "name": "paidYears",
      "outputs": [
        {
          "internalType": "uint256",
          "name": "",
          "type": "uint256"
        }
      ],
      "stateMutability": "view",
      "type": "function"
    },
    {
      "inputs": [
        {
          "internalType": "string",
          "name": "",
          "type": "string"
        },
        {
          "internalType": "uint256",
          "name": "",
          "type": "uint256"
        }
      ],
      "name": "taxPayments",
      "outputs": [
        {
          "internalType": "string",
          "name": "inspectionId",
          "type": "string"
        },
        {
          "internalType": "address",
          "name": "payer",
          "type": "address"
        },
        {
          "internalType": "uint256",
          "name": "amount",
          "type": "uint256"
        },
        {
          "internalType": "uint256",
          "name": "year",
          "type": "uint256"
        },
        {
          "internalType": "uint256",
          "name": "timestamp",
          "type": "uint256"
        },
        {
          "internalType": "string",
          "name": "transactionHash",
          "type": "string"
        },
        {
          "internalType": "bool",
          "name": "isPaid",
          "type": "bool"
        }
      ],
      "stateMutability": "view",
      "type": "function"
    },
    {
      "inputs": [],
      "name": "treasury",
      "outputs": [
        {
          "internalType": "address",
          "name": "",
          "type": "address"
        }
      ],
      "stateMutability": "view",
      "type": "function"
    },
    {
      "inputs": [
        {
          "internalType": "string",
          "name": "_inspectionId",
          "type": "string"
        },
        {
          "internalType": "uint256",
          "name": "_taxAmount",
          "type": "uint256"
        },
        {
          "internalType": "uint256",
          "name": "_year",
          "type": "uint256"
        }
      ],
      "name": "payAnnualTax",
      "outputs": [],
      "stateMutability": "payable",
      "type": "function"
    },
    {
      "inputs": [
        {
          "internalType": "string",
          "name": "_inspectionId",
          "type": "string"
        },
        {
          "internalType": "uint256",
          "name": "_year",
          "type": "uint256"
        },
        {
          "internalType": "string",
          "name": "_txHash",
          "type": "string"
        }
      ],
      "name": "updateTransactionHash",
      "outputs": [],
      "stateMutability": "nonpayable",
      "type": "function"
    },
    {
      "inputs": [
        {
          "internalType": "string",
          "name": "_inspectionId",
          "type": "string"
        },
        {
          "internalType": "uint256",
          "name": "_year",
          "type": "uint256"
        }
      ],
      "name": "isTaxPaid",
      "outputs": [
        {
          "internalType": "bool",
          "name": "",
          "type": "bool"
        }
      ],
      "stateMutability": "view",
      "type": "function"
    },
    {
      "inputs": [
        {
          "internalType": "string",
          "name": "_inspectionId",
          "type": "string"
        },
        {
          "internalType": "uint256",
          "name": "_year",
          "type": "uint256"
        }
      ],
      "name": "getTaxPayment",
      "outputs": [
        {
          "internalType": "address",
          "name": "payer",
          "type": "address"
        },
        {
          "internalType": "uint256",
          "name": "amount",
          "type": "uint256"
        },
        {
          "internalType": "uint256",
          "name": "timestamp",
          "type": "uint256"
        },
        {
          "internalType": "string",
          "name": "transactionHash",
          "type": "string"
        },
        {
          "internalType": "bool",
          "name": "isPaid",
          "type": "bool"
        }
      ],
      "stateMutability": "view",
      "type": "function"
    },
    {
      "inputs": [
        {
          "internalType": "string",
          "name": "_inspectionId",
          "type": "string"
        }
      ],
      "name": "getPaidYears",
      "outputs": [
        {
          "internalType": "uint256[]",
          "name": "",
          "type": "uint256[]"
        }
      ],
      "stateMutability": "view",
      "type": "function"
    },
    {
      "inputs": [
        {
          "internalType": "address",
          "name": "_newTreasury",
          "type": "address"
        }
      ],
      "name": "setTreasuryAddress",
      "outputs": [],
      "stateMutability": "nonpayable",
      "type": "function"
    },
    {
      "inputs": [],
      "name": "emergencyWithdraw",
      "outputs": [],
      "stateMutability": "nonpayable",
      "type": "function"
    },
    {
      "inputs": [
        {
          "internalType": "address",
          "name": "_newOwner",
          "type": "address"
        }
      ],
      "name": "transferOwnership",
      "outputs": [],
      "stateMutability": "nonpayable",
      "type": "function"
    }
  ],
  "bytecode": "0x6080346100c357601f6110fa38819003918201601f19168301916001600160401b038311848410176100c7578084926020946040528339810103126100c357516001600160a01b038116908190036100c357801561007e5760018060a01b031933815f5416175f55600154161760015560405161101e90816100dc8239f35b60405162461bcd60e51b815260206004820152601f60248201527f547265617375727920616464726573732063616e6e6f74206265207a65726f006044820152606490fd5b5f80fd5b634e487b7160e01b5f52604160045260245ffdfe60806040526004361015610011575f80fd5b5f3560e01c8063291f913e14610cd8578063292866b514610c045780633b5853ba14610b3157806340ea1d6114610af75780635692f6be146104e057806361d027b3146104b85780636605bfda1461041c5780636f4f6bb2146103c65780638014e500146101aa5780638da5cb5b14610183578063db2e21bc146101305763f2fde38b1461009d575f80fd5b3461012c57602036600319011261012c576004356001600160a01b038181169182900361012c576100d35f549182163314610f92565b81156100e8576001600160a01b031916175f55005b606460405162461bcd60e51b815260206004820152602060248201527f4e6577206f776e65722063616e6e6f74206265207a65726f20616464726573736044820152fd5b5f80fd5b3461012c575f36600319011261012c575f80548190819081906001600160a01b031661015d338214610f92565b479082821561017a575bf11561016f57005b6040513d5f823e3d90fd5b506108fc610167565b3461012c575f36600319011261012c575f546040516001600160a01b039091168152602090f35b3461012c57606036600319011261012c5767ffffffffffffffff60043581811161012c576101dc903690600401610dc2565b6024359160443581811161012c576101f8903690600401610dc2565b9261020d60018060a01b035f54163314610f92565b60405192805190602094858181840194610228818388610e4a565b81016002815203019020835f52855260ff600660405f20015416156103815761025e918591604051938492839251928391610e4a565b81016002815203019020905f528252600560405f200191835191821161036d576102888354610e6b565b601f811161032a575b5080601f83116001146102cb57508192935f926102c0575b50505f19600383901b1c191660019190911b179055005b0151905083806102a9565b90601f19831694845f52825f20925f905b8782106103125750508360019596106102fa575b505050811b019055005b01515f1960f88460031b161c191690558380806102f0565b806001859682949686015181550195019301906102dc565b835f52815f20601f840160051c810191838510610363575b601f0160051c01905b8181106103585750610291565b5f815560010161034b565b9091508190610342565b634e487b7160e01b5f52604160045260245ffd5b60405162461bcd60e51b815260048101869052601a60248201527f546178206e6f74207061696420666f72207468697320796561720000000000006044820152606490fd5b3461012c5760206103ee6103d936610e18565b92908160405193828580945193849201610e4a565b81016003815203019020805482101561012c5760209161040d91610f69565b90549060031b1c604051908152f35b3461012c57602036600319011261012c576004356001600160a01b038181169182900361012c57610451905f54163314610f92565b8015610473576bffffffffffffffffffffffff60a01b60015416176001555f80f35b60405162461bcd60e51b815260206004820152601f60248201527f547265617375727920616464726573732063616e6e6f74206265207a65726f006044820152606490fd5b3461012c575f36600319011261012c576001546040516001600160a01b039091168152602090f35b606036600319011261012c5760043567ffffffffffffffff811161012c5761050c903690600401610dc2565b805115610aba5760243515610a6b576024353410610a26576107e9604435106109d55760405160208183516105448183858801610e4a565b810160028152030190206044355f5260205260ff600660405f20015416610990576040519061057282610d84565b8082523360208301526024356040830152604435606083015242608083015260405180602081011067ffffffffffffffff60208301111761036d57602081016040525f815260a0830152600160c083015260405160208183516105d88183858801610e4a565b810160028152030190206044355f5260205260405f2091805192835167ffffffffffffffff811161036d5761060d8254610e6b565b601f811161094f575b506020601f82116001146108ea5781929394955f926108df575b50508160011b915f199060031b1c19161781555b6001810160018060a01b036020840151166bffffffffffffffffffffffff60a01b82541617905560408201516002820155606082015160038201556080820151600482015560a082015180519067ffffffffffffffff821161036d576106ad6005840154610e6b565b601f811161089b575b50602090601f831160011461082a57918060c094926006945f9261081f575b50508160011b915f199060031b1c19161760058201555b01910151151560ff8019835416911617905560405160208183516107138183858801610e4a565b8101600381520301902080546801000000000000000081101561036d5761073f91600182018155610f69565b81549060031b90604435821b915f19901b19161790555f80808060243560018060a01b036001541682f11561016f5760243534116107d4575b61079090602060405192828480945193849201610e4a565b810103902060405190602435825260443560208301524260408301527f17ce15d0a82d685dc9e576d6657bd87c585615dae4538770c9289955e36108d460603393a3005b602435340334811161080b575f80808093816024353414610802575b3390f1610778576040513d5f823e3d90fd5b506108fc6107f0565b634e487b7160e01b5f52601160045260245ffd5b0151905087806106d5565b90600584015f5260205f20915f5b601f198516811061088357509260c0949260019260069583601f1981161061086b575b505050811b0160058201556106ec565b01515f1960f88460031b161c1916905587808061085b565b91926020600181928685015181550194019201610838565b600584015f5260205f20601f840160051c8101602085106108d8575b601f830160051c820181106108cd5750506106b6565b5f81556001016108b7565b50806108b7565b015190508580610630565b825f5260205f20905f5b601f1984168110610937575060019394959683601f1981161061091f575b505050811b018155610644565b01515f1960f88460031b161c19169055858080610912565b9091602060018192858b0151815501930191016108f4565b825f5260205f20601f830160051c810160208410610989575b601f830160051c8201811061097e575050610616565b5f8155600101610968565b5080610968565b60405162461bcd60e51b815260206004820152601e60248201527f54617820616c7265616479207061696420666f722074686973207965617200006044820152606490fd5b60405162461bcd60e51b8152602060048201526024808201527f43616e6e6f74207061792074617820666f72207965617273206265666f7265206044820152633230323560e01b6064820152608490fd5b60405162461bcd60e51b815260206004820152601b60248201527f496e73756666696369656e74207061796d656e7420616d6f756e7400000000006044820152606490fd5b60405162461bcd60e51b815260206004820152602160248201527f54617820616d6f756e74206d7573742062652067726561746572207468616e206044820152600360fc1b6064820152608490fd5b60405162461bcd60e51b8152602060048201526015602482015274125b9d985b1a59081a5b9cdc1958dd1a5bdb881251605a1b6044820152606490fd5b3461012c576020610b0a6103d936610e18565b81016002815203019020905f52602052602060ff600660405f200154166040519015158152f35b3461012c576020610b446103d936610e18565b81016002815203019020905f5260205260405f2060405190610b6582610d84565b610b6e81610ea3565b825260c0610bfa60018060a01b039283600182015416936020860194855260028201549460408701958652600383015460608801526004830154966080810197885260ff6006610bc060058701610ea3565b958660a08501520154161515958691015251169351945160405195869586526020860152604085015260a0606085015260a0840190610f44565b9060808301520390f35b3461012c5760208060031936011261012c5760043567ffffffffffffffff811161012c5781610c3a610c4d923690600401610dc2565b8160405193828580945193849201610e4a565b81016003815203019020604051908183825491828152019081925f52845f20905f5b86828210610cc4578686610c8582880383610da0565b60405192839281840190828552518091526040840192915f5b828110610cad57505050500390f35b835185528695509381019392810192600101610c9e565b835485529093019260019283019201610c6f565b3461012c576020610ceb6103d936610e18565b81016002815203019020905f52602052610d5660405f20610d0b81610ea3565b90610d7860018060a01b03600183015416600283015492600381015460048201549060ff6006610d3d60058601610ea3565b940154169560405198899860e08a5260e08a0190610f44565b94602089015260408801526060870152608086015284820360a0860152610f44565b90151560c08301520390f35b60e0810190811067ffffffffffffffff82111761036d57604052565b90601f8019910116810190811067ffffffffffffffff82111761036d57604052565b81601f8201121561012c5780359067ffffffffffffffff821161036d5760405192610df7601f8401601f191660200185610da0565b8284526020838301011161012c57815f926020809301838601378301015290565b604060031982011261012c576004359067ffffffffffffffff821161012c57610e4391600401610dc2565b9060243590565b5f5b838110610e5b5750505f910152565b8181015183820152602001610e4c565b90600182811c92168015610e99575b6020831014610e8557565b634e487b7160e01b5f52602260045260245ffd5b91607f1691610e7a565b9060405191825f825492610eb684610e6b565b9081845260019485811690815f14610f215750600114610ee1575b5050610edf92500383610da0565b565b909391505f52602090815f20935f915b818310610f09575050610edf93508201015f80610ed1565b85548884018501529485019487945091830191610ef1565b915050610edf94506020925060ff191682840152151560051b8201015f80610ed1565b90602091610f5d81518092818552858086019101610e4a565b601f01601f1916010190565b8054821015610f7e575f5260205f2001905f90565b634e487b7160e01b5f52603260045260245ffd5b15610f9957565b60405162461bcd60e51b815260206004820152602160248201527f4f6e6c79206f776e65722063616e2063616c6c20746869732066756e6374696f6044820152603760f91b6064820152608490fdfea264697066735822122089db52d4687f0153be6ea7d2277e7ee3ce9f3a53d8b16e9e5f65d36af51b41bc64736f6c63430008140033",
  "immutableReferences": {},
  "source": "// SPDX-License-Identifier: MIT\r\npragma solidity ^0.8.20;\r\n\r\ncontract VehicleTaxSimple {\r\n    address public owner;\r\n    address public treasury;\r\n    \r\n    struct TaxPayment {\r\n        string inspectionId;\r\n        address payer;\r\n        uint256 amount;\r\n        uint256 year;\r\n        uint256 timestamp;\r\n        string transactionHash;\r\n        bool isPaid;\r\n    }\r\n    \r\n    // Simple mappings\r\n    mapping(string => mapping(uint256 => TaxPayment)) public taxPayments; // inspectionId => year => payment\r\n    mapping(string => uint256[]) public paidYears; // inspectionId => paid years array\r\n    \r\n    // Events\r\n    event TaxPaid(\r\n        string indexed inspectionId,\r\n        address indexed payer,\r\n        uint256 amount,\r\n        uint256 year,\r\n        uint256 timestamp\r\n    );\r\n    \r\n    // Modifiers\r\n    modifier onlyOwner() {\r\n        require(msg.sender == owner, \"Only owner can call this function\");\r\n        _;\r\n    }\r\n    \r\n    constructor(address _treasury) {\r\n        require(_treasury != address(0), \"Treasury address cannot be zero\");\r\n        owner = msg.sender;\r\n        treasury = _treasury;\r\n    }\r\n    \r\n    // Pay annual tax\r\n    function payAnnualTax(\r\n        string memory _inspectionId,\r\n        uint256 _taxAmount,\r\n        uint256 _year\r\n    ) external payable {\r\n        require(bytes(_inspectionId).length > 0, \"Invalid inspection ID\");\r\n        require(_taxAmount > 0, \"Tax amount must be greater than 0\");\r\n        require(msg.value >= _taxAmount, \"Insufficient payment amount\");\r\n        require(_year >= 2025, \"Cannot pay tax for years before 2025\");\r\n        \r\n        // Check if already paid\r\n        require(!taxPayments[_inspectionId][_year].isPaid, \"Tax already paid for this year\");\r\n        \r\n        // Record payment\r\n        taxPayments[_inspectionId][_year] = TaxPayment({\r\n            inspectionId: _inspectionId,\r\n            payer: msg.sender,\r\n            amount: _taxAmount,\r\n            year: _year,\r\n            timestamp: block.timestamp,\r\n            transactionHash: \"\",\r\n            isPaid: true\r\n        });\r\n        \r\n        // Add year to paid years array\r\n        paidYears[_inspectionId].push(_year);\r\n        \r\n        // Transfer to treasury\r\n        payable(treasury).transfer(_taxAmount);\r\n        \r\n        // Refund excess if any\r\n        if (msg.value > _taxAmount) {\r\n            payable(msg.sender).transfer(msg.value - _taxAmount);\r\n        }\r\n        \r\n        emit TaxPaid(_inspectionId, msg.sender, _taxAmount, _year, block.timestamp);\r\n    }\r\n    \r\n    // Update transaction hash\r\n    function updateTransactionHash(\r\n        string memory _inspectionId,\r\n        uint256 _year,\r\n        string memory _txHash\r\n    ) external onlyOwner {\r\n        require(taxPayments[_inspectionId][_year].isPaid, \"Tax not paid for this year\");\r\n        taxPayments[_inspectionId][_year].transactionHash = _txHash;\r\n    }\r\n    \r\n    // Check if tax is paid for a specific year\r\n    function isTaxPaid(string memory _inspectionId, uint256 _year) \r\n        external \r\n        view \r\n        returns (bool) \r\n    {\r\n        return taxPayments[_inspectionId][_year].isPaid;\r\n    }\r\n    \r\n    // Get tax payment details\r\n    function getTaxPayment(string memory _inspectionId, uint256 _year) \r\n        external \r\n        view \r\n        returns (\r\n            address payer,\r\n            uint256 amount,\r\n            uint256 timestamp,\r\n            string memory transactionHash,\r\n            bool isPaid\r\n        ) \r\n    {\r\n        TaxPayment memory payment = taxPayments[_inspectionId][_year];\r\n        return (\r\n            payment.payer,\r\n            payment.amount,\r\n            payment.timestamp,\r\n            payment.transactionHash,\r\n            payment.isPaid\r\n        );\r\n    }\r\n    \r\n    // Get all paid years for a vehicle\r\n    function getPaidYears(string memory _inspectionId) \r\n        external \r\n        view \r\n        returns (uint256[] memory) \r\n    {\r\n        return paidYears[_inspectionId];\r\n    }\r\n    \r\n    // Owner functions\r\n    function setTreasuryAddress(address _newTreasury) external onlyOwner {\r\n        require(_newTreasury != address(0), \"Treasury address cannot be zero\");\r\n        treasury = _newTreasury;\r\n    }\r\n    \r\n    // Emergency withdraw\r\n    function emergencyWithdraw() external onlyOwner {\r\n        payable(owner).transfer(address(this).balance);\r\n    }\r\n    \r\n    // Transfer ownership\r\n    function transferOwnership(address _newOwner) external onlyOwner {\r\n        require(_newOwner != address(0), \"New owner cannot be zero address\");\r\n        owner = _newOwner;\r\n    }\r\n}\r\n",
  "sourcePath": "F:\\TaxTron-FYP\\taxtron\\backend\\contracts\\VehicleTaxSimple.sol",
  "compiler": {
    "name": "solc",
    "version": "0.8.20+commit.a1b79de6.Emscripten.clang"
  },
  "schemaVersion": "3.4.16",
  "updatedAt": "2025-09-27T17:33:58.521Z",
  "devdoc": {
    "kind": "dev",
    "methods": {},
    "version": 1
  },
  "userdoc": {
    "kind": "user",
    "methods": {},
    "version": 1
  }
}