{
  "contractName": "VehicleRegistry",
  "abi": [
    {
      "anonymous": false,
      "inputs": [
        {
          "indexed": false,
          "internalType": "string",
          "name": "registrationNumber",
          "type": "string"
        },
        {
          "indexed": false,
          "internalType": "address",
          "name": "sender",
          "type": "address"
        }
      ],
      "name": "RegistrationAttempt",
      "type": "event"
    },
    {
      "anonymous": false,
      "inputs": [
        {
          "indexed": false,
          "internalType": "string",
          "name": "registrationNumber",
          "type": "string"
        },
        {
          "indexed": false,
          "internalType": "address",
          "name": "ownerWallet",
          "type": "address"
        }
      ],
      "name": "VehicleRegistered",
      "type": "event"
    },
    {
      "inputs": [
        {
          "internalType": "string",
          "name": "",
          "type": "string"
        }
      ],
      "name": "vehicles",
      "outputs": [
        {
          "internalType": "address",
          "name": "ownerWallet",
          "type": "address"
        },
        {
          "internalType": "string",
          "name": "ownerName",
          "type": "string"
        },
        {
          "internalType": "string",
          "name": "fatherName",
          "type": "string"
        },
        {
          "internalType": "string",
          "name": "cnic",
          "type": "string"
        },
        {
          "internalType": "string",
          "name": "registrationNumber",
          "type": "string"
        },
        {
          "internalType": "string",
          "name": "engineNumber",
          "type": "string"
        },
        {
          "internalType": "string",
          "name": "chassisNumber",
          "type": "string"
        },
        {
          "internalType": "string",
          "name": "make",
          "type": "string"
        },
        {
          "internalType": "string",
          "name": "model",
          "type": "string"
        },
        {
          "internalType": "string",
          "name": "variant",
          "type": "string"
        },
        {
          "internalType": "uint256",
          "name": "manufacturingYear",
          "type": "uint256"
        },
        {
          "internalType": "uint256",
          "name": "registrationYear",
          "type": "uint256"
        },
        {
          "internalType": "string",
          "name": "vehicleType",
          "type": "string"
        },
        {
          "internalType": "string",
          "name": "fuelType",
          "type": "string"
        },
        {
          "internalType": "bool",
          "name": "isRegistered",
          "type": "bool"
        }
      ],
      "stateMutability": "view",
      "type": "function",
      "constant": true
    },
    {
      "inputs": [
        {
          "components": [
            {
              "internalType": "string",
              "name": "ownerName",
              "type": "string"
            },
            {
              "internalType": "string",
              "name": "fatherName",
              "type": "string"
            },
            {
              "internalType": "string",
              "name": "cnic",
              "type": "string"
            },
            {
              "internalType": "string",
              "name": "registrationNumber",
              "type": "string"
            },
            {
              "internalType": "string",
              "name": "engineNumber",
              "type": "string"
            },
            {
              "internalType": "string",
              "name": "chassisNumber",
              "type": "string"
            },
            {
              "internalType": "string",
              "name": "make",
              "type": "string"
            },
            {
              "internalType": "string",
              "name": "model",
              "type": "string"
            },
            {
              "internalType": "string",
              "name": "variant",
              "type": "string"
            },
            {
              "internalType": "uint256",
              "name": "manufacturingYear",
              "type": "uint256"
            },
            {
              "internalType": "uint256",
              "name": "registrationYear",
              "type": "uint256"
            },
            {
              "internalType": "string",
              "name": "vehicleType",
              "type": "string"
            },
            {
              "internalType": "string",
              "name": "fuelType",
              "type": "string"
            }
          ],
          "internalType": "struct VehicleRegistry.VehicleInput",
          "name": "input",
          "type": "tuple"
        }
      ],
      "name": "registerVehicle",
      "outputs": [],
      "stateMutability": "nonpayable",
      "type": "function"
    }
  ],
  "bytecode": "0x60808060405234610016576114ab908161001c8239f35b600080fdfe6080604052600436101561001257600080fd5b60003560e01c80630b8f763b1461021f5763976de5c51461003257600080fd5b3461021a57602036600319011261021a576004356001600160401b03811161021a576100629036906004016112a9565b6040518181809351602081930191610079926112ff565b600090820190815203602001902080546001600160a01b03169061009f60018201611382565b906100ac60028201611382565b906100b960038201611382565b6100c560048301611382565b6100d160058401611382565b906100de60068501611382565b6100ea60078601611382565b6100f660088701611382565b9061010360098801611382565b92600a88015495600b89015495600c8a0161011d90611382565b9861012a600d8c01611382565b9a600e015460ff169b6040519e8f9e8f9182526101e0806020840152820161015191611428565b90808203906040015261016391611428565b8d810360608f015261017491611428565b8c810360808e015261018591611428565b8b810360a08d015261019691611428565b8a810360c08c01526101a791611428565b89810360e08b01526101b891611428565b8881036101008a01526101ca91611428565b8781036101208901526101dc91611428565b916101408701526101608601528481036101808601526101fb91611428565b8381036101a085015261020d91611428565b9015156101c08301520390f35b600080fd5b3461021a5760031960203682011261021a576001600160401b036004351161021a576101a0906004353603011261021a57610220604052600435600401356001600160401b03811161021a5761027c9060043691813501016112a9565b608052602460043501356001600160401b03811161021a576102a59060043691813501016112a9565b60a052600435604401356001600160401b03811161021a576102ce9060043691813501016112a9565b60c052600435606401356001600160401b03811161021a576102f79060043691813501016112a9565b60e052600435608401356001600160401b03811161021a576103209060043691813501016112a9565b6101005260043560a401356001600160401b03811161021a5761034a9060043691813501016112a9565b6101205260043560c401356001600160401b03811161021a576103749060043691813501016112a9565b6101405260043560e401356001600160401b03811161021a5761039e9060043691813501016112a9565b6101605260043561010401356001600160401b03811161021a576103c99060043691813501016112a9565b610180526004356101248101356101a0526101448101356101c05261016401356001600160401b03811161021a576104089060043691813501016112a9565b6101e05260043561018401356001600160401b03811161021a576104339060043691813501016112a9565b6102005260e0516040517f4ccbbf2666bfeb44b64db396f6381682131d9a4fe344814d531de7236ba281a391819061046d9033908361144d565b0390a160ff600e610482606060800151611322565b0154166112435760805160a05160c05160e05161010051610120516101405161016051610180516101a0516101c0516101e08051610200516040519d909c919b939a94999598969796959493928e01808f116001600160401b0390911117610aaf5760208e6101e08101604052338152015260408d015260608c015260808b015260a08a015260c089015260e08801526101008701526101208601526101408501526101608401526101808301526101a082015260016101c082015261054c606060800151611322565b815181546001600160a01b0319166001600160a01b0391909116178155602082015180519092906001600160401b038111610aaf5761058e6001840154611348565b601f81116111fc575b506020601f821160011461118e5781929394600092611183575b50508160011b916000199060031b1c19161760018301555b60408101519182516001600160401b038111610aaf576105ec6002830154611348565b601f811161113c575b506020601f82116001146110ce57819293946000926110c3575b50508160011b916000199060031b1c19161760028201555b60608201519182516001600160401b038111610aaf5761064a6003840154611348565b601f811161107c575b506020601f821160011461100e5781929394600092611003575b50508160011b916000199060031b1c19161760038301555b60808101519182516001600160401b038111610aaf576106a86004830154611348565b601f8111610fbc575b506020601f8211600114610f4e5781929394600092610f43575b50508160011b916000199060031b1c19161760048201555b60a08201519182516001600160401b038111610aaf576107066005840154611348565b601f8111610efc575b506020601f8211600114610e8e5781929394600092610e83575b50508160011b916000199060031b1c19161760058301555b60c08101519182516001600160401b038111610aaf576107646006830154611348565b601f8111610e3c575b506020601f8211600114610dce5781929394600092610dc3575b50508160011b916000199060031b1c19161760068201555b60e08201519182516001600160401b038111610aaf576107c26007840154611348565b601f8111610d7c575b506020601f8211600114610d0e5781929394600092610d03575b50508160011b916000199060031b1c19161760078301555b6101008101519182516001600160401b038111610aaf576108216008830154611348565b601f8111610cbc575b506020601f8211600114610c4e5781929394600092610c43575b50508160011b916000199060031b1c19161760088201555b6101208201519182516001600160401b038111610aaf576108806009840154611348565b601f8111610bfc575b506020601f8211600114610b8e5781929394600092610b83575b50508160011b916000199060031b1c19161760098301555b610140810151600a830155610160810151600b8301556101808101519182516001600160401b038111610aaf576108f5600c830154611348565b601f8111610b3c575b506020601f8211600114610ad05781929394600092610ac5575b50508160011b916000199060031b1c191617600c8201555b6101a08201518051906001600160401b038211610aaf57610954600d840154611348565b601f8111610a64575b50602090601f83116001146109f05791806101c09492600e946000926109e5575b50508160011b916000199060031b1c191617600d8201555b01910151151560ff801983541691161790557f0cfba914b5106da2fbba725502188ab817f680c8fe51c318c8bf6896a59f7fbd6109e060606080015160405191829133908361144d565b0390a1005b01519050868061097e565b90601f19831691600d850160005260206000209260005b818110610a4c5750926001928592600e966101c0989610610a33575b505050811b01600d820155610996565b015160001960f88460031b161c19169055868080610a23565b92936020600181928786015181550195019301610a07565b600d84016000526020600020601f840160051c81019160208510610aa5575b601f0160051c01905b818110610a99575061095d565b60008155600101610a8c565b9091508190610a83565b634e487b7160e01b600052604160045260246000fd5b015190508480610918565b601f19821690600c840160005260206000209160005b818110610b2457509583600195969710610b0b575b505050811b01600c820155610930565b015160001960f88460031b161c19169055848080610afb565b9192602060018192868b015181550194019201610ae6565b600c83016000526020600020601f830160051c810160208410610b7c575b601f830160051c82018110610b705750506108fe565b60008155600101610b5a565b5080610b5a565b0151905084806108a3565b6009840160005260206000209060005b601f1984168110610be45750600193949583601f19811610610bcb575b505050811b0160098301556108bb565b015160001960f88460031b161c19169055848080610bbb565b9091602060018192858a015181550193019101610b9e565b600984016000526020600020601f830160051c810160208410610c3c575b601f830160051c82018110610c30575050610889565b60008155600101610c1a565b5080610c1a565b015190508480610844565b6008830160005260206000209060005b601f1984168110610ca45750600193949583601f19811610610c8b575b505050811b01600882015561085c565b015160001960f88460031b161c19169055848080610c7b565b9091602060018192858a015181550193019101610c5e565b600883016000526020600020601f830160051c810160208410610cfc575b601f830160051c82018110610cf057505061082a565b60008155600101610cda565b5080610cda565b0151905084806107e5565b6007840160005260206000209060005b601f1984168110610d645750600193949583601f19811610610d4b575b505050811b0160078301556107fd565b015160001960f88460031b161c19169055848080610d3b565b9091602060018192858a015181550193019101610d1e565b600784016000526020600020601f830160051c810160208410610dbc575b601f830160051c82018110610db05750506107cb565b60008155600101610d9a565b5080610d9a565b015190508480610787565b6006830160005260206000209060005b601f1984168110610e245750600193949583601f19811610610e0b575b505050811b01600682015561079f565b015160001960f88460031b161c19169055848080610dfb565b9091602060018192858a015181550193019101610dde565b600683016000526020600020601f830160051c810160208410610e7c575b601f830160051c82018110610e7057505061076d565b60008155600101610e5a565b5080610e5a565b015190508480610729565b6005840160005260206000209060005b601f1984168110610ee45750600193949583601f19811610610ecb575b505050811b016005830155610741565b015160001960f88460031b161c19169055848080610ebb565b9091602060018192858a015181550193019101610e9e565b600584016000526020600020601f830160051c810160208410610f3c575b601f830160051c82018110610f3057505061070f565b60008155600101610f1a565b5080610f1a565b0151905084806106cb565b6004830160005260206000209060005b601f1984168110610fa45750600193949583601f19811610610f8b575b505050811b0160048201556106e3565b015160001960f88460031b161c19169055848080610f7b565b9091602060018192858a015181550193019101610f5e565b600483016000526020600020601f830160051c810160208410610ffc575b601f830160051c82018110610ff05750506106b1565b60008155600101610fda565b5080610fda565b01519050848061066d565b6003840160005260206000209060005b601f19841681106110645750600193949583601f1981161061104b575b505050811b016003830155610685565b015160001960f88460031b161c1916905584808061103b565b9091602060018192858a01518155019301910161101e565b600384016000526020600020601f830160051c8101602084106110bc575b601f830160051c820181106110b0575050610653565b6000815560010161109a565b508061109a565b01519050848061060f565b6002830160005260206000209060005b601f19841681106111245750600193949583601f1981161061110b575b505050811b016002820155610627565b015160001960f88460031b161c191690558480806110fb565b9091602060018192858a0151815501930191016110de565b600283016000526020600020601f830160051c81016020841061117c575b601f830160051c820181106111705750506105f5565b6000815560010161115a565b508061115a565b0151905084806105b1565b6001840160005260206000209060005b601f19841681106111e45750600193949583601f198116106111cb575b505050811b0160018301556105c9565b015160001960f88460031b161c191690558480806111bb565b9091602060018192858a01518155019301910161119e565b600184016000526020600020601f830160051c81016020841061123c575b601f830160051c82018110611230575050610597565b6000815560010161121a565b508061121a565b60405162461bcd60e51b815260206004820152601a60248201527f56656869636c6520616c726561647920726567697374657265640000000000006044820152606490fd5b90601f801991011681019081106001600160401b03821117610aaf57604052565b81601f8201121561021a578035906001600160401b038211610aaf57604051926112dd601f8401601f191660200185611288565b8284526020838301011161021a57816000926020809301838601378301015290565b60005b8381106113125750506000910152565b8181015183820152602001611302565b602061133b9181604051938285809451938492016112ff565b8101600081520301902090565b90600182811c92168015611378575b602083101461136257565b634e487b7160e01b600052602260045260246000fd5b91607f1691611357565b906040519182600082549261139684611348565b90818452600194858116908160001461140557506001146113c2575b50506113c092500383611288565b565b9093915060005260209081600020936000915b8183106113ed5750506113c0935082010138806113b2565b855488840185015294850194879450918301916113d5565b9150506113c094506020925060ff191682840152151560051b82010138806113b2565b90602091611441815180928185528580860191016112ff565b601f01601f1916010190565b90611465602091949394604084526040840190611428565b6001600160a01b0390941691015256fea2646970667358221220e539cd90c61478cab1edbb1e5db91c50b0886278d5820dd5e67993f0e1fb881c64736f6c63430008110033",
  "immutableReferences": {},
  "source": "// SPDX-License-Identifier: MIT\r\npragma solidity ^0.8.17;\r\n\r\ncontract VehicleRegistry {\r\n    struct Vehicle {\r\n        address ownerWallet;\r\n        string ownerName;\r\n        string fatherName;\r\n        string cnic;\r\n        string registrationNumber;\r\n        string engineNumber;\r\n        string chassisNumber;\r\n        string make;\r\n        string model;\r\n        string variant;\r\n        uint256 manufacturingYear;\r\n        uint256 registrationYear;\r\n        string vehicleType;\r\n        string fuelType;\r\n        bool isRegistered;\r\n    }\r\n    \r\n    // Input struct to avoid \"stack too deep\" error\r\n    struct VehicleInput {\r\n        string ownerName;\r\n        string fatherName;\r\n        string cnic;\r\n        string registrationNumber;\r\n        string engineNumber;\r\n        string chassisNumber;\r\n        string make;\r\n        string model;\r\n        string variant;\r\n        uint256 manufacturingYear;\r\n        uint256 registrationYear;\r\n        string vehicleType;\r\n        string fuelType;\r\n    }\r\n    \r\n    mapping(string => Vehicle) public vehicles;\r\n    \r\n    event VehicleRegistered(string registrationNumber, address ownerWallet);\r\n    event RegistrationAttempt(string registrationNumber, address sender);\r\n    \r\n    function registerVehicle(VehicleInput memory input) public {\r\n        // Log attempt for debugging\r\n        emit RegistrationAttempt(input.registrationNumber, msg.sender);\r\n        \r\n        // Only check if already registered\r\n        require(!vehicles[input.registrationNumber].isRegistered, \"Vehicle already registered\");\r\n        \r\n        // Create vehicle without additional validations\r\n        vehicles[input.registrationNumber] = Vehicle({\r\n            ownerWallet: msg.sender,\r\n            ownerName: input.ownerName,\r\n            fatherName: input.fatherName,\r\n            cnic: input.cnic,\r\n            registrationNumber: input.registrationNumber,\r\n            engineNumber: input.engineNumber,\r\n            chassisNumber: input.chassisNumber,\r\n            make: input.make,\r\n            model: input.model,\r\n            variant: input.variant,\r\n            manufacturingYear: input.manufacturingYear,\r\n            registrationYear: input.registrationYear,\r\n            vehicleType: input.vehicleType,\r\n            fuelType: input.fuelType,\r\n            isRegistered: true\r\n        });\r\n        \r\n        emit VehicleRegistered(input.registrationNumber, msg.sender);\r\n    }\r\n}",
  "sourcePath": "F:\\TaxTron-FYP\\taxtron\\backend\\contracts\\VehicleRegistry.sol",
  "compiler": {
    "name": "solc",
    "version": "0.8.17+commit.8df45f5f.Emscripten.clang"
  },
  "schemaVersion": "3.4.16",
  "updatedAt": "2025-03-30T18:24:35.424Z",
  "networkType": "ethereum",
  "devdoc": {
    "kind": "dev",
    "methods": {},
    "version": 1
  },
  "userdoc": {
    "kind": "user",
    "methods": {},
    "version": 1
  }
}