{
  "contractName": "VehicleNFT",
  "abi": [
    {
      "inputs": [
        {
          "internalType": "address",
          "name": "initialOwner",
          "type": "address"
        }
      ],
      "stateMutability": "nonpayable",
      "type": "constructor"
    },
    {
      "inputs": [
        {
          "internalType": "address",
          "name": "sender",
          "type": "address"
        },
        {
          "internalType": "uint256",
          "name": "tokenId",
          "type": "uint256"
        },
        {
          "internalType": "address",
          "name": "owner",
          "type": "address"
        }
      ],
      "name": "ERC721IncorrectOwner",
      "type": "error"
    },
    {
      "inputs": [
        {
          "internalType": "address",
          "name": "operator",
          "type": "address"
        },
        {
          "internalType": "uint256",
          "name": "tokenId",
          "type": "uint256"
        }
      ],
      "name": "ERC721InsufficientApproval",
      "type": "error"
    },
    {
      "inputs": [
        {
          "internalType": "address",
          "name": "approver",
          "type": "address"
        }
      ],
      "name": "ERC721InvalidApprover",
      "type": "error"
    },
    {
      "inputs": [
        {
          "internalType": "address",
          "name": "operator",
          "type": "address"
        }
      ],
      "name": "ERC721InvalidOperator",
      "type": "error"
    },
    {
      "inputs": [
        {
          "internalType": "address",
          "name": "owner",
          "type": "address"
        }
      ],
      "name": "ERC721InvalidOwner",
      "type": "error"
    },
    {
      "inputs": [
        {
          "internalType": "address",
          "name": "receiver",
          "type": "address"
        }
      ],
      "name": "ERC721InvalidReceiver",
      "type": "error"
    },
    {
      "inputs": [
        {
          "internalType": "address",
          "name": "sender",
          "type": "address"
        }
      ],
      "name": "ERC721InvalidSender",
      "type": "error"
    },
    {
      "inputs": [
        {
          "internalType": "uint256",
          "name": "tokenId",
          "type": "uint256"
        }
      ],
      "name": "ERC721NonexistentToken",
      "type": "error"
    },
    {
      "inputs": [
        {
          "internalType": "address",
          "name": "owner",
          "type": "address"
        }
      ],
      "name": "OwnableInvalidOwner",
      "type": "error"
    },
    {
      "inputs": [
        {
          "internalType": "address",
          "name": "account",
          "type": "address"
        }
      ],
      "name": "OwnableUnauthorizedAccount",
      "type": "error"
    },
    {
      "anonymous": false,
      "inputs": [
        {
          "indexed": true,
          "internalType": "address",
          "name": "owner",
          "type": "address"
        },
        {
          "indexed": true,
          "internalType": "address",
          "name": "approved",
          "type": "address"
        },
        {
          "indexed": true,
          "internalType": "uint256",
          "name": "tokenId",
          "type": "uint256"
        }
      ],
      "name": "Approval",
      "type": "event"
    },
    {
      "anonymous": false,
      "inputs": [
        {
          "indexed": true,
          "internalType": "address",
          "name": "owner",
          "type": "address"
        },
        {
          "indexed": true,
          "internalType": "address",
          "name": "operator",
          "type": "address"
        },
        {
          "indexed": false,
          "internalType": "bool",
          "name": "approved",
          "type": "bool"
        }
      ],
      "name": "ApprovalForAll",
      "type": "event"
    },
    {
      "anonymous": false,
      "inputs": [
        {
          "indexed": false,
          "internalType": "uint256",
          "name": "_fromTokenId",
          "type": "uint256"
        },
        {
          "indexed": false,
          "internalType": "uint256",
          "name": "_toTokenId",
          "type": "uint256"
        }
      ],
      "name": "BatchMetadataUpdate",
      "type": "event"
    },
    {
      "anonymous": false,
      "inputs": [
        {
          "indexed": false,
          "internalType": "uint256",
          "name": "_tokenId",
          "type": "uint256"
        }
      ],
      "name": "MetadataUpdate",
      "type": "event"
    },
    {
      "anonymous": false,
      "inputs": [
        {
          "indexed": true,
          "internalType": "address",
          "name": "previousOwner",
          "type": "address"
        },
        {
          "indexed": true,
          "internalType": "address",
          "name": "newOwner",
          "type": "address"
        }
      ],
      "name": "OwnershipTransferred",
      "type": "event"
    },
    {
      "anonymous": false,
      "inputs": [
        {
          "indexed": true,
          "internalType": "address",
          "name": "from",
          "type": "address"
        },
        {
          "indexed": true,
          "internalType": "address",
          "name": "to",
          "type": "address"
        },
        {
          "indexed": true,
          "internalType": "uint256",
          "name": "tokenId",
          "type": "uint256"
        }
      ],
      "name": "Transfer",
      "type": "event"
    },
    {
      "anonymous": false,
      "inputs": [
        {
          "indexed": true,
          "internalType": "uint256",
          "name": "tokenId",
          "type": "uint256"
        },
        {
          "indexed": true,
          "internalType": "string",
          "name": "inspectionId",
          "type": "string"
        },
        {
          "indexed": true,
          "internalType": "address",
          "name": "owner",
          "type": "address"
        },
        {
          "indexed": false,
          "internalType": "string",
          "name": "tokenURI",
          "type": "string"
        },
        {
          "indexed": false,
          "internalType": "string",
          "name": "make",
          "type": "string"
        },
        {
          "indexed": false,
          "internalType": "string",
          "name": "model",
          "type": "string"
        },
        {
          "indexed": false,
          "internalType": "string",
          "name": "registrationNumber",
          "type": "string"
        }
      ],
      "name": "VehicleNFTMinted",
      "type": "event"
    },
    {
      "inputs": [
        {
          "internalType": "address",
          "name": "to",
          "type": "address"
        },
        {
          "internalType": "uint256",
          "name": "tokenId",
          "type": "uint256"
        }
      ],
      "name": "approve",
      "outputs": [],
      "stateMutability": "nonpayable",
      "type": "function"
    },
    {
      "inputs": [
        {
          "internalType": "address",
          "name": "owner",
          "type": "address"
        }
      ],
      "name": "balanceOf",
      "outputs": [
        {
          "internalType": "uint256",
          "name": "",
          "type": "uint256"
        }
      ],
      "stateMutability": "view",
      "type": "function"
    },
    {
      "inputs": [
        {
          "internalType": "uint256",
          "name": "tokenId",
          "type": "uint256"
        }
      ],
      "name": "getApproved",
      "outputs": [
        {
          "internalType": "address",
          "name": "",
          "type": "address"
        }
      ],
      "stateMutability": "view",
      "type": "function"
    },
    {
      "inputs": [
        {
          "internalType": "string",
          "name": "",
          "type": "string"
        }
      ],
      "name": "inspectionToTokenId",
      "outputs": [
        {
          "internalType": "uint256",
          "name": "",
          "type": "uint256"
        }
      ],
      "stateMutability": "view",
      "type": "function"
    },
    {
      "inputs": [
        {
          "internalType": "address",
          "name": "owner",
          "type": "address"
        },
        {
          "internalType": "address",
          "name": "operator",
          "type": "address"
        }
      ],
      "name": "isApprovedForAll",
      "outputs": [
        {
          "internalType": "bool",
          "name": "",
          "type": "bool"
        }
      ],
      "stateMutability": "view",
      "type": "function"
    },
    {
      "inputs": [],
      "name": "name",
      "outputs": [
        {
          "internalType": "string",
          "name": "",
          "type": "string"
        }
      ],
      "stateMutability": "view",
      "type": "function"
    },
    {
      "inputs": [
        {
          "internalType": "string",
          "name": "",
          "type": "string"
        }
      ],
      "name": "nftMinted",
      "outputs": [
        {
          "internalType": "bool",
          "name": "",
          "type": "bool"
        }
      ],
      "stateMutability": "view",
      "type": "function"
    },
    {
      "inputs": [],
      "name": "owner",
      "outputs": [
        {
          "internalType": "address",
          "name": "",
          "type": "address"
        }
      ],
      "stateMutability": "view",
      "type": "function"
    },
    {
      "inputs": [
        {
          "internalType": "uint256",
          "name": "tokenId",
          "type": "uint256"
        }
      ],
      "name": "ownerOf",
      "outputs": [
        {
          "internalType": "address",
          "name": "",
          "type": "address"
        }
      ],
      "stateMutability": "view",
      "type": "function"
    },
    {
      "inputs": [],
      "name": "renounceOwnership",
      "outputs": [],
      "stateMutability": "nonpayable",
      "type": "function"
    },
    {
      "inputs": [
        {
          "internalType": "address",
          "name": "from",
          "type": "address"
        },
        {
          "internalType": "address",
          "name": "to",
          "type": "address"
        },
        {
          "internalType": "uint256",
          "name": "tokenId",
          "type": "uint256"
        }
      ],
      "name": "safeTransferFrom",
      "outputs": [],
      "stateMutability": "nonpayable",
      "type": "function"
    },
    {
      "inputs": [
        {
          "internalType": "address",
          "name": "from",
          "type": "address"
        },
        {
          "internalType": "address",
          "name": "to",
          "type": "address"
        },
        {
          "internalType": "uint256",
          "name": "tokenId",
          "type": "uint256"
        },
        {
          "internalType": "bytes",
          "name": "data",
          "type": "bytes"
        }
      ],
      "name": "safeTransferFrom",
      "outputs": [],
      "stateMutability": "nonpayable",
      "type": "function"
    },
    {
      "inputs": [
        {
          "internalType": "address",
          "name": "operator",
          "type": "address"
        },
        {
          "internalType": "bool",
          "name": "approved",
          "type": "bool"
        }
      ],
      "name": "setApprovalForAll",
      "outputs": [],
      "stateMutability": "nonpayable",
      "type": "function"
    },
    {
      "inputs": [],
      "name": "symbol",
      "outputs": [
        {
          "internalType": "string",
          "name": "",
          "type": "string"
        }
      ],
      "stateMutability": "view",
      "type": "function"
    },
    {
      "inputs": [
        {
          "internalType": "uint256",
          "name": "",
          "type": "uint256"
        }
      ],
      "name": "tokenIdToInspection",
      "outputs": [
        {
          "internalType": "string",
          "name": "",
          "type": "string"
        }
      ],
      "stateMutability": "view",
      "type": "function"
    },
    {
      "inputs": [
        {
          "internalType": "address",
          "name": "from",
          "type": "address"
        },
        {
          "internalType": "address",
          "name": "to",
          "type": "address"
        },
        {
          "internalType": "uint256",
          "name": "tokenId",
          "type": "uint256"
        }
      ],
      "name": "transferFrom",
      "outputs": [],
      "stateMutability": "nonpayable",
      "type": "function"
    },
    {
      "inputs": [
        {
          "internalType": "address",
          "name": "newOwner",
          "type": "address"
        }
      ],
      "name": "transferOwnership",
      "outputs": [],
      "stateMutability": "nonpayable",
      "type": "function"
    },
    {
      "inputs": [
        {
          "internalType": "string",
          "name": "",
          "type": "string"
        }
      ],
      "name": "vehicleInfo",
      "outputs": [
        {
          "internalType": "string",
          "name": "make",
          "type": "string"
        },
        {
          "internalType": "string",
          "name": "model",
          "type": "string"
        },
        {
          "internalType": "string",
          "name": "year",
          "type": "string"
        },
        {
          "internalType": "string",
          "name": "vehicleType",
          "type": "string"
        },
        {
          "internalType": "string",
          "name": "registrationNumber",
          "type": "string"
        },
        {
          "internalType": "address",
          "name": "mintedTo",
          "type": "address"
        },
        {
          "internalType": "uint256",
          "name": "mintTimestamp",
          "type": "uint256"
        }
      ],
      "stateMutability": "view",
      "type": "function"
    },
    {
      "inputs": [
        {
          "internalType": "string",
          "name": "inspectionId",
          "type": "string"
        },
        {
          "internalType": "address",
          "name": "to",
          "type": "address"
        },
        {
          "internalType": "string",
          "name": "_tokenURI",
          "type": "string"
        }
      ],
      "name": "mintVehicleNFT",
      "outputs": [
        {
          "internalType": "uint256",
          "name": "",
          "type": "uint256"
        }
      ],
      "stateMutability": "nonpayable",
      "type": "function"
    },
    {
      "inputs": [
        {
          "internalType": "string",
          "name": "inspectionId",
          "type": "string"
        },
        {
          "internalType": "address",
          "name": "to",
          "type": "address"
        },
        {
          "internalType": "string",
          "name": "_tokenURI",
          "type": "string"
        },
        {
          "internalType": "string",
          "name": "make",
          "type": "string"
        },
        {
          "internalType": "string",
          "name": "model",
          "type": "string"
        },
        {
          "internalType": "string",
          "name": "year",
          "type": "string"
        },
        {
          "internalType": "string",
          "name": "vehicleType",
          "type": "string"
        },
        {
          "internalType": "string",
          "name": "registrationNumber",
          "type": "string"
        }
      ],
      "name": "mintVehicleNFT",
      "outputs": [
        {
          "internalType": "uint256",
          "name": "",
          "type": "uint256"
        }
      ],
      "stateMutability": "nonpayable",
      "type": "function"
    },
    {
      "inputs": [
        {
          "internalType": "string",
          "name": "inspectionId",
          "type": "string"
        }
      ],
      "name": "getTokenIdByInspection",
      "outputs": [
        {
          "internalType": "uint256",
          "name": "",
          "type": "uint256"
        }
      ],
      "stateMutability": "view",
      "type": "function"
    },
    {
      "inputs": [
        {
          "internalType": "uint256",
          "name": "tokenId",
          "type": "uint256"
        }
      ],
      "name": "getInspectionByTokenId",
      "outputs": [
        {
          "internalType": "string",
          "name": "",
          "type": "string"
        }
      ],
      "stateMutability": "view",
      "type": "function"
    },
    {
      "inputs": [
        {
          "internalType": "string",
          "name": "inspectionId",
          "type": "string"
        }
      ],
      "name": "nftExistsForInspection",
      "outputs": [
        {
          "internalType": "bool",
          "name": "",
          "type": "bool"
        }
      ],
      "stateMutability": "view",
      "type": "function"
    },
    {
      "inputs": [
        {
          "internalType": "string",
          "name": "inspectionId",
          "type": "string"
        }
      ],
      "name": "getVehicleInfo",
      "outputs": [
        {
          "internalType": "string",
          "name": "make",
          "type": "string"
        },
        {
          "internalType": "string",
          "name": "model",
          "type": "string"
        },
        {
          "internalType": "string",
          "name": "year",
          "type": "string"
        },
        {
          "internalType": "string",
          "name": "vehicleType",
          "type": "string"
        },
        {
          "internalType": "string",
          "name": "registrationNumber",
          "type": "string"
        },
        {
          "internalType": "address",
          "name": "mintedTo",
          "type": "address"
        },
        {
          "internalType": "uint256",
          "name": "mintTimestamp",
          "type": "uint256"
        }
      ],
      "stateMutability": "view",
      "type": "function"
    },
    {
      "inputs": [
        {
          "internalType": "uint256",
          "name": "tokenId",
          "type": "uint256"
        }
      ],
      "name": "getVehicleDetailsByTokenId",
      "outputs": [
        {
          "internalType": "string",
          "name": "make",
          "type": "string"
        },
        {
          "internalType": "string",
          "name": "model",
          "type": "string"
        },
        {
          "internalType": "string",
          "name": "year",
          "type": "string"
        },
        {
          "internalType": "string",
          "name": "vehicleType",
          "type": "string"
        },
        {
          "internalType": "string",
          "name": "registrationNumber",
          "type": "string"
        },
        {
          "internalType": "string",
          "name": "inspectionId",
          "type": "string"
        },
        {
          "internalType": "address",
          "name": "mintedTo",
          "type": "address"
        },
        {
          "internalType": "uint256",
          "name": "mintTimestamp",
          "type": "uint256"
        }
      ],
      "stateMutability": "view",
      "type": "function"
    },
    {
      "inputs": [],
      "name": "totalSupply",
      "outputs": [
        {
          "internalType": "uint256",
          "name": "",
          "type": "uint256"
        }
      ],
      "stateMutability": "view",
      "type": "function"
    },
    {
      "inputs": [
        {
          "internalType": "string",
          "name": "inspectionId",
          "type": "string"
        },
        {
          "internalType": "address",
          "name": "to",
          "type": "address"
        },
        {
          "internalType": "string",
          "name": "_tokenURI",
          "type": "string"
        },
        {
          "internalType": "string",
          "name": "make",
          "type": "string"
        },
        {
          "internalType": "string",
          "name": "model",
          "type": "string"
        },
        {
          "internalType": "string",
          "name": "year",
          "type": "string"
        },
        {
          "internalType": "string",
          "name": "vehicleType",
          "type": "string"
        },
        {
          "internalType": "string",
          "name": "registrationNumber",
          "type": "string"
        }
      ],
      "name": "adminMintNFT",
      "outputs": [
        {
          "internalType": "uint256",
          "name": "",
          "type": "uint256"
        }
      ],
      "stateMutability": "nonpayable",
      "type": "function"
    },
    {
      "inputs": [
        {
          "internalType": "uint256",
          "name": "tokenId",
          "type": "uint256"
        }
      ],
      "name": "burnNFT",
      "outputs": [],
      "stateMutability": "nonpayable",
      "type": "function"
    },
    {
      "inputs": [
        {
          "internalType": "uint256",
          "name": "tokenId",
          "type": "uint256"
        }
      ],
      "name": "tokenURI",
      "outputs": [
        {
          "internalType": "string",
          "name": "",
          "type": "string"
        }
      ],
      "stateMutability": "view",
      "type": "function"
    },
    {
      "inputs": [
        {
          "internalType": "bytes4",
          "name": "interfaceId",
          "type": "bytes4"
        }
      ],
      "name": "supportsInterface",
      "outputs": [
        {
          "internalType": "bool",
          "name": "",
          "type": "bool"
        }
      ],
      "stateMutability": "view",
      "type": "function"
    }
  ],
  "bytecode": "0x608034620003c457601f906001600160401b03601f1962002892388190038581018316850184811186821017620003b057859282916040528339602094859181010312620003c457516001600160a01b03948582169391849003620003c45762000068620003c8565b94601786527f56656869636c65204365727469666963617465204e4654000000000000000000818701526200009c620003c8565b9060058252641590d3919560da1b81830152865194848611620003b0575f958654986001998a81811c91168015620003a5575b8582101462000391579081878493116200033e575b508490878311600114620002de578992620002d2575b50505f19600383901b1c191690891b1786555b8251948511620002be5787548881811c91168015620002b3575b838210146200029f5790818587969594931162000246575b5081938511600114620001e25750508492620001d6575b50505f19600383901b1c191690841b1783555b8115620001be57600780546001600160a01b0319811684179091556040519416907f8be0079c531659141344cd1fd0a4f28419497f9722a3daafe3b4186f6b6457e09080a36008556124a99081620003e98239f35b60249060405190631e4fbdf760e01b82526004820152fd5b015190505f8062000156565b889593929193168587528387209387905b8282106200022c575050841162000213575b505050811b01835562000169565b01515f1960f88460031b161c191690555f808062000205565b8484015186558a97909501949384019390810190620001f3565b9091929394508887528287208580880160051c82019285891062000295575b9188978c9297969594930160051c01915b828110620002865750506200013f565b8981558897508b910162000276565b9250819262000265565b634e487b7160e01b87526022600452602487fd5b90607f169062000127565b634e487b7160e01b86526041600452602486fd5b015190505f80620000fa565b90848c9416918a8052868b20928b5b888282106200032757505084116200030e575b505050811b0186556200010d565b01515f1960f88460031b161c191690555f808062000300565b8385015186558f97909501949384019301620002ed565b9091508880528489208780850160051c82019287861062000387575b918d91869594930160051c01915b82811062000378575050620000e4565b8b81558594508d910162000368565b925081926200035a565b634e487b7160e01b89526022600452602489fd5b90607f1690620000cf565b634e487b7160e01b5f52604160045260245ffd5b5f80fd5b60408051919082016001600160401b03811183821017620003b05760405256fe608060409080825260049081361015610016575f80fd5b5f90813560e01c90816301ffc9a714610fb55750806306fdde0314610f0d578063081812fc14610ed0578063089fb0ac14610e31578063095ea7b314610d5557806318160ddd14610d1757806323b872dd14610cff5780632890e0d714610b0b578063317d70f114610abf57806342842e0e14610a905780636352211e14610a5e57806370a0823114610a08578063715018a6146109ab5780637c249495146105e75780638da5cb5b1461098257806395d89b411461089f578063a22cb46514610802578063a3f2a14d146107b7578063a5ec48021461078a578063ab32c50814610687578063b37a6d1e14610649578063b8859a44146105e7578063b88d4fde14610579578063c02d2be4146104c8578063c87b56dd14610471578063d01f3bdf14610445578063d99f47f2146103bd578063e985e9c51461036f578063f2fde38b146102da5763f5348e711461016c575f80fd5b346102d757602092836003193601126102d357823580835260028552818320546001600160a01b0393839290916101a690861615156123e8565b8152600a8652206101b690611197565b8151858183518181848701916101cb9261103b565b8101600c815203019020928251926101e284611081565b6101eb85611197565b84526101f960018601611197565b8488019081529561020c60028701611197565b8583019081529161021f60038801611197565b9160608701928352870161023290611197565b93846080880152600588015416968760a088015260060154958660c082015251975192519151928151998a99610100808c528b0161026f9161105c565b908a8203908b01526102809161105c565b90888203908901526102919161105c565b86810360608801526102a29161105c565b85810360808701526102b39161105c565b84810360a08601526102c49161105c565b9160c084015260e08301520390f35b5080fd5b80fd5b5091903461036b57602036600319011261036b576102f66112ac565b906102ff6113d7565b6001600160a01b03918216928315610355575050600754826bffffffffffffffffffffffff60a01b821617600755167f8be0079c531659141344cd1fd0a4f28419497f9722a3daafe3b4186f6b6457e08380a380f35b51631e4fbdf760e01b8152908101849052602490fd5b8280fd5b5082346102d357806003193601126102d35760ff8160209361038f6112ac565b6103976112c2565b6001600160a01b0391821683526005875283832091168252855220549151911615158152f35b508290346102d75760203660031901126102d7578235906001600160401b0382116102d7575060206103f6819461043393369101611141565b83519061042360ff82519385818186019661041281838a61103b565b8101600b8152030190205416612391565b845193849283925192839161103b565b81016009815203019020549051908152f35b5082346102d35760209061046a61045b3661130d565b9695909594919493929361173a565b9051908152f35b5082346102d35760203660031901126102d3576104c492356104928161159e565b50825260066020526104a5818320611197565b9181516104b1816110b0565b525191829160208352602083019061105c565b0390f35b5091903461036b57606036600319011261036b576001600160401b038135818111610575576104fa9036908401611141565b916105036112c2565b91604435908111610571579161052361046a949260209794369101611141565b855161052e816110b0565b84815286519161053d836110b0565b85835287519361054c856110b0565b86855288519561055b876110b0565b87875289519761056a896110b0565b885261173a565b8580fd5b8480fd5b5090346102d35760803660031901126102d3576105946112ac565b61059c6112c2565b604435906064356001600160401b0381116105715736602382011215610571576105e4948160246105d293369301359101611107565b926105de838383611403565b336115d8565b80f35b508290346102d75760203660031901126102d7578235906001600160401b0382116102d757506106346020610622819560ff94369101611141565b8185519382858094519384920161103b565b8101600b815203019020541690519015158152f35b5091903461036b57602036600319011261036b57816104c49361067492358152600a60205220611197565b905191829160208352602083019061105c565b50346102d75760203660031901126102d7578135906001600160401b0382116102d757506106ec60206106c06104c49336908601611141565b8551906106dc60ff82519385818186019661041281838a61103b565b865193849283925192839161103b565b8101600c81520301902083519061070282611081565b61070b81611197565b825261071960018201611197565b936020830194855261072d60028301611197565b9580840196875261075261074360038501611197565b92606086019384528401611197565b91826080860152600660018060a01b03600586015416948560a08801520154948560c082015251965197519051915197889788611238565b5082346102d35760209061046a6107a03661130d565b966107b29691969592959493946113d7565b61173a565b508290346102d75760203660031901126102d7578235906001600160401b0382116102d7575060206107f0819461043393369101611141565b8184519382858094519384920161103b565b50913461036b578060031936011261036b5761081c6112ac565b9060243591821515809303610575576001600160a01b031692831561088a5750338452600560205280842083855260205280842060ff1981541660ff8416179055519081527f17307eab39ab6107e8899845ad3d59bd9653f200f220920489ca2b5937696c3160203392a380f35b836024925191630b61174360e31b8352820152fd5b5082346102d357816003193601126102d3578051908260018054916108c38361115f565b8086529282811690811561095a57506001146108fe575b5050506108ec826104c49403836110cb565b5191829160208352602083019061105c565b94508085527fb10e2d527612073b26eecdfd717e6a320cf44b4afac2b0732d9fcbe2b7fa0cf65b828610610942575050506108ec8260206104c495820101946108da565b80546020878701810191909152909501948101610925565b6104c49750869350602092506108ec94915060ff191682840152151560051b820101946108da565b5082346102d357816003193601126102d35760075490516001600160a01b039091168152602090f35b50346102d757806003193601126102d7576109c46113d7565b600780546001600160a01b0319811690915581906001600160a01b03167f8be0079c531659141344cd1fd0a4f28419497f9722a3daafe3b4186f6b6457e08280a380f35b508290346102d75760203660031901126102d7576001600160a01b03610a2c6112ac565b16928315610a495750806020938392526003845220549051908152f35b91516322718ad960e21b815291820152602490fd5b508290346102d75760203660031901126102d75750610a7f6020923561159e565b90516001600160a01b039091168152f35b5082346102d3576105e490610aa4366112d8565b91925192610ab1846110b0565b8584526105de838383611403565b5091903461036b57602036600319011261036b57358083526002602052818320546104c493610674928492610afe906001600160a01b031615156123e8565b8152600a60205220611197565b50913461036b5760209081600319360112610cfb578235918285526002815260018060a01b0380838720541633148015610cee575b15610cb257858491828252600a8452816006610bc986610b61898520611197565b89519085815192848181850195610b7981838961103b565b8101600981520301902055888652600a8352610b968b872061242b565b8a5183818351610ba781838861103b565b8101600b81520301902060ff1981541690558a5193849283925192839161103b565b8101600c815203019020610bdc8161242b565b610be86001820161242b565b610bf46002820161242b565b610c006003820161242b565b610c0b8a820161242b565b826005820155015582825260028452848220541660028115948515610c81575b8484525284822080546001600160a01b03191690557fddf252ad1be2c89b69c2b068fc378daa952ba7f163c4a11628f55a4df523b3ef8280a4610c6c578380f35b51637e27328960e01b81529182015260249150fd5b5f85815260046020526040902080546001600160a01b03191690558284526003815286842080545f19019055610c2b565b825162461bcd60e51b815280860183905260166024820152752737ba1030baba3437b934bd32b2103a3790313ab93760511b6044820152606490fd5b5033816007541614610b40565b8380fd5b50346102d7576105e4610d11366112d8565b91611403565b5082346102d357816003193601126102d3576008545f19810192908311610d42576020838351908152f35b634e487b7160e01b815260118452602490fd5b50913461036b578060031936011261036b57610d6f6112ac565b91602435610d7c8161159e565b33151580610e1e575b80610df5575b610ddf576001600160a01b039485169482918691167f8c5be1e5ebec7d5bd14f71427d1e84f3dd0314c0f7b2291e5b200ac8c7c3b9258880a48452602052822080546001600160a01b031916909117905580f35b835163a9fbf51f60e01b81523381850152602490fd5b506001600160a01b03811686526005602090815284872033885290528386205460ff1615610d8b565b506001600160a01b038116331415610d85565b508290346102d75760203660031901126102d7578235906001600160401b0382116102d75750610e6c60206106226104c49336908701611141565b8101600c81520301902091610e8083611197565b92610e8d60018201611197565b94610e9a60028301611197565b90610eb2610eaa60038501611197565b918401611197565b91600660018060a01b03600586015416940154945197889788611238565b5091903461036b57602036600319011261036b57918260209335610ef38161159e565b50825283528190205490516001600160a01b039091168152f35b5082346102d357816003193601126102d357805190828054610f2e8161115f565b8085529160019180831690811561095a5750600114610f59575050506108ec826104c49403836110cb565b80809650527f290decd9548b62a8d60345a988386fc84ba6bc95484008f6362f93160ef3e5635b828610610f9d575050506108ec8260206104c495820101946108da565b80546020878701810191909152909501948101610f80565b9050823461036b57602036600319011261036b573563ffffffff60e01b811680910361036b5760209250632483248360e11b8114908115610ff8575b5015158152f35b6380ac58cd60e01b81149150811561102a575b8115611019575b5083610ff1565b6301ffc9a760e01b14905083611012565b635b5e139f60e01b8114915061100b565b5f5b83811061104c5750505f910152565b818101518382015260200161103d565b906020916110758151809281855285808601910161103b565b601f01601f1916010190565b60e081019081106001600160401b0382111761109c57604052565b634e487b7160e01b5f52604160045260245ffd5b602081019081106001600160401b0382111761109c57604052565b90601f801991011681019081106001600160401b0382111761109c57604052565b6001600160401b03811161109c57601f01601f191660200190565b929192611113826110ec565b9161112160405193846110cb565b82948184528183011161113d578281602093845f960137010152565b5f80fd5b9080601f8301121561113d5781602061115c93359101611107565b90565b90600182811c9216801561118d575b602083101461117957565b634e487b7160e01b5f52602260045260245ffd5b91607f169161116e565b9060405191825f8254926111aa8461115f565b9081845260019485811690815f1461121557506001146111d5575b50506111d3925003836110cb565b565b909391505f52602090815f20935f915b8183106111fd5750506111d393508201015f806111c5565b855488840185015294850194879450918301916111e5565b9150506111d394506020925060ff191682840152151560051b8201015f806111c5565b9361127c6112989461126e60c0989561126061128a969d9c9b9d60e08b5260e08b019061105c565b9089820360208b015261105c565b90878203604089015261105c565b90858203606087015261105c565b90838203608085015261105c565b6001600160a01b0390951660a08201520152565b600435906001600160a01b038216820361113d57565b602435906001600160a01b038216820361113d57565b606090600319011261113d576001600160a01b0390600435828116810361113d5791602435908116810361113d579060443590565b61010060031982011261113d576004916001600160401b0390833582811161113d578361133b918601611141565b936024356001600160a01b038116810361113d579360443584811161113d5781611366918401611141565b9360643581811161113d578261137d918501611141565b9360843582811161113d5783611394918601611141565b9360a43583811161113d57846113ab918301611141565b9360c43584811161113d57816113c2918401611141565b9360e43590811161113d5761115c9201611141565b6007546001600160a01b031633036113eb57565b60405163118cdaa760e01b8152336004820152602490fd5b6001600160a01b039182169290918315611586575f928284528260209560028752604096848888205416968791331515806114f0575b509060027fddf252ad1be2c89b69c2b068fc378daa952ba7f163c4a11628f55a4df523b3ef92846114bf575b858352600381528b8320805460010190558683525289812080546001600160a01b0319168517905580a4169283830361149e5750505050565b6064945051926364283d7b60e01b8452600484015260248301526044820152fd5b5f87815260046020526040902080546001600160a01b0319169055848352600381528b832080545f19019055611465565b91939450915080611545575b1561150c5785929187915f611439565b878688611529576024915190637e27328960e01b82526004820152fd5b604491519063177e802f60e01b82523360048301526024820152fd5b50338714801561156a575b806114fc57508582526004815233858984205416146114fc565b5086825260058152878220338352815260ff8883205416611550565b604051633250574960e11b81525f6004820152602490fd5b5f818152600260205260409020546001600160a01b03169081156115c0575090565b60249060405190637e27328960e01b82526004820152fd5b90939192833b6115ea575b5050505050565b604051630a85bd0160e11b8082526001600160a01b03938416600483015295831660248201526044810191909152608060648201529492169260209291859061163790608483019061105c565b039483815f978189895af18691816116e0575b506116aa575050503d5f146116a1573d611663816110ec565b9061167160405192836110cb565b81528093823d92013e5b8251928361169c57604051633250574960e11b815260048101849052602490fd5b019050fd5b6060925061167b565b919450915063ffffffff60e01b16036116c857505f808080806115e3565b60249060405190633250574960e11b82526004820152fd5b9091508481813d831161171d575b6116f881836110cb565b8101031261171957516001600160e01b03198116810361171957905f61164a565b8680fd5b503d6116ee565b81811061172f575050565b5f8155600101611724565b96959694939091929480511561234c576001600160a01b038316156123155760ff6040516020818451611770818385890161103b565b8101600b81520301902054166122c457600854975f1989146122b0576001890160085560405161179f816110b0565b5f8082528a8152600260205260409020546001600160a01b0316801515908b908261227d575b6001600160a01b0388165f818152600360209081526040808320805460010190558583526002909152812080546001600160a01b031916831790559091907fddf252ad1be2c89b69c2b068fc378daa952ba7f163c4a11628f55a4df523b3ef9080a461226557843b612118575b50885f52600660205260405f2085516001600160401b03811161109c57611859825461115f565b601f81116120e8575b50806020601f8211600114612085575f9161207a575b508160011b915f199060031b1c19161790555b7ff8e1a15aba9398e019f0b49df1a4fde98ee17ae345cb5f6b5e2c27f5033e8ce760206040518b8152a18860405160208185516118cb8183858a0161103b565b8101600981520301902055885f52600a60205260405f2082516001600160401b03811161109c576118fc825461115f565b601f811161204a575b50806020601f8211600114611fe7575f91611fdc575b508160011b915f199060031b1c19161790555b6040516020818451611943818385890161103b565b8101600b815203019020600160ff198254161790556040519561196587611081565b8787528360208801526040870152606086015286608086015260018060a01b03831660a08601524260c086015260405160208183516119a7818385880161103b565b8101600c81520301902085518051906001600160401b03821161109c5781906119d0845461115f565b601f8111611fac575b50602090601f8311600114611f44575f92611f39575b50508160011b915f199060031b1c19161781555b60208601518051906001600160401b03821161109c578190611a28600185015461115f565b601f8111611f06575b50602090601f8311600114611e98575f92611e8d575b50508160011b915f199060031b1c19161760018201555b60408601518051906001600160401b03821161109c578190611a83600285015461115f565b601f8111611e5a575b50602090601f8311600114611dec575f92611de1575b50508160011b915f199060031b1c19161760028201555b60608601518051906001600160401b03821161109c578190611ade600385015461115f565b601f8111611dae575b50602090601f8311600114611d40575f92611d35575b50508160011b915f199060031b1c19161760038201555b60808601519586516001600160401b03811161109c578a97611b39600485015461115f565b601f8111611cf7575b50602090601f8311600114611c4d57611c3c95611c079895600660c0611c2397877f900e2494d9e8ea8c594277b19fd4e792c0b2f20704db2852aa7911515a9438879e9c98611c1598611bed985f92611c42575b50508160011b915f199060031b1c19161760048501555b6005840160018060a01b0360a0830151166bffffffffffffffffffffffff60a01b825416179055015191015560206040519282848094519384920161103b565b81010390209960405197889760808952608089019061105c565b90878203602089015261105c565b90858203604087015261105c565b83810360608501526001600160a01b039091169761105c565b0390a490565b015190505f80611b96565b90600485015f5260205f20915f5b601f1985168110611cdc575095611c079895600660c0611c23976001887f900e2494d9e8ea8c594277b19fd4e792c0b2f20704db2852aa7911515a9438879f9d9998611bed98611c3c9e611c159b601f19811610611cc4575b505050811b016004850155611bad565b01515f1960f88460031b161c191690555f8080611cb4565b8183015184558e9b5060019093019260209283019201611c5b565b611d2590600486015f5260205f20601f850160051c81019160208610611d2b575b601f0160051c0190611724565b5f611b42565b9091508190611d18565b015190505f80611afd565b9250600384015f5260205f20905f935b601f1984168510611d93576001945083601f19811610611d7b575b505050811b016003820155611b14565b01515f1960f88460031b161c191690555f8080611d6b565b81810151835560209485019460019093019290910190611d50565b611ddb90600386015f5260205f20601f850160051c81019160208610611d2b57601f0160051c0190611724565b5f611ae7565b015190505f80611aa2565b9250600284015f5260205f20905f935b601f1984168510611e3f576001945083601f19811610611e27575b505050811b016002820155611ab9565b01515f1960f88460031b161c191690555f8080611e17565b81810151835560209485019460019093019290910190611dfc565b611e8790600286015f5260205f20601f850160051c81019160208610611d2b57601f0160051c0190611724565b5f611a8c565b015190505f80611a47565b9250600184015f5260205f20905f935b601f1984168510611eeb576001945083601f19811610611ed3575b505050811b016001820155611a5e565b01515f1960f88460031b161c191690555f8080611ec3565b81810151835560209485019460019093019290910190611ea8565b611f3390600186015f5260205f20601f850160051c81019160208610611d2b57601f0160051c0190611724565b5f611a31565b015190505f806119ef565b9250835f5260205f20905f935b601f1984168510611f91576001945083601f19811610611f79575b505050811b018155611a03565b01515f1960f88460031b161c191690555f8080611f6c565b81810151835560209485019460019093019290910190611f51565b611fd690855f5260205f20601f850160051c81019160208610611d2b57601f0160051c0190611724565b5f6119d9565b90508401515f61191b565b9150825f5260205f205f925b601f1983168410612032576001935082601f1981161061201a575b5050811b01905561192e565b8601515f1960f88460031b161c191690555f8061200e565b86810151825560209384019360019092019101611ff3565b61207490835f5260205f20601f840160051c81019160208510611d2b57601f0160051c0190611724565b5f611905565b90508701515f611878565b9150825f5260205f205f925b601f19831684106120d0576001935082601f198116106120b8575b5050811b01905561188b565b8901515f1960f88460031b161c191690555f806120ac565b89810151825560209384019360019092019101612091565b61211290835f5260205f20601f840160051c81019160208510611d2b57601f0160051c0190611724565b5f611862565b602061215e91868c5f989e9d9c9b9a9998604051809681958294630a85bd0160e11b8452336004850152846024850152604484015260806064840152608483019061105c565b03926001600160a01b03165af15f9181612220575b506121da578a3d156121d2573d9061218a826110ec565b9161219860405193846110cb565b82523d5f602084013e5b815191826121cb57604051633250574960e11b81526001600160a01b0383166004820152602490fd5b6020915001fd5b6060906121a2565b630a85bd0160e19b95969798999a9b1b9063ffffffff60e01b16036121ff575f611832565b604051633250574960e11b81526001600160a01b0385166004820152602490fd5b9091506020813d60201161225d575b8161223c602093836110cb565b8101031261113d57516001600160e01b03198116810361113d57905f612173565b3d915061222f565b6040516339e3563760e11b81525f6004820152602490fd5b5f82815260046020526040902080546001600160a01b0319169055805f52600360205260405f205f1981540190556117c5565b634e487b7160e01b5f52601160045260245ffd5b60405162461bcd60e51b815260206004820152602360248201527f4e465420616c7265616479206d696e74656420666f7220746869732076656869604482015262636c6560e81b6064820152608490fd5b60405162461bcd60e51b815260206004820152600f60248201526e496e76616c6964206164647265737360881b6044820152606490fd5b60405162461bcd60e51b815260206004820152601d60248201527f496e7370656374696f6e2049442063616e6e6f7420626520656d7074790000006044820152606490fd5b1561239857565b60405162461bcd60e51b815260206004820152602260248201527f4e4654206e6f74206d696e74656420666f72207468697320696e73706563746960448201526137b760f11b6064820152608490fd5b156123ef57565b60405162461bcd60e51b8152602060048201526014602482015273151bdad95b88191bd95cc81b9bdd08195e1a5cdd60621b6044820152606490fd5b612435815461115f565b908161243f575050565b81601f5f9311600114612450575055565b90808391825261246f601f60208420940160051c840160018501611724565b555556fea2646970667358221220b345686a286d1c9f6ec0b83b0e6e136348fcb69ae1de5ef07f5a3b5204811a9364736f6c63430008140033",
  "immutableReferences": {},
  "source": "// SPDX-License-Identifier: MIT\r\npragma solidity ^0.8.20;\r\n\r\nimport \"@openzeppelin/contracts/token/ERC721/ERC721.sol\";\r\nimport \"@openzeppelin/contracts/token/ERC721/extensions/ERC721URIStorage.sol\";\r\nimport \"@openzeppelin/contracts/access/Ownable.sol\";\r\n\r\ncontract VehicleNFT is ERC721, ERC721URIStorage, Ownable {\r\n    uint256 private _tokenIdCounter;\r\n    \r\n    // Mapping from inspection ID to token ID\r\n    mapping(string => uint256) public inspectionToTokenId;\r\n    \r\n    // Mapping from token ID to inspection ID\r\n    mapping(uint256 => string) public tokenIdToInspection;\r\n    \r\n    // Mapping to track if NFT was minted for inspection ID\r\n    mapping(string => bool) public nftMinted;\r\n    \r\n    // Store vehicle data on-chain (optional, for reference)\r\n    struct VehicleInfo {\r\n        string make;\r\n        string model;\r\n        string year;\r\n        string vehicleType;\r\n        string registrationNumber;\r\n        address mintedTo;\r\n        uint256 mintTimestamp;\r\n    }\r\n    \r\n    mapping(string => VehicleInfo) public vehicleInfo;\r\n    \r\n    // Events\r\n    event VehicleNFTMinted(\r\n        uint256 indexed tokenId, \r\n        string indexed inspectionId, \r\n        address indexed owner,\r\n        string tokenURI,\r\n        string make,\r\n        string model,\r\n        string registrationNumber\r\n    );\r\n    \r\n    constructor(address initialOwner) ERC721(\"Vehicle Certificate NFT\", \"VCNFT\") Ownable(initialOwner) {\r\n        _tokenIdCounter = 1; // Start from 1\r\n    }\r\n    \r\n    /**\r\n     * @dev Mint NFT for a vehicle (independent version)\r\n     * @param inspectionId The vehicle inspection ID\r\n     * @param to Address to mint NFT to\r\n     * @param _tokenURI Metadata URI for the NFT\r\n     * @param make Vehicle make (optional, for on-chain storage)\r\n     * @param model Vehicle model (optional, for on-chain storage)\r\n     * @param year Vehicle year (optional, for on-chain storage)\r\n     * @param vehicleType Vehicle type (optional, for on-chain storage)\r\n     * @param registrationNumber Registration number (optional, for on-chain storage)\r\n     */\r\n    function mintVehicleNFT(\r\n        string memory inspectionId,\r\n        address to,\r\n        string memory _tokenURI,\r\n        string memory make,\r\n        string memory model,\r\n        string memory year,\r\n        string memory vehicleType,\r\n        string memory registrationNumber\r\n    ) public returns (uint256) {\r\n        // Basic validation\r\n        require(bytes(inspectionId).length > 0, \"Inspection ID cannot be empty\");\r\n        require(to != address(0), \"Invalid address\");\r\n        \r\n        // Check if NFT already minted\r\n        require(!nftMinted[inspectionId], \"NFT already minted for this vehicle\");\r\n        \r\n        // Mint the NFT\r\n        uint256 tokenId = _tokenIdCounter;\r\n        _tokenIdCounter++;\r\n        \r\n        _safeMint(to, tokenId);\r\n        _setTokenURI(tokenId, _tokenURI);\r\n        \r\n        // Update mappings\r\n        inspectionToTokenId[inspectionId] = tokenId;\r\n        tokenIdToInspection[tokenId] = inspectionId;\r\n        nftMinted[inspectionId] = true;\r\n        \r\n        // Store vehicle info on-chain (optional)\r\n        vehicleInfo[inspectionId] = VehicleInfo({\r\n            make: make,\r\n            model: model,\r\n            year: year,\r\n            vehicleType: vehicleType,\r\n            registrationNumber: registrationNumber,\r\n            mintedTo: to,\r\n            mintTimestamp: block.timestamp\r\n        });\r\n        \r\n        emit VehicleNFTMinted(tokenId, inspectionId, to, _tokenURI, make, model, registrationNumber);\r\n        \r\n        return tokenId;\r\n    }\r\n    \r\n    /**\r\n     * @dev Simplified mint function (backward compatibility)\r\n     */\r\n    function mintVehicleNFT(\r\n        string memory inspectionId,\r\n        address to,\r\n        string memory _tokenURI\r\n    ) public returns (uint256) {\r\n        return mintVehicleNFT(inspectionId, to, _tokenURI, \"\", \"\", \"\", \"\", \"\");\r\n    }\r\n    \r\n    /**\r\n     * @dev Get token ID for a given inspection ID\r\n     */\r\n    function getTokenIdByInspection(string memory inspectionId) \r\n        public \r\n        view \r\n        returns (uint256) \r\n    {\r\n        require(nftMinted[inspectionId], \"NFT not minted for this inspection\");\r\n        return inspectionToTokenId[inspectionId];\r\n    }\r\n    \r\n    /**\r\n     * @dev Get inspection ID for a given token ID\r\n     */\r\n    function getInspectionByTokenId(uint256 tokenId) \r\n        public \r\n        view \r\n        returns (string memory) \r\n    {\r\n        require(_ownerOf(tokenId) != address(0), \"Token does not exist\");\r\n        return tokenIdToInspection[tokenId];\r\n    }\r\n    \r\n    /**\r\n     * @dev Check if NFT exists for inspection ID\r\n     */\r\n    function nftExistsForInspection(string memory inspectionId) \r\n        public \r\n        view \r\n        returns (bool) \r\n    {\r\n        return nftMinted[inspectionId];\r\n    }\r\n    \r\n    /**\r\n     * @dev Get vehicle info stored on-chain\r\n     */\r\n    function getVehicleInfo(string memory inspectionId) \r\n        public \r\n        view \r\n        returns (\r\n            string memory make,\r\n            string memory model,\r\n            string memory year,\r\n            string memory vehicleType,\r\n            string memory registrationNumber,\r\n            address mintedTo,\r\n            uint256 mintTimestamp\r\n        ) \r\n    {\r\n        require(nftMinted[inspectionId], \"NFT not minted for this inspection\");\r\n        \r\n        VehicleInfo memory info = vehicleInfo[inspectionId];\r\n        return (\r\n            info.make,\r\n            info.model, \r\n            info.year,\r\n            info.vehicleType,\r\n            info.registrationNumber,\r\n            info.mintedTo,\r\n            info.mintTimestamp\r\n        );\r\n    }\r\n    \r\n    /**\r\n     * @dev Get vehicle details by token ID\r\n     */\r\n    function getVehicleDetailsByTokenId(uint256 tokenId) \r\n        public \r\n        view \r\n        returns (\r\n            string memory make,\r\n            string memory model,\r\n            string memory year,\r\n            string memory vehicleType,\r\n            string memory registrationNumber,\r\n            string memory inspectionId,\r\n            address mintedTo,\r\n            uint256 mintTimestamp\r\n        ) \r\n    {\r\n        require(_ownerOf(tokenId) != address(0), \"Token does not exist\");\r\n        \r\n        string memory inspection = tokenIdToInspection[tokenId];\r\n        VehicleInfo memory info = vehicleInfo[inspection];\r\n        \r\n        return (\r\n            info.make,\r\n            info.model,\r\n            info.year,\r\n            info.vehicleType,\r\n            info.registrationNumber,\r\n            inspection,\r\n            info.mintedTo,\r\n            info.mintTimestamp\r\n        );\r\n    }\r\n    \r\n    /**\r\n     * @dev Get total number of minted NFTs\r\n     */\r\n    function totalSupply() public view returns (uint256) {\r\n        return _tokenIdCounter - 1; // Subtract 1 since we start from 1\r\n    }\r\n    \r\n    /**\r\n     * @dev Owner can mint NFT for any vehicle (admin function)\r\n     */\r\n    function adminMintNFT(\r\n        string memory inspectionId,\r\n        address to,\r\n        string memory _tokenURI,\r\n        string memory make,\r\n        string memory model,\r\n        string memory year,\r\n        string memory vehicleType,\r\n        string memory registrationNumber\r\n    ) public onlyOwner returns (uint256) {\r\n        return mintVehicleNFT(inspectionId, to, _tokenURI, make, model, year, vehicleType, registrationNumber);\r\n    }\r\n    \r\n    /**\r\n     * @dev Burn NFT and clean up mappings\r\n     */\r\n    function burnNFT(uint256 tokenId) public {\r\n        require(_ownerOf(tokenId) == msg.sender || owner() == msg.sender, \"Not authorized to burn\");\r\n        \r\n        // Clean up mappings before burning\r\n        string memory inspectionId = tokenIdToInspection[tokenId];\r\n        delete inspectionToTokenId[inspectionId];\r\n        delete tokenIdToInspection[tokenId];\r\n        delete nftMinted[inspectionId];\r\n        delete vehicleInfo[inspectionId];\r\n        \r\n        _burn(tokenId);\r\n    }\r\n    \r\n    /**\r\n     * @dev Override required by Solidity for multiple inheritance\r\n     */\r\n    function tokenURI(uint256 tokenId)\r\n        public\r\n        view\r\n        override(ERC721, ERC721URIStorage)\r\n        returns (string memory)\r\n    {\r\n        return super.tokenURI(tokenId);\r\n    }\r\n    \r\n    /**\r\n     * @dev Override required by Solidity for multiple inheritance\r\n     */\r\n    function supportsInterface(bytes4 interfaceId)\r\n        public\r\n        view\r\n        override(ERC721, ERC721URIStorage)\r\n        returns (bool)\r\n    {\r\n        return super.supportsInterface(interfaceId);\r\n    }\r\n}",
  "sourcePath": "F:\\TaxTron-FYP\\taxtron\\backend\\contracts\\NftMiniting.sol",
  "compiler": {
    "name": "solc",
    "version": "0.8.20+commit.a1b79de6.Emscripten.clang"
  },
  "schemaVersion": "3.4.16",
  "updatedAt": "2025-09-13T21:43:51.080Z",
  "devdoc": {
    "errors": {
      "ERC721IncorrectOwner(address,uint256,address)": [
        {
          "details": "Indicates an error related to the ownership over a particular token. Used in transfers.",
          "params": {
            "owner": "Address of the current owner of a token.",
            "sender": "Address whose tokens are being transferred.",
            "tokenId": "Identifier number of a token."
          }
        }
      ],
      "ERC721InsufficientApproval(address,uint256)": [
        {
          "details": "Indicates a failure with the `operator`s approval. Used in transfers.",
          "params": {
            "operator": "Address that may be allowed to operate on tokens without being their owner.",
            "tokenId": "Identifier number of a token."
          }
        }
      ],
      "ERC721InvalidApprover(address)": [
        {
          "details": "Indicates a failure with the `approver` of a token to be approved. Used in approvals.",
          "params": {
            "approver": "Address initiating an approval operation."
          }
        }
      ],
      "ERC721InvalidOperator(address)": [
        {
          "details": "Indicates a failure with the `operator` to be approved. Used in approvals.",
          "params": {
            "operator": "Address that may be allowed to operate on tokens without being their owner."
          }
        }
      ],
      "ERC721InvalidOwner(address)": [
        {
          "details": "Indicates that an address can't be an owner. For example, `address(0)` is a forbidden owner in ERC-20. Used in balance queries.",
          "params": {
            "owner": "Address of the current owner of a token."
          }
        }
      ],
      "ERC721InvalidReceiver(address)": [
        {
          "details": "Indicates a failure with the token `receiver`. Used in transfers.",
          "params": {
            "receiver": "Address to which tokens are being transferred."
          }
        }
      ],
      "ERC721InvalidSender(address)": [
        {
          "details": "Indicates a failure with the token `sender`. Used in transfers.",
          "params": {
            "sender": "Address whose tokens are being transferred."
          }
        }
      ],
      "ERC721NonexistentToken(uint256)": [
        {
          "details": "Indicates a `tokenId` whose `owner` is the zero address.",
          "params": {
            "tokenId": "Identifier number of a token."
          }
        }
      ],
      "OwnableInvalidOwner(address)": [
        {
          "details": "The owner is not a valid owner account. (eg. `address(0)`)"
        }
      ],
      "OwnableUnauthorizedAccount(address)": [
        {
          "details": "The caller account is not authorized to perform an operation."
        }
      ]
    },
    "events": {
      "Approval(address,address,uint256)": {
        "details": "Emitted when `owner` enables `approved` to manage the `tokenId` token."
      },
      "ApprovalForAll(address,address,bool)": {
        "details": "Emitted when `owner` enables or disables (`approved`) `operator` to manage all of its assets."
      },
      "BatchMetadataUpdate(uint256,uint256)": {
        "details": "This event emits when the metadata of a range of tokens is changed. So that the third-party platforms such as NFT market could timely update the images and related attributes of the NFTs."
      },
      "MetadataUpdate(uint256)": {
        "details": "This event emits when the metadata of a token is changed. So that the third-party platforms such as NFT market could timely update the images and related attributes of the NFT."
      },
      "Transfer(address,address,uint256)": {
        "details": "Emitted when `tokenId` token is transferred from `from` to `to`."
      }
    },
    "kind": "dev",
    "methods": {
      "adminMintNFT(string,address,string,string,string,string,string,string)": {
        "details": "Owner can mint NFT for any vehicle (admin function)"
      },
      "approve(address,uint256)": {
        "details": "Gives permission to `to` to transfer `tokenId` token to another account. The approval is cleared when the token is transferred. Only a single account can be approved at a time, so approving the zero address clears previous approvals. Requirements: - The caller must own the token or be an approved operator. - `tokenId` must exist. Emits an {Approval} event."
      },
      "balanceOf(address)": {
        "details": "Returns the number of tokens in ``owner``'s account."
      },
      "burnNFT(uint256)": {
        "details": "Burn NFT and clean up mappings"
      },
      "getApproved(uint256)": {
        "details": "Returns the account approved for `tokenId` token. Requirements: - `tokenId` must exist."
      },
      "getInspectionByTokenId(uint256)": {
        "details": "Get inspection ID for a given token ID"
      },
      "getTokenIdByInspection(string)": {
        "details": "Get token ID for a given inspection ID"
      },
      "getVehicleDetailsByTokenId(uint256)": {
        "details": "Get vehicle details by token ID"
      },
      "getVehicleInfo(string)": {
        "details": "Get vehicle info stored on-chain"
      },
      "isApprovedForAll(address,address)": {
        "details": "Returns if the `operator` is allowed to manage all of the assets of `owner`. See {setApprovalForAll}"
      },
      "mintVehicleNFT(string,address,string)": {
        "details": "Simplified mint function (backward compatibility)"
      },
      "mintVehicleNFT(string,address,string,string,string,string,string,string)": {
        "details": "Mint NFT for a vehicle (independent version)",
        "params": {
          "_tokenURI": "Metadata URI for the NFT",
          "inspectionId": "The vehicle inspection ID",
          "make": "Vehicle make (optional, for on-chain storage)",
          "model": "Vehicle model (optional, for on-chain storage)",
          "registrationNumber": "Registration number (optional, for on-chain storage)",
          "to": "Address to mint NFT to",
          "vehicleType": "Vehicle type (optional, for on-chain storage)",
          "year": "Vehicle year (optional, for on-chain storage)"
        }
      },
      "name()": {
        "details": "Returns the token collection name."
      },
      "nftExistsForInspection(string)": {
        "details": "Check if NFT exists for inspection ID"
      },
      "owner()": {
        "details": "Returns the address of the current owner."
      },
      "ownerOf(uint256)": {
        "details": "Returns the owner of the `tokenId` token. Requirements: - `tokenId` must exist."
      },
      "renounceOwnership()": {
        "details": "Leaves the contract without owner. It will not be possible to call `onlyOwner` functions. Can only be called by the current owner. NOTE: Renouncing ownership will leave the contract without an owner, thereby disabling any functionality that is only available to the owner."
      },
      "safeTransferFrom(address,address,uint256)": {
        "details": "Safely transfers `tokenId` token from `from` to `to`, checking first that contract recipients are aware of the ERC-721 protocol to prevent tokens from being forever locked. Requirements: - `from` cannot be the zero address. - `to` cannot be the zero address. - `tokenId` token must exist and be owned by `from`. - If the caller is not `from`, it must have been allowed to move this token by either {approve} or   {setApprovalForAll}. - If `to` refers to a smart contract, it must implement {IERC721Receiver-onERC721Received}, which is called upon   a safe transfer. Emits a {Transfer} event."
      },
      "safeTransferFrom(address,address,uint256,bytes)": {
        "details": "Safely transfers `tokenId` token from `from` to `to`. Requirements: - `from` cannot be the zero address. - `to` cannot be the zero address. - `tokenId` token must exist and be owned by `from`. - If the caller is not `from`, it must be approved to move this token by either {approve} or {setApprovalForAll}. - If `to` refers to a smart contract, it must implement {IERC721Receiver-onERC721Received}, which is called upon   a safe transfer. Emits a {Transfer} event."
      },
      "setApprovalForAll(address,bool)": {
        "details": "Approve or remove `operator` as an operator for the caller. Operators can call {transferFrom} or {safeTransferFrom} for any token owned by the caller. Requirements: - The `operator` cannot be the address zero. Emits an {ApprovalForAll} event."
      },
      "supportsInterface(bytes4)": {
        "details": "Override required by Solidity for multiple inheritance"
      },
      "symbol()": {
        "details": "Returns the token collection symbol."
      },
      "tokenURI(uint256)": {
        "details": "Override required by Solidity for multiple inheritance"
      },
      "totalSupply()": {
        "details": "Get total number of minted NFTs"
      },
      "transferFrom(address,address,uint256)": {
        "details": "Transfers `tokenId` token from `from` to `to`. WARNING: Note that the caller is responsible to confirm that the recipient is capable of receiving ERC-721 or else they may be permanently lost. Usage of {safeTransferFrom} prevents loss, though the caller must understand this adds an external call which potentially creates a reentrancy vulnerability. Requirements: - `from` cannot be the zero address. - `to` cannot be the zero address. - `tokenId` token must be owned by `from`. - If the caller is not `from`, it must be approved to move this token by either {approve} or {setApprovalForAll}. Emits a {Transfer} event."
      },
      "transferOwnership(address)": {
        "details": "Transfers ownership of the contract to a new account (`newOwner`). Can only be called by the current owner."
      }
    },
    "version": 1
  },
  "userdoc": {
    "kind": "user",
    "methods": {},
    "version": 1
  }
}