{
  "contractName": "VehicleRegistration",
  "abi": [
    {
      "inputs": [
        {
          "internalType": "address",
          "name": "_treasury",
          "type": "address"
        }
      ],
      "stateMutability": "nonpayable",
      "type": "constructor"
    },
    {
      "anonymous": false,
      "inputs": [
        {
          "indexed": true,
          "internalType": "string",
          "name": "inspectionId",
          "type": "string"
        },
        {
          "indexed": false,
          "internalType": "string",
          "name": "newRegistrationNumber",
          "type": "string"
        }
      ],
      "name": "RegistrationNumberUpdated",
      "type": "event"
    },
    {
      "anonymous": false,
      "inputs": [
        {
          "indexed": true,
          "internalType": "string",
          "name": "inspectionId",
          "type": "string"
        },
        {
          "indexed": false,
          "internalType": "uint256",
          "name": "taxAmount",
          "type": "uint256"
        }
      ],
      "name": "TaxAmountSet",
      "type": "event"
    },
    {
      "anonymous": false,
      "inputs": [
        {
          "indexed": true,
          "internalType": "string",
          "name": "inspectionId",
          "type": "string"
        },
        {
          "indexed": true,
          "internalType": "address",
          "name": "owner",
          "type": "address"
        },
        {
          "indexed": false,
          "internalType": "uint256",
          "name": "taxAmount",
          "type": "uint256"
        },
        {
          "indexed": false,
          "internalType": "uint256",
          "name": "timestamp",
          "type": "uint256"
        }
      ],
      "name": "TaxPaid",
      "type": "event"
    },
    {
      "anonymous": false,
      "inputs": [
        {
          "indexed": true,
          "internalType": "string",
          "name": "inspectionId",
          "type": "string"
        },
        {
          "indexed": true,
          "internalType": "address",
          "name": "owner",
          "type": "address"
        },
        {
          "indexed": false,
          "internalType": "string",
          "name": "registrationNumber",
          "type": "string"
        },
        {
          "indexed": false,
          "internalType": "uint256",
          "name": "registrationFee",
          "type": "uint256"
        },
        {
          "indexed": false,
          "internalType": "uint256",
          "name": "timestamp",
          "type": "uint256"
        }
      ],
      "name": "VehicleRegistered",
      "type": "event"
    },
    {
      "inputs": [
        {
          "internalType": "uint256",
          "name": "",
          "type": "uint256"
        }
      ],
      "name": "allInspectionIds",
      "outputs": [
        {
          "internalType": "string",
          "name": "",
          "type": "string"
        }
      ],
      "stateMutability": "view",
      "type": "function",
      "constant": true
    },
    {
      "inputs": [],
      "name": "owner",
      "outputs": [
        {
          "internalType": "address",
          "name": "",
          "type": "address"
        }
      ],
      "stateMutability": "view",
      "type": "function",
      "constant": true
    },
    {
      "inputs": [
        {
          "internalType": "address",
          "name": "",
          "type": "address"
        },
        {
          "internalType": "uint256",
          "name": "",
          "type": "uint256"
        }
      ],
      "name": "ownerVehicles",
      "outputs": [
        {
          "internalType": "string",
          "name": "",
          "type": "string"
        }
      ],
      "stateMutability": "view",
      "type": "function",
      "constant": true
    },
    {
      "inputs": [
        {
          "internalType": "string",
          "name": "",
          "type": "string"
        }
      ],
      "name": "registrationNumbers",
      "outputs": [
        {
          "internalType": "bool",
          "name": "",
          "type": "bool"
        }
      ],
      "stateMutability": "view",
      "type": "function",
      "constant": true
    },
    {
      "inputs": [],
      "name": "treasury",
      "outputs": [
        {
          "internalType": "address",
          "name": "",
          "type": "address"
        }
      ],
      "stateMutability": "view",
      "type": "function",
      "constant": true
    },
    {
      "inputs": [
        {
          "internalType": "string",
          "name": "",
          "type": "string"
        }
      ],
      "name": "vehicles",
      "outputs": [
        {
          "internalType": "string",
          "name": "inspectionId",
          "type": "string"
        },
        {
          "internalType": "string",
          "name": "make",
          "type": "string"
        },
        {
          "internalType": "string",
          "name": "model",
          "type": "string"
        },
        {
          "internalType": "uint256",
          "name": "year",
          "type": "uint256"
        },
        {
          "internalType": "string",
          "name": "engineNumber",
          "type": "string"
        },
        {
          "internalType": "string",
          "name": "chassisNumber",
          "type": "string"
        },
        {
          "internalType": "string",
          "name": "vehicleType",
          "type": "string"
        },
        {
          "internalType": "uint256",
          "name": "engineCapacity",
          "type": "uint256"
        },
        {
          "internalType": "string",
          "name": "registrationNumber",
          "type": "string"
        },
        {
          "internalType": "address",
          "name": "vehicleOwner",
          "type": "address"
        },
        {
          "internalType": "uint256",
          "name": "registrationFee",
          "type": "uint256"
        },
        {
          "internalType": "bool",
          "name": "registrationFeePaid",
          "type": "bool"
        },
        {
          "internalType": "uint256",
          "name": "registrationTimestamp",
          "type": "uint256"
        },
        {
          "internalType": "uint256",
          "name": "taxAmount",
          "type": "uint256"
        },
        {
          "internalType": "bool",
          "name": "taxPaid",
          "type": "bool"
        },
        {
          "internalType": "uint256",
          "name": "taxPaidTimestamp",
          "type": "uint256"
        },
        {
          "internalType": "string",
          "name": "registrationTxHash",
          "type": "string"
        },
        {
          "internalType": "string",
          "name": "taxTxHash",
          "type": "string"
        },
        {
          "internalType": "bool",
          "name": "isActive",
          "type": "bool"
        }
      ],
      "stateMutability": "view",
      "type": "function",
      "constant": true
    },
    {
      "inputs": [
        {
          "internalType": "string",
          "name": "_inspectionId",
          "type": "string"
        },
        {
          "internalType": "string",
          "name": "_make",
          "type": "string"
        },
        {
          "internalType": "string",
          "name": "_model",
          "type": "string"
        },
        {
          "internalType": "uint256",
          "name": "_year",
          "type": "uint256"
        },
        {
          "internalType": "string",
          "name": "_engineNumber",
          "type": "string"
        },
        {
          "internalType": "string",
          "name": "_chassisNumber",
          "type": "string"
        },
        {
          "internalType": "string",
          "name": "_vehicleType",
          "type": "string"
        },
        {
          "internalType": "uint256",
          "name": "_engineCapacity",
          "type": "uint256"
        },
        {
          "internalType": "string",
          "name": "_registrationNumber",
          "type": "string"
        },
        {
          "internalType": "uint256",
          "name": "_registrationFee",
          "type": "uint256"
        },
        {
          "internalType": "string",
          "name": "_registrationTxHash",
          "type": "string"
        }
      ],
      "name": "registerVehicle",
      "outputs": [],
      "stateMutability": "payable",
      "type": "function",
      "payable": true
    },
    {
      "inputs": [
        {
          "internalType": "string",
          "name": "_inspectionId",
          "type": "string"
        },
        {
          "internalType": "uint256",
          "name": "_taxAmount",
          "type": "uint256"
        }
      ],
      "name": "setTaxAmount",
      "outputs": [],
      "stateMutability": "nonpayable",
      "type": "function"
    },
    {
      "inputs": [
        {
          "internalType": "string",
          "name": "_inspectionId",
          "type": "string"
        },
        {
          "internalType": "string",
          "name": "_taxTxHash",
          "type": "string"
        }
      ],
      "name": "payTax",
      "outputs": [],
      "stateMutability": "payable",
      "type": "function",
      "payable": true
    },
    {
      "inputs": [
        {
          "internalType": "string",
          "name": "_inspectionId",
          "type": "string"
        }
      ],
      "name": "getVehicle",
      "outputs": [
        {
          "components": [
            {
              "internalType": "string",
              "name": "inspectionId",
              "type": "string"
            },
            {
              "internalType": "string",
              "name": "make",
              "type": "string"
            },
            {
              "internalType": "string",
              "name": "model",
              "type": "string"
            },
            {
              "internalType": "uint256",
              "name": "year",
              "type": "uint256"
            },
            {
              "internalType": "string",
              "name": "engineNumber",
              "type": "string"
            },
            {
              "internalType": "string",
              "name": "chassisNumber",
              "type": "string"
            },
            {
              "internalType": "string",
              "name": "vehicleType",
              "type": "string"
            },
            {
              "internalType": "uint256",
              "name": "engineCapacity",
              "type": "uint256"
            },
            {
              "internalType": "string",
              "name": "registrationNumber",
              "type": "string"
            },
            {
              "internalType": "address",
              "name": "vehicleOwner",
              "type": "address"
            },
            {
              "internalType": "uint256",
              "name": "registrationFee",
              "type": "uint256"
            },
            {
              "internalType": "bool",
              "name": "registrationFeePaid",
              "type": "bool"
            },
            {
              "internalType": "uint256",
              "name": "registrationTimestamp",
              "type": "uint256"
            },
            {
              "internalType": "uint256",
              "name": "taxAmount",
              "type": "uint256"
            },
            {
              "internalType": "bool",
              "name": "taxPaid",
              "type": "bool"
            },
            {
              "internalType": "uint256",
              "name": "taxPaidTimestamp",
              "type": "uint256"
            },
            {
              "internalType": "string",
              "name": "registrationTxHash",
              "type": "string"
            },
            {
              "internalType": "string",
              "name": "taxTxHash",
              "type": "string"
            },
            {
              "internalType": "bool",
              "name": "isActive",
              "type": "bool"
            }
          ],
          "internalType": "struct VehicleRegistration.Vehicle",
          "name": "",
          "type": "tuple"
        }
      ],
      "stateMutability": "view",
      "type": "function",
      "constant": true
    },
    {
      "inputs": [
        {
          "internalType": "string",
          "name": "_registrationNumber",
          "type": "string"
        }
      ],
      "name": "getVehicleByRegistration",
      "outputs": [
        {
          "components": [
            {
              "internalType": "string",
              "name": "inspectionId",
              "type": "string"
            },
            {
              "internalType": "string",
              "name": "make",
              "type": "string"
            },
            {
              "internalType": "string",
              "name": "model",
              "type": "string"
            },
            {
              "internalType": "uint256",
              "name": "year",
              "type": "uint256"
            },
            {
              "internalType": "string",
              "name": "engineNumber",
              "type": "string"
            },
            {
              "internalType": "string",
              "name": "chassisNumber",
              "type": "string"
            },
            {
              "internalType": "string",
              "name": "vehicleType",
              "type": "string"
            },
            {
              "internalType": "uint256",
              "name": "engineCapacity",
              "type": "uint256"
            },
            {
              "internalType": "string",
              "name": "registrationNumber",
              "type": "string"
            },
            {
              "internalType": "address",
              "name": "vehicleOwner",
              "type": "address"
            },
            {
              "internalType": "uint256",
              "name": "registrationFee",
              "type": "uint256"
            },
            {
              "internalType": "bool",
              "name": "registrationFeePaid",
              "type": "bool"
            },
            {
              "internalType": "uint256",
              "name": "registrationTimestamp",
              "type": "uint256"
            },
            {
              "internalType": "uint256",
              "name": "taxAmount",
              "type": "uint256"
            },
            {
              "internalType": "bool",
              "name": "taxPaid",
              "type": "bool"
            },
            {
              "internalType": "uint256",
              "name": "taxPaidTimestamp",
              "type": "uint256"
            },
            {
              "internalType": "string",
              "name": "registrationTxHash",
              "type": "string"
            },
            {
              "internalType": "string",
              "name": "taxTxHash",
              "type": "string"
            },
            {
              "internalType": "bool",
              "name": "isActive",
              "type": "bool"
            }
          ],
          "internalType": "struct VehicleRegistration.Vehicle",
          "name": "",
          "type": "tuple"
        }
      ],
      "stateMutability": "view",
      "type": "function",
      "constant": true
    },
    {
      "inputs": [
        {
          "internalType": "address",
          "name": "_owner",
          "type": "address"
        }
      ],
      "name": "getVehiclesByOwner",
      "outputs": [
        {
          "internalType": "string[]",
          "name": "",
          "type": "string[]"
        }
      ],
      "stateMutability": "view",
      "type": "function",
      "constant": true
    },
    {
      "inputs": [
        {
          "internalType": "string",
          "name": "_inspectionId",
          "type": "string"
        }
      ],
      "name": "isRegistrationFeePaid",
      "outputs": [
        {
          "internalType": "bool",
          "name": "",
          "type": "bool"
        }
      ],
      "stateMutability": "view",
      "type": "function",
      "constant": true
    },
    {
      "inputs": [
        {
          "internalType": "string",
          "name": "_inspectionId",
          "type": "string"
        }
      ],
      "name": "isTaxPaid",
      "outputs": [
        {
          "internalType": "bool",
          "name": "",
          "type": "bool"
        }
      ],
      "stateMutability": "view",
      "type": "function",
      "constant": true
    },
    {
      "inputs": [
        {
          "internalType": "string",
          "name": "_inspectionId",
          "type": "string"
        }
      ],
      "name": "getTaxAmount",
      "outputs": [
        {
          "internalType": "uint256",
          "name": "",
          "type": "uint256"
        }
      ],
      "stateMutability": "view",
      "type": "function",
      "constant": true
    },
    {
      "inputs": [
        {
          "internalType": "string",
          "name": "_inspectionId",
          "type": "string"
        }
      ],
      "name": "getPaymentStatus",
      "outputs": [
        {
          "internalType": "bool",
          "name": "registrationPaid",
          "type": "bool"
        },
        {
          "internalType": "bool",
          "name": "taxPaid",
          "type": "bool"
        },
        {
          "internalType": "uint256",
          "name": "taxAmount",
          "type": "uint256"
        }
      ],
      "stateMutability": "view",
      "type": "function",
      "constant": true
    },
    {
      "inputs": [
        {
          "internalType": "string",
          "name": "_inspectionId",
          "type": "string"
        },
        {
          "internalType": "string",
          "name": "_newRegistrationNumber",
          "type": "string"
        }
      ],
      "name": "updateRegistrationNumber",
      "outputs": [],
      "stateMutability": "nonpayable",
      "type": "function"
    },
    {
      "inputs": [
        {
          "internalType": "string",
          "name": "_inspectionId",
          "type": "string"
        },
        {
          "internalType": "address",
          "name": "_newOwner",
          "type": "address"
        }
      ],
      "name": "transferOwnership",
      "outputs": [],
      "stateMutability": "nonpayable",
      "type": "function"
    },
    {
      "inputs": [],
      "name": "getTotalVehicles",
      "outputs": [
        {
          "internalType": "uint256",
          "name": "",
          "type": "uint256"
        }
      ],
      "stateMutability": "view",
      "type": "function",
      "constant": true
    },
    {
      "inputs": [
        {
          "internalType": "address",
          "name": "_newTreasury",
          "type": "address"
        }
      ],
      "name": "updateTreasury",
      "outputs": [],
      "stateMutability": "nonpayable",
      "type": "function"
    },
    {
      "inputs": [],
      "name": "emergencyWithdraw",
      "outputs": [],
      "stateMutability": "nonpayable",
      "type": "function"
    },
    {
      "inputs": [
        {
          "internalType": "string",
          "name": "_inspectionId",
          "type": "string"
        }
      ],
      "name": "deactivateVehicle",
      "outputs": [],
      "stateMutability": "nonpayable",
      "type": "function"
    },
    {
      "inputs": [
        {
          "internalType": "string",
          "name": "_inspectionId",
          "type": "string"
        }
      ],
      "name": "reactivateVehicle",
      "outputs": [],
      "stateMutability": "nonpayable",
      "type": "function"
    },
    {
      "inputs": [
        {
          "internalType": "string",
          "name": "_inspectionId",
          "type": "string"
        }
      ],
      "name": "isVehicleActive",
      "outputs": [
        {
          "internalType": "bool",
          "name": "",
          "type": "bool"
        }
      ],
      "stateMutability": "view",
      "type": "function",
      "constant": true
    }
  ],
  "bytecode": "0x60803461007a57601f61269b38819003918201601f19168301916001600160401b0383118484101761007f5780849260209460405283398101031261007a57516001600160a01b0381169081900361007a5760018060a01b031933816000541617600055600154161760015560405161260590816100968239f35b600080fd5b634e487b7160e01b600052604160045260246000fdfe610140604052600436101561001357600080fd5b60003560e01c8063047fd5791461187457806329049f77146117b557806361d027b31461178c57806369056b271461176e5780636e3c46261461170d5780637b6e967f146116d35780637f51bb1f14611687578063836f2c791461158e578063840801631461140257806385b0bb1d146113a7578063883f9bb01461131d5780638965e319146112e35780638da5cb5b146112ba578063976de5c514610fce578063a6b467eb14610f7d578063a8d7668014610f31578063aea5fe2d14610d1d578063c0e793c214610a80578063c83365071461049a578063db2e21bc14610444578063e769e3e1146103f6578063f1ddb0a514610390578063fc4c22fc146103455763fd2240d31461012557600080fd5b346103405760208060031936011261034057600435906001600160401b038211610340576101a38161015d6060943690600401611a92565b6040519061019261018b82519385818186019661017b81838a611ae8565b8101600281520301902054611d38565b1515612047565b604051938492839251928391611ae8565b81016002815203019020906040516101ba81611a55565b6040516101d2816101cb8187611d72565b0382611a71565b81526040516101e8816101cb8160018801611d72565b82820152604051610200816101cb8160028801611d72565b6040820152600383015484820152604051610222816101cb8160048801611d72565b608082015260405161023b816101cb8160058801611d72565b60a0820152604051610254816101cb8160068801611d72565b60c0820152600783015460e0820152604051610277816101cb8160088801611d72565b61010082015260018060a01b03600984015416610120820152600a83015461014082015260ff600b8401541661016082019015158152600c840154610180830152600d840154916101a0810192835261024060ff601281600e89015416976101c085019815158952600f8101546101e08601526040516102fe816101cb8160108601611d72565b610200860152604051610318816101cb8160118601611d72565b6102208601520154161515910152511515925115159051916040519384528301526040820152f35b600080fd5b34610340576020366003190112610340576004356001600160401b0381116103405761038061037b61038c923690600401611a92565b612213565b60405191829182611b30565b0390f35b34610340576020366003190112610340576004356001600160401b038111610340576103dc60206103c76012933690600401611a92565b61015d60018060a01b03600054163314611fe8565b60029082019081520301902001805460ff19166001179055005b34610340576020366003190112610340576004356001600160401b0381116103405761042d60206103c76012933690600401611a92565b60029082019081520301902001805460ff19169055005b3461034057600036600319011261034057600080548190819081906001600160a01b0316610473338214611fe8565b4790828215610491575bf11561048557005b6040513d6000823e3d90fd5b506108fc61047d565b610160366003190112610340576004356001600160401b038111610340576104c6903690600401611a92565b6024356001600160401b038111610340576104e5903690600401611a92565b906044356001600160401b03811161034057610505903690600401611a92565b916084356001600160401b03811161034057610525903690600401611a92565b9260a4356001600160401b03811161034057610545903690600401611a92565b60c4356001600160401b03811161034057610564903690600401611a92565b90610104356001600160401b03811161034057610585903690600401611a92565b95610144356001600160401b038111610340576105a6903690600401611a92565b93865115610a3b576105c86040516020818161017b8c83815193849201611ae8565b6109f6576101243534106109b15761060660ff6105f460208b8160405193828580945193849201611ae8565b81016004815203019020541615611e08565b6040519561061387611a55565b878752602087015260408601526064356060860152608085015260a084015260c083015260e43560e083015283610100830152336101208301526101243561014083015260016101608301524261018083015260006101a083015260006101c083015260006101e08301526102008201526040518060208101106001600160401b0360208301111761099b576020810160405260008152610220820152600161024082015261083260405160208185516106d08183858a01611ae8565b810160028152030190206106e5835182611eb1565b6106f6602084015160018301611eb1565b610707604084015160028301611eb1565b60608301516003820155610722608084015160048301611eb1565b61073360a084015160058301611eb1565b61074460c084015160068301611eb1565b60e0830151600782015561076061010084015160088301611eb1565b601261024060018060a01b0394856101208201511660098501906001600160601b0360a01b825416179055610140810151600a8501556107b66101608201511515600b86019060ff801983541691151516179055565b610180810151600c8501556101a0810151600d8501556107ec6101c08201511515600e86019060ff801983541691151516179055565b6101e0810151600f85015561080961020082015160108601611eb1565b61081b61022082015160118601611eb1565b0151151591019060ff801983541691151516179055565b336000526003602052610849826040600020611f78565b600554600160401b81101561099b57600181018060055581101561098557600080809361089d868395600585527f036b6384b5eca791c62761152d0c79bb0604c104a5fb6f4eb0703f3154bb3db001611eb1565b604051602081816108b48b83815193849201611ae8565b81016004815203019020600160ff19825416179055600154168190610124351561097b575b6101243591f11561048557610124353411610945575b6108f890611fc8565b7e214c736cb0078b5960b51c7f0f38f3607aca92e554482159fa0b3d4588d64e61092d60405193606085526060850190611b0b565b926101243560208201524260408201528033940390a3005b60008080806109576101243534611fa5565b818115610972575b3390f16108ef576040513d6000823e3d90fd5b506108fc61095f565b6108fc91506108d9565b634e487b7160e01b600052603260045260246000fd5b634e487b7160e01b600052604160045260246000fd5b60405162461bcd60e51b815260206004820152601d60248201527f496e73756666696369656e7420726567697374726174696f6e206665650000006044820152606490fd5b60405162461bcd60e51b815260206004820152601a60248201527f56656869636c6520616c726561647920726567697374657265640000000000006044820152606490fd5b60405162461bcd60e51b815260206004820152601d60248201527f496e7370656374696f6e2049442063616e6e6f7420626520656d7074790000006044820152606490fd5b34610340576040366003190112610340576004356001600160401b03811161034057610ab0903690600401611a92565b6024906001600160a01b038235818116908190036103405760405190835192610ae961018b6020948581818a019861017b81838c611ae8565b610b1581600960405186818a51610b0181838d611ae8565b810160028152030190200154163314612087565b8115610cd957600960405184818851610b2f81838b611ae8565b8101600281520301902001541690600960405184818851610b5181838b611ae8565b8101600281520301902001816001600160601b0360a01b82541617905560005260038252610b83846040600020611f78565b6000526003815260406000209160005b835480821015610cd7576101cb610bba610bad8488611d20565b5060405192838092611d72565b8481519101208651842014610bd85750610bd390612171565b610b93565b92939450905060001991828101908111610cc257610bf9610c019186611d20565b509185611d20565b919091610cad57610c11916124f3565b82548015610c98570192610c258484611d20565b919091610c845750610c378154611d38565b80610c43575b50505055005b600092601f808311600114610c5f57505050555b828080610c3d565b8385528185208593610c7a920160051c810190600101611e53565b8120915555610c57565b634e487b7160e01b60005260006004526000fd5b84634e487b7160e01b60005260316004526000fd5b85634e487b7160e01b60005260006004526000fd5b85634e487b7160e01b60005260116004526000fd5b005b60405162461bcd60e51b8152600481018490526019818801527f496e76616c6964206e6577206f776e65722061646472657373000000000000006044820152606490fd5b610d2636611ca3565b604051908251610d4661018b60209485818189019561017b818389611ae8565b610d918360405192610d808751610d5e818785611ae8565b8501600281526009868560018060a01b03988994030190200154163314612087565b604051809381928951928391611ae8565b8101600281520301902091600d83019283548015610ef757600e82019081549060ff8216610ebf573410610e7a5760ff1916600117905542600f82015560009283928392839291610de491601101611eb1565b60015416855490828215610e71575bf115610485578054803411610e43575b50610e0f905492611fc8565b9060405192835242908301527f45363bdd96a69e2a6a6d0f76b90f7c8746594460ccbc71117c219cdf7f11fce460403393a3005b60008080610e52819434611fa5565b818115610e68575b3390f1156104855783610e03565b506108fc610e5a565b506108fc610df3565b60405162461bcd60e51b815260048101889052601760248201527f496e73756666696369656e742074617820616d6f756e740000000000000000006044820152606490fd5b60405162461bcd60e51b815260048101899052601060248201526f15185e08185b1c9958591e481c185a5960821b6044820152606490fd5b60405162461bcd60e51b815260048101879052601260248201527115185e08185b5bdd5b9d081b9bdd081cd95d60721b6044820152606490fd5b34610340576020366003190112610340576004356001600160401b03811161034057600d610f69602061015d81943690600401611a92565b810160028152030190200154604051908152f35b34610340576020366003190112610340576004356001600160401b0381116103405760ff6012610fb7602061015d81953690600401611a92565b810160028152030190200154166040519015158152f35b34610340576020366003190112610340576004356001600160401b03811161034057610ffe903690600401611a92565b604051818180935160208193019161101592611ae8565b81016002815203602001902060405190816110308183611d72565b0361103b9083611a71565b6040516101008181529282916110548160018501611d72565b0384519061106191611a71565b60405160c08190526110768160028501611d72565b0360c0519061108491611a71565b60038201546040518061109a8160048701611d72565b036110a59082611a71565b604051806110b68160058801611d72565b036110c19082611a71565b60405196876110d38160068901611d72565b036110de9089611a71565b600786015460405191826110f58160088b01611d72565b036111009084611a71565b600160a01b6001900360098901541699600a89015494600b8a015460ff1696600c8b015498600d8c01549a600e8d015460ff169c600f01549d604051806101205280601083019061115091611d72565b03610120519061115f91611a71565b60405160808190526111748160118401611d72565b036080519061118291611a71565b6012015460ff1660e0526040518060a05261026080915260a051016111a691611b0b565b60a05180820390602001528551906111bd91611b0b565b60a051808203906040015260c051906111d591611b0b565b9060a0516060015260a05180820390608001526111f191611b0b565b60a0518082039060a0015261120591611b0b565b60a0518082039060c0015261121991611b0b565b9160a05160e0015260a0519081830391015261123491611b0b565b9660a051610120015260a0516101400152151560a051610160015260a051610180015260a0516101a00152151560a0516101c0015260a0516101e0015260a051808203906102000152610120519061128b91611b0b565b60a051808203906102200152608051906112a491611b0b565b60e051151560a051610240015260a05180910390f35b34610340576000366003190112610340576000546040516001600160a01b039091168152602090f35b34610340576020366003190112610340576004356001600160401b0381116103405760ff600b610fb7602061015d81953690600401611a92565b3461034057604036600319011261034057611336611c8d565b6001600160a01b031660009081526003602052604090208054602435908110156103405761136391611d20565b611391576101cb61137d61038c9260405192838092611d72565b604051918291602083526020830190611b0b565b634e487b7160e01b600052600060045260246000fd5b3461034057602036600319011261034057600435600554811015610340576101cb61137d61038c926005600052604051928380927f036b6384b5eca791c62761152d0c79bb0604c104a5fb6f4eb0703f3154bb3db001611d72565b346103405761141036611ca3565b600054611427906001600160a01b03163314611fe8565b604051918051602093848181850193611441818387611ae8565b810160028152030190205461145590611d38565b151561146090612047565b83806040519285519382818189019661147a81838a611ae8565b810160048152030190205460ff161561149290611e08565b85604051838188516114a5818388611ae8565b81016002815203019020600801916040516114c1818095611d72565b036114cc9084611a71565b836040518080938a5180926114e092611ae8565b81016002815203019020600801906114f791611eb1565b604051928382819351928391019161150e92611ae8565b810160048152030190209060ff1991828154169055846040518080938751809261153792611ae8565b8101600481520301902090815416600117905561155390611fc8565b91604051918183928352820161156891611b0b565b037fd3821bf154a7f8ca1a264a9f4716bb8db1b59808597e53aa6ec94c6be636502791a2005b3461034057602080600319360112610340576001600160a01b036115b0611c8d565b166000526003815260406000208054906001600160401b03821161099b578290604051926115e3838260051b0185611a71565b8084528284018092600052836000206000915b83831061165d5750505050604051918083019381845251809452604083019360408160051b85010192916000955b8287106116315785850386f35b90919293828061164d600193603f198a82030186528851611b0b565b9601920196019592919092611624565b6001868192604099989951611676816101cb8189611d72565b8152019201920191909594956115f6565b34610340576020366003190112610340576116a0611c8d565b6000546001600160a01b0391906116ba9083163314611fe8565b166001600160601b0360a01b6001541617600155600080f35b34610340576020366003190112610340576004356001600160401b0381116103405760ff600e610fb7602061015d81953690600401611a92565b34610340576020366003190112610340576004356001600160401b0381116103405760ff611758602061174581943690600401611a92565b8160405193828580945193849201611ae8565b8101600481520301902054166040519015158152f35b34610340576000366003190112610340576020600554604051908152f35b34610340576000366003190112610340576001546040516001600160a01b039091168152602090f35b34610340576040366003190112610340576004356001600160401b038111610340576117e5903690600401611a92565b7f69e80bec500e8346d9d03785cd60d1becdcb124e8db1e46a414d58cf4075a858602061186a6024359361182460018060a01b03600054163314611fe8565b84600d6118598560405161184861018b8751928481818b019561017b818389611ae8565b604051809381928851928391611ae8565b810160028152030190200155611fc8565b92604051908152a2005b34610340576020366003190112610340576004356001600160401b038111610340576118d360206118ac61038c933690600401611a92565b6118b46120e5565b506040519061019261018b82519385818186019661017b81838a611ae8565b8101600281520301902060ff6012604051926118ee84611a55565b6040516118ff816101cb8185611d72565b8452604051611915816101cb8160018601611d72565b602085015260405161192e816101cb8160028601611d72565b604085015260038101546060850152604051611951816101cb8160048601611d72565b608085015260405161196a816101cb8160058601611d72565b60a0850152604051611983816101cb8160068601611d72565b60c0850152600781015460e08501526040516119a6816101cb8160088601611d72565b61010085015260098101546001600160a01b0316610120850152600a810154610140850152600b81015483161515610160850152600c810154610180850152600d8101546101a0850152600e810154831615156101c0850152600f8101546101e0850152604051611a1e816101cb8160108601611d72565b610200850152604051611a38816101cb8160118601611d72565b610220850152015416151561024082015260405191829182611b30565b61026081019081106001600160401b0382111761099b57604052565b90601f801991011681019081106001600160401b0382111761099b57604052565b81601f82011215610340578035906001600160401b03821161099b5760405192611ac6601f8401601f191660200185611a71565b8284526020838301011161034057816000926020809301838601378301015290565b60005b838110611afb5750506000910152565b8181015183820152602001611aeb565b90602091611b2481518092818552858086019101611ae8565b601f01601f1916010190565b602081528151611b4e61026091826020850152610280840190611b0b565b611c82611bd3611bbf611bab611b8d611b7960208a015196601f1997888b83030160408c0152611b0b565b60408a0151878a83030160608b0152611b0b565b606089015160808901526080890151868983030160a08a0152611b0b565b60a0880151858883030160c0890152611b0b565b60c0870151848783030160e0880152611b0b565b611c6d611bfc60e0880151610100908189015288015192610120938689830301858a0152611b0b565b9160018060a01b03908801511661014090818801528701516101609081880152870151151561018090818801528701516101a090818801528701516101c0908188015287015115156101e0908188015287015161020090818801528701519161022092858883030184890152611b0b565b90860151610240938683030184870152611b0b565b930151151591015290565b600435906001600160a01b038216820361034057565b906040600319830112610340576001600160401b036004358181116103405783611ccf91600401611a92565b9260243591821161034057611ce691600401611a92565b90565b6005548110156109855760056000527f036b6384b5eca791c62761152d0c79bb0604c104a5fb6f4eb0703f3154bb3db00190600090565b80548210156109855760005260206000200190600090565b90600182811c92168015611d68575b6020831014611d5257565b634e487b7160e01b600052602260045260246000fd5b91607f1691611d47565b9060009291805491611d8383611d38565b918282526001938481169081600014611de55750600114611da5575b50505050565b90919394506000526020928360002092846000945b838610611dd1575050505001019038808080611d9f565b805485870183015294019385908201611dba565b9294505050602093945060ff191683830152151560051b01019038808080611d9f565b15611e0f57565b606460405162461bcd60e51b815260206004820152602060248201527f526567697374726174696f6e206e756d62657220616c726561647920757365646044820152fd5b818110611e5e575050565b60008155600101611e53565b9190601f8111611e7957505050565b611ea5926000526020600020906020601f840160051c83019310611ea7575b601f0160051c0190611e53565b565b9091508190611e98565b91909182516001600160401b03811161099b57611ed881611ed28454611d38565b84611e6a565b602080601f8311600114611f14575081929394600092611f09575b50508160011b916000199060031b1c1916179055565b015190503880611ef3565b90601f198316958460005282600020926000905b888210611f6057505083600195969710611f47575b505050811b019055565b015160001960f88460031b161c19169055388080611f3d565b80600185968294968601518155019501930190611f28565b8054600160401b81101561099b57611f9591600182018155611d20565b91909161139157611ea591611eb1565b91908203918211611fb257565b634e487b7160e01b600052601160045260246000fd5b611fe090602060405192828480945193849201611ae8565b810103902090565b15611fef57565b60405162461bcd60e51b815260206004820152602a60248201527f4f6e6c7920636f6e7472616374206f776e65722063616e2063616c6c207468696044820152693990333ab731ba34b7b760b11b6064820152608490fd5b1561204e57565b60405162461bcd60e51b815260206004820152601160248201527015995a1a58db19481b9bdd08199bdd5b99607a1b6044820152606490fd5b1561208e57565b60405162461bcd60e51b815260206004820152602960248201527f4f6e6c792076656869636c65206f776e65722063616e2063616c6c207468697360448201526810333ab731ba34b7b760b91b6064820152608490fd5b604051906120f282611a55565b8161024060609182815282602082015282604082015260009283818301528060808301528060a08301528060c08301528360e08301528061010083015283610120830152836101408301528361016083015283610180830152836101a0830152836101c0830152836101e0830152806102008301526102208201520152565b6000198114611fb25760010190565b60405190816000825461219281611d38565b936001918083169081156121f757506001146121ba575b505060209250600281520301902090565b90915060005260209081600020906000915b8583106121e35750505050602091810138806121a9565b8054878401528694509183019181016121cc565b92505050602093915060ff1916825280151502810138806121a9565b61221b6120e5565b50604080519180519260209081830194612236818388611ae8565b810194600495868152828460ff948593030190205416156124b0576000936005918254955b8681106122a157875162461bcd60e51b81526020818b018181526011918101919091527015995a1a58db19481b9bdd08199bdd5b99607a1b604082015281906060010390fd5b6122be6101cb6122ca6122b384611ce9565b506008938491612180565b018b5192838092611d72565b87815191012084518420146122e857506122e390612171565b61225b565b94979598965090506122fa9150611ce9565b5061230490612180565b9383519661231188611a55565b84518061231e8189611d72565b036123299082611a71565b88528451908161233c8160018a01611d72565b036123479083611a71565b88015283518061235a8160028901611d72565b036123659082611a71565b8488015260038501546060880152835180809287019061238491611d72565b0361238f9082611a71565b608087015282518080928601906123a591611d72565b036123b09082611a71565b60a08601528151806123c58160068701611d72565b036123d09082611a71565b60c0860152600783015460e086015281518080928501906123f091611d72565b036123fb9082611a71565b61010085015260098201546001600160a01b0316610120850152600a820154610140850152600b82015483161515610160850152600c820154610180850152600d8201546101a0850152600e820154831615156101c0850152600f8201546101e085015280518061246f8160108601611d72565b0361247a9082611a71565b610200850152518061248f8160118501611d72565b0361249a9082611a71565b6102208401526012015416151561024082015290565b845162461bcd60e51b8152808701849052601d60248201527f526567697374726174696f6e206e756d626572206e6f7420666f756e640000006044820152606490fd5b908082146125cb576125058154611d38565b906001600160401b03821161099b57819061252a826125248654611d38565b86611e6a565b600090601f8311600114612560576000926125555750508160011b916000199060031b1c1916179055565b015490503880611ef3565b81526020808220858352818320935090601f1985169083905b8282106125b257505090846001959493921061259957505050811b019055565b015460001960f88460031b161c19169055388080611f3d565b8495819295850154815560018091019601940190612579565b505056fea2646970667358221220d04b6c1d37fb8c602f0941f94f0db55f68b0d498f01fa7b41e45f1db72dea20264736f6c63430008110033",
  "immutableReferences": {},
  "source": "// SPDX-License-Identifier: MIT\r\npragma solidity ^0.8.0;\r\n\r\ncontract VehicleRegistration {\r\n    // Owner of the contract (government authority)\r\n    address public owner;\r\n    \r\n    // Treasury address where fees are collected\r\n    address public treasury;\r\n    \r\n    // Structure to store vehicle information\r\n    struct Vehicle {\r\n        string inspectionId;\r\n        string make;\r\n        string model;\r\n        uint256 year;\r\n        string engineNumber;\r\n        string chassisNumber;\r\n        string vehicleType;\r\n        uint256 engineCapacity;\r\n        string registrationNumber;\r\n        address vehicleOwner;\r\n        uint256 registrationFee;\r\n        bool registrationFeePaid;\r\n        uint256 registrationTimestamp;\r\n        uint256 taxAmount;\r\n        bool taxPaid;\r\n        uint256 taxPaidTimestamp;\r\n        string registrationTxHash;\r\n        string taxTxHash;\r\n        bool isActive;\r\n    }\r\n    \r\n    // Mappings\r\n    mapping(string => Vehicle) public vehicles; // inspectionId => Vehicle\r\n    mapping(address => string[]) public ownerVehicles; // owner => inspectionIds[]\r\n    mapping(string => bool) public registrationNumbers; // track used registration numbers\r\n    \r\n    // Arrays to keep track of all vehicles\r\n    string[] public allInspectionIds;\r\n    \r\n    // Events\r\n    event VehicleRegistered(\r\n        string indexed inspectionId,\r\n        address indexed owner,\r\n        string registrationNumber,\r\n        uint256 registrationFee,\r\n        uint256 timestamp\r\n    );\r\n    \r\n    event TaxPaid(\r\n        string indexed inspectionId,\r\n        address indexed owner,\r\n        uint256 taxAmount,\r\n        uint256 timestamp\r\n    );\r\n    \r\n    event RegistrationNumberUpdated(\r\n        string indexed inspectionId,\r\n        string newRegistrationNumber\r\n    );\r\n    \r\n    event TaxAmountSet(\r\n        string indexed inspectionId,\r\n        uint256 taxAmount\r\n    );\r\n    \r\n    // Modifiers\r\n    modifier onlyOwner() {\r\n        require(msg.sender == owner, \"Only contract owner can call this function\");\r\n        _;\r\n    }\r\n    \r\n    modifier vehicleExists(string memory _inspectionId) {\r\n        require(bytes(vehicles[_inspectionId].inspectionId).length > 0, \"Vehicle not found\");\r\n        _;\r\n    }\r\n    \r\n    modifier onlyVehicleOwner(string memory _inspectionId) {\r\n        require(vehicles[_inspectionId].vehicleOwner == msg.sender, \"Only vehicle owner can call this function\");\r\n        _;\r\n    }\r\n    \r\n    // Constructor\r\n    constructor(address _treasury) {\r\n        owner = msg.sender;\r\n        treasury = _treasury;\r\n    }\r\n    \r\n    // Register a new vehicle with registration fee payment\r\n    function registerVehicle(\r\n        string memory _inspectionId,\r\n        string memory _make,\r\n        string memory _model,\r\n        uint256 _year,\r\n        string memory _engineNumber,\r\n        string memory _chassisNumber,\r\n        string memory _vehicleType,\r\n        uint256 _engineCapacity,\r\n        string memory _registrationNumber,\r\n        uint256 _registrationFee,\r\n        string memory _registrationTxHash\r\n    ) external payable {\r\n        require(bytes(_inspectionId).length > 0, \"Inspection ID cannot be empty\");\r\n        require(bytes(vehicles[_inspectionId].inspectionId).length == 0, \"Vehicle already registered\");\r\n        require(msg.value >= _registrationFee, \"Insufficient registration fee\");\r\n        require(!registrationNumbers[_registrationNumber], \"Registration number already used\");\r\n        \r\n        // Create new vehicle record\r\n        Vehicle memory newVehicle = Vehicle({\r\n            inspectionId: _inspectionId,\r\n            make: _make,\r\n            model: _model,\r\n            year: _year,\r\n            engineNumber: _engineNumber,\r\n            chassisNumber: _chassisNumber,\r\n            vehicleType: _vehicleType,\r\n            engineCapacity: _engineCapacity,\r\n            registrationNumber: _registrationNumber,\r\n            vehicleOwner: msg.sender,\r\n            registrationFee: _registrationFee,\r\n            registrationFeePaid: true,\r\n            registrationTimestamp: block.timestamp,\r\n            taxAmount: 0, // Tax not set initially\r\n            taxPaid: false,\r\n            taxPaidTimestamp: 0,\r\n            registrationTxHash: _registrationTxHash,\r\n            taxTxHash: \"\",\r\n            isActive: true\r\n        });\r\n        \r\n        // Store vehicle data\r\n        vehicles[_inspectionId] = newVehicle;\r\n        ownerVehicles[msg.sender].push(_inspectionId);\r\n        allInspectionIds.push(_inspectionId);\r\n        registrationNumbers[_registrationNumber] = true;\r\n        \r\n        // Transfer registration fee to treasury\r\n        payable(treasury).transfer(_registrationFee);\r\n        \r\n        // Refund excess payment if any\r\n        if (msg.value > _registrationFee) {\r\n            payable(msg.sender).transfer(msg.value - _registrationFee);\r\n        }\r\n        \r\n        emit VehicleRegistered(_inspectionId, msg.sender, _registrationNumber, _registrationFee, block.timestamp);\r\n    }\r\n    \r\n    // Set tax amount for a vehicle (only owner can set)\r\n    function setTaxAmount(string memory _inspectionId, uint256 _taxAmount) \r\n        external \r\n        onlyOwner \r\n        vehicleExists(_inspectionId) \r\n    {\r\n        vehicles[_inspectionId].taxAmount = _taxAmount;\r\n        emit TaxAmountSet(_inspectionId, _taxAmount);\r\n    }\r\n    \r\n    // Pay tax for a vehicle\r\n    function payTax(string memory _inspectionId, string memory _taxTxHash) \r\n        external \r\n        payable \r\n        vehicleExists(_inspectionId) \r\n        onlyVehicleOwner(_inspectionId) \r\n    {\r\n        Vehicle storage vehicle = vehicles[_inspectionId];\r\n        require(vehicle.taxAmount > 0, \"Tax amount not set\");\r\n        require(!vehicle.taxPaid, \"Tax already paid\");\r\n        require(msg.value >= vehicle.taxAmount, \"Insufficient tax amount\");\r\n        \r\n        // Update tax payment status\r\n        vehicle.taxPaid = true;\r\n        vehicle.taxPaidTimestamp = block.timestamp;\r\n        vehicle.taxTxHash = _taxTxHash;\r\n        \r\n        // Transfer tax to treasury\r\n        payable(treasury).transfer(vehicle.taxAmount);\r\n        \r\n        // Refund excess payment if any\r\n        if (msg.value > vehicle.taxAmount) {\r\n            payable(msg.sender).transfer(msg.value - vehicle.taxAmount);\r\n        }\r\n        \r\n        emit TaxPaid(_inspectionId, msg.sender, vehicle.taxAmount, block.timestamp);\r\n    }\r\n    \r\n    // Get complete vehicle information\r\n    function getVehicle(string memory _inspectionId) \r\n        external \r\n        view \r\n        vehicleExists(_inspectionId) \r\n        returns (Vehicle memory) \r\n    {\r\n        return vehicles[_inspectionId];\r\n    }\r\n    \r\n    // Get vehicle by registration number\r\n    function getVehicleByRegistration(string memory _registrationNumber) \r\n        external \r\n        view \r\n        returns (Vehicle memory) \r\n    {\r\n        require(registrationNumbers[_registrationNumber], \"Registration number not found\");\r\n        \r\n        // Search through all vehicles to find by registration number\r\n        for (uint i = 0; i < allInspectionIds.length; i++) {\r\n            if (keccak256(bytes(vehicles[allInspectionIds[i]].registrationNumber)) == keccak256(bytes(_registrationNumber))) {\r\n                return vehicles[allInspectionIds[i]];\r\n            }\r\n        }\r\n        revert(\"Vehicle not found\");\r\n    }\r\n    \r\n    // Get all vehicles owned by an address\r\n    function getVehiclesByOwner(address _owner) \r\n        external \r\n        view \r\n        returns (string[] memory) \r\n    {\r\n        return ownerVehicles[_owner];\r\n    }\r\n    \r\n    // Check if registration fee is paid\r\n    function isRegistrationFeePaid(string memory _inspectionId) \r\n        external \r\n        view \r\n        vehicleExists(_inspectionId) \r\n        returns (bool) \r\n    {\r\n        return vehicles[_inspectionId].registrationFeePaid;\r\n    }\r\n    \r\n    // Check if tax is paid\r\n    function isTaxPaid(string memory _inspectionId) \r\n        external \r\n        view \r\n        vehicleExists(_inspectionId) \r\n        returns (bool) \r\n    {\r\n        return vehicles[_inspectionId].taxPaid;\r\n    }\r\n    \r\n    // Get tax amount for a vehicle\r\n    function getTaxAmount(string memory _inspectionId) \r\n        external \r\n        view \r\n        vehicleExists(_inspectionId) \r\n        returns (uint256) \r\n    {\r\n        return vehicles[_inspectionId].taxAmount;\r\n    }\r\n    \r\n    // Get payment status for a vehicle\r\n    function getPaymentStatus(string memory _inspectionId) \r\n        external \r\n        view \r\n        vehicleExists(_inspectionId) \r\n        returns (bool registrationPaid, bool taxPaid, uint256 taxAmount) \r\n    {\r\n        Vehicle memory vehicle = vehicles[_inspectionId];\r\n        return (vehicle.registrationFeePaid, vehicle.taxPaid, vehicle.taxAmount);\r\n    }\r\n    \r\n    // Update registration number (only owner)\r\n    function updateRegistrationNumber(string memory _inspectionId, string memory _newRegistrationNumber) \r\n        external \r\n        onlyOwner \r\n        vehicleExists(_inspectionId) \r\n    {\r\n        require(!registrationNumbers[_newRegistrationNumber], \"Registration number already used\");\r\n        \r\n        string memory oldRegistrationNumber = vehicles[_inspectionId].registrationNumber;\r\n        \r\n        // Update registration number\r\n        vehicles[_inspectionId].registrationNumber = _newRegistrationNumber;\r\n        \r\n        // Update mappings\r\n        registrationNumbers[oldRegistrationNumber] = false;\r\n        registrationNumbers[_newRegistrationNumber] = true;\r\n        \r\n        emit RegistrationNumberUpdated(_inspectionId, _newRegistrationNumber);\r\n    }\r\n    \r\n    // Transfer vehicle ownership\r\n    function transferOwnership(string memory _inspectionId, address _newOwner) \r\n        external \r\n        vehicleExists(_inspectionId) \r\n        onlyVehicleOwner(_inspectionId) \r\n    {\r\n        require(_newOwner != address(0), \"Invalid new owner address\");\r\n        \r\n        address oldOwner = vehicles[_inspectionId].vehicleOwner;\r\n        vehicles[_inspectionId].vehicleOwner = _newOwner;\r\n        \r\n        // Update owner vehicles mapping\r\n        ownerVehicles[_newOwner].push(_inspectionId);\r\n        \r\n        // Remove from old owner's list\r\n        string[] storage oldOwnerVehicles = ownerVehicles[oldOwner];\r\n        for (uint i = 0; i < oldOwnerVehicles.length; i++) {\r\n            if (keccak256(bytes(oldOwnerVehicles[i])) == keccak256(bytes(_inspectionId))) {\r\n                oldOwnerVehicles[i] = oldOwnerVehicles[oldOwnerVehicles.length - 1];\r\n                oldOwnerVehicles.pop();\r\n                break;\r\n            }\r\n        }\r\n    }\r\n    \r\n    // Get total number of registered vehicles\r\n    function getTotalVehicles() external view returns (uint256) {\r\n        return allInspectionIds.length;\r\n    }\r\n    \r\n    // Emergency functions (only owner)\r\n    function updateTreasury(address _newTreasury) external onlyOwner {\r\n        treasury = _newTreasury;\r\n    }\r\n    \r\n    function emergencyWithdraw() external onlyOwner {\r\n        payable(owner).transfer(address(this).balance);\r\n    }\r\n    \r\n    // Deactivate a vehicle (in case of stolen/scrapped)\r\n    function deactivateVehicle(string memory _inspectionId) \r\n        external \r\n        onlyOwner \r\n        vehicleExists(_inspectionId) \r\n    {\r\n        vehicles[_inspectionId].isActive = false;\r\n    }\r\n    \r\n    // Reactivate a vehicle\r\n    function reactivateVehicle(string memory _inspectionId) \r\n        external \r\n        onlyOwner \r\n        vehicleExists(_inspectionId) \r\n    {\r\n        vehicles[_inspectionId].isActive = true;\r\n    }\r\n    \r\n    // Check if vehicle is active\r\n    function isVehicleActive(string memory _inspectionId) \r\n        external \r\n        view \r\n        vehicleExists(_inspectionId) \r\n        returns (bool) \r\n    {\r\n        return vehicles[_inspectionId].isActive;\r\n    }\r\n  }",
  "sourcePath": "F:\\TaxTron-FYP\\taxtron\\backend\\contracts\\VehicleRegistration.sol",
  "compiler": {
    "name": "solc",
    "version": "0.8.17+commit.8df45f5f.Emscripten.clang"
  },
  "schemaVersion": "3.4.16",
  "updatedAt": "2025-06-14T20:29:32.565Z",
  "networkType": "ethereum",
  "devdoc": {
    "kind": "dev",
    "methods": {},
    "version": 1
  },
  "userdoc": {
    "kind": "user",
    "methods": {},
    "version": 1
  }
}