{
  "contractName": "VehicleNFT",
  "abi": [
    {
      "inputs": [],
      "stateMutability": "nonpayable",
      "type": "constructor"
    },
    {
      "anonymous": false,
      "inputs": [
        {
          "indexed": true,
          "internalType": "address",
          "name": "owner",
          "type": "address"
        },
        {
          "indexed": true,
          "internalType": "address",
          "name": "approved",
          "type": "address"
        },
        {
          "indexed": true,
          "internalType": "uint256",
          "name": "tokenId",
          "type": "uint256"
        }
      ],
      "name": "Approval",
      "type": "event"
    },
    {
      "anonymous": false,
      "inputs": [
        {
          "indexed": true,
          "internalType": "address",
          "name": "owner",
          "type": "address"
        },
        {
          "indexed": true,
          "internalType": "address",
          "name": "operator",
          "type": "address"
        },
        {
          "indexed": false,
          "internalType": "bool",
          "name": "approved",
          "type": "bool"
        }
      ],
      "name": "ApprovalForAll",
      "type": "event"
    },
    {
      "anonymous": false,
      "inputs": [
        {
          "indexed": false,
          "internalType": "uint256",
          "name": "_fromTokenId",
          "type": "uint256"
        },
        {
          "indexed": false,
          "internalType": "uint256",
          "name": "_toTokenId",
          "type": "uint256"
        }
      ],
      "name": "BatchMetadataUpdate",
      "type": "event"
    },
    {
      "anonymous": false,
      "inputs": [
        {
          "indexed": false,
          "internalType": "uint256",
          "name": "_tokenId",
          "type": "uint256"
        }
      ],
      "name": "MetadataUpdate",
      "type": "event"
    },
    {
      "anonymous": false,
      "inputs": [
        {
          "indexed": true,
          "internalType": "address",
          "name": "previousOwner",
          "type": "address"
        },
        {
          "indexed": true,
          "internalType": "address",
          "name": "newOwner",
          "type": "address"
        }
      ],
      "name": "OwnershipTransferred",
      "type": "event"
    },
    {
      "anonymous": false,
      "inputs": [
        {
          "indexed": true,
          "internalType": "address",
          "name": "from",
          "type": "address"
        },
        {
          "indexed": true,
          "internalType": "address",
          "name": "to",
          "type": "address"
        },
        {
          "indexed": true,
          "internalType": "uint256",
          "name": "tokenId",
          "type": "uint256"
        }
      ],
      "name": "Transfer",
      "type": "event"
    },
    {
      "anonymous": false,
      "inputs": [
        {
          "indexed": true,
          "internalType": "uint256",
          "name": "tokenId",
          "type": "uint256"
        },
        {
          "indexed": true,
          "internalType": "string",
          "name": "inspectionId",
          "type": "string"
        },
        {
          "indexed": true,
          "internalType": "address",
          "name": "owner",
          "type": "address"
        },
        {
          "indexed": false,
          "internalType": "string",
          "name": "tokenURI",
          "type": "string"
        },
        {
          "indexed": false,
          "internalType": "string",
          "name": "make",
          "type": "string"
        },
        {
          "indexed": false,
          "internalType": "string",
          "name": "model",
          "type": "string"
        },
        {
          "indexed": false,
          "internalType": "string",
          "name": "registrationNumber",
          "type": "string"
        }
      ],
      "name": "VehicleNFTMinted",
      "type": "event"
    },
    {
      "inputs": [
        {
          "internalType": "address",
          "name": "to",
          "type": "address"
        },
        {
          "internalType": "uint256",
          "name": "tokenId",
          "type": "uint256"
        }
      ],
      "name": "approve",
      "outputs": [],
      "stateMutability": "nonpayable",
      "type": "function"
    },
    {
      "inputs": [
        {
          "internalType": "address",
          "name": "owner",
          "type": "address"
        }
      ],
      "name": "balanceOf",
      "outputs": [
        {
          "internalType": "uint256",
          "name": "",
          "type": "uint256"
        }
      ],
      "stateMutability": "view",
      "type": "function",
      "constant": true
    },
    {
      "inputs": [
        {
          "internalType": "uint256",
          "name": "tokenId",
          "type": "uint256"
        }
      ],
      "name": "getApproved",
      "outputs": [
        {
          "internalType": "address",
          "name": "",
          "type": "address"
        }
      ],
      "stateMutability": "view",
      "type": "function",
      "constant": true
    },
    {
      "inputs": [
        {
          "internalType": "string",
          "name": "",
          "type": "string"
        }
      ],
      "name": "inspectionToTokenId",
      "outputs": [
        {
          "internalType": "uint256",
          "name": "",
          "type": "uint256"
        }
      ],
      "stateMutability": "view",
      "type": "function",
      "constant": true
    },
    {
      "inputs": [
        {
          "internalType": "address",
          "name": "owner",
          "type": "address"
        },
        {
          "internalType": "address",
          "name": "operator",
          "type": "address"
        }
      ],
      "name": "isApprovedForAll",
      "outputs": [
        {
          "internalType": "bool",
          "name": "",
          "type": "bool"
        }
      ],
      "stateMutability": "view",
      "type": "function",
      "constant": true
    },
    {
      "inputs": [],
      "name": "name",
      "outputs": [
        {
          "internalType": "string",
          "name": "",
          "type": "string"
        }
      ],
      "stateMutability": "view",
      "type": "function",
      "constant": true
    },
    {
      "inputs": [
        {
          "internalType": "string",
          "name": "",
          "type": "string"
        }
      ],
      "name": "nftMinted",
      "outputs": [
        {
          "internalType": "bool",
          "name": "",
          "type": "bool"
        }
      ],
      "stateMutability": "view",
      "type": "function",
      "constant": true
    },
    {
      "inputs": [],
      "name": "owner",
      "outputs": [
        {
          "internalType": "address",
          "name": "",
          "type": "address"
        }
      ],
      "stateMutability": "view",
      "type": "function",
      "constant": true
    },
    {
      "inputs": [
        {
          "internalType": "uint256",
          "name": "tokenId",
          "type": "uint256"
        }
      ],
      "name": "ownerOf",
      "outputs": [
        {
          "internalType": "address",
          "name": "",
          "type": "address"
        }
      ],
      "stateMutability": "view",
      "type": "function",
      "constant": true
    },
    {
      "inputs": [],
      "name": "renounceOwnership",
      "outputs": [],
      "stateMutability": "nonpayable",
      "type": "function"
    },
    {
      "inputs": [
        {
          "internalType": "address",
          "name": "from",
          "type": "address"
        },
        {
          "internalType": "address",
          "name": "to",
          "type": "address"
        },
        {
          "internalType": "uint256",
          "name": "tokenId",
          "type": "uint256"
        }
      ],
      "name": "safeTransferFrom",
      "outputs": [],
      "stateMutability": "nonpayable",
      "type": "function"
    },
    {
      "inputs": [
        {
          "internalType": "address",
          "name": "from",
          "type": "address"
        },
        {
          "internalType": "address",
          "name": "to",
          "type": "address"
        },
        {
          "internalType": "uint256",
          "name": "tokenId",
          "type": "uint256"
        },
        {
          "internalType": "bytes",
          "name": "data",
          "type": "bytes"
        }
      ],
      "name": "safeTransferFrom",
      "outputs": [],
      "stateMutability": "nonpayable",
      "type": "function"
    },
    {
      "inputs": [
        {
          "internalType": "address",
          "name": "operator",
          "type": "address"
        },
        {
          "internalType": "bool",
          "name": "approved",
          "type": "bool"
        }
      ],
      "name": "setApprovalForAll",
      "outputs": [],
      "stateMutability": "nonpayable",
      "type": "function"
    },
    {
      "inputs": [],
      "name": "symbol",
      "outputs": [
        {
          "internalType": "string",
          "name": "",
          "type": "string"
        }
      ],
      "stateMutability": "view",
      "type": "function",
      "constant": true
    },
    {
      "inputs": [
        {
          "internalType": "uint256",
          "name": "",
          "type": "uint256"
        }
      ],
      "name": "tokenIdToInspection",
      "outputs": [
        {
          "internalType": "string",
          "name": "",
          "type": "string"
        }
      ],
      "stateMutability": "view",
      "type": "function",
      "constant": true
    },
    {
      "inputs": [
        {
          "internalType": "address",
          "name": "from",
          "type": "address"
        },
        {
          "internalType": "address",
          "name": "to",
          "type": "address"
        },
        {
          "internalType": "uint256",
          "name": "tokenId",
          "type": "uint256"
        }
      ],
      "name": "transferFrom",
      "outputs": [],
      "stateMutability": "nonpayable",
      "type": "function"
    },
    {
      "inputs": [
        {
          "internalType": "address",
          "name": "newOwner",
          "type": "address"
        }
      ],
      "name": "transferOwnership",
      "outputs": [],
      "stateMutability": "nonpayable",
      "type": "function"
    },
    {
      "inputs": [
        {
          "internalType": "string",
          "name": "",
          "type": "string"
        }
      ],
      "name": "vehicleInfo",
      "outputs": [
        {
          "internalType": "string",
          "name": "make",
          "type": "string"
        },
        {
          "internalType": "string",
          "name": "model",
          "type": "string"
        },
        {
          "internalType": "string",
          "name": "year",
          "type": "string"
        },
        {
          "internalType": "string",
          "name": "vehicleType",
          "type": "string"
        },
        {
          "internalType": "string",
          "name": "registrationNumber",
          "type": "string"
        },
        {
          "internalType": "address",
          "name": "mintedTo",
          "type": "address"
        },
        {
          "internalType": "uint256",
          "name": "mintTimestamp",
          "type": "uint256"
        }
      ],
      "stateMutability": "view",
      "type": "function",
      "constant": true
    },
    {
      "inputs": [
        {
          "internalType": "string",
          "name": "inspectionId",
          "type": "string"
        },
        {
          "internalType": "address",
          "name": "to",
          "type": "address"
        },
        {
          "internalType": "string",
          "name": "tokenURI",
          "type": "string"
        }
      ],
      "name": "mintVehicleNFT",
      "outputs": [
        {
          "internalType": "uint256",
          "name": "",
          "type": "uint256"
        }
      ],
      "stateMutability": "nonpayable",
      "type": "function"
    },
    {
      "inputs": [
        {
          "internalType": "string",
          "name": "inspectionId",
          "type": "string"
        },
        {
          "internalType": "address",
          "name": "to",
          "type": "address"
        },
        {
          "internalType": "string",
          "name": "tokenURI",
          "type": "string"
        },
        {
          "internalType": "string",
          "name": "make",
          "type": "string"
        },
        {
          "internalType": "string",
          "name": "model",
          "type": "string"
        },
        {
          "internalType": "string",
          "name": "year",
          "type": "string"
        },
        {
          "internalType": "string",
          "name": "vehicleType",
          "type": "string"
        },
        {
          "internalType": "string",
          "name": "registrationNumber",
          "type": "string"
        }
      ],
      "name": "mintVehicleNFT",
      "outputs": [
        {
          "internalType": "uint256",
          "name": "",
          "type": "uint256"
        }
      ],
      "stateMutability": "nonpayable",
      "type": "function"
    },
    {
      "inputs": [
        {
          "internalType": "string",
          "name": "inspectionId",
          "type": "string"
        }
      ],
      "name": "getTokenIdByInspection",
      "outputs": [
        {
          "internalType": "uint256",
          "name": "",
          "type": "uint256"
        }
      ],
      "stateMutability": "view",
      "type": "function",
      "constant": true
    },
    {
      "inputs": [
        {
          "internalType": "uint256",
          "name": "tokenId",
          "type": "uint256"
        }
      ],
      "name": "getInspectionByTokenId",
      "outputs": [
        {
          "internalType": "string",
          "name": "",
          "type": "string"
        }
      ],
      "stateMutability": "view",
      "type": "function",
      "constant": true
    },
    {
      "inputs": [
        {
          "internalType": "string",
          "name": "inspectionId",
          "type": "string"
        }
      ],
      "name": "nftExistsForInspection",
      "outputs": [
        {
          "internalType": "bool",
          "name": "",
          "type": "bool"
        }
      ],
      "stateMutability": "view",
      "type": "function",
      "constant": true
    },
    {
      "inputs": [
        {
          "internalType": "string",
          "name": "inspectionId",
          "type": "string"
        }
      ],
      "name": "getVehicleInfo",
      "outputs": [
        {
          "internalType": "string",
          "name": "make",
          "type": "string"
        },
        {
          "internalType": "string",
          "name": "model",
          "type": "string"
        },
        {
          "internalType": "string",
          "name": "year",
          "type": "string"
        },
        {
          "internalType": "string",
          "name": "vehicleType",
          "type": "string"
        },
        {
          "internalType": "string",
          "name": "registrationNumber",
          "type": "string"
        },
        {
          "internalType": "address",
          "name": "mintedTo",
          "type": "address"
        },
        {
          "internalType": "uint256",
          "name": "mintTimestamp",
          "type": "uint256"
        }
      ],
      "stateMutability": "view",
      "type": "function",
      "constant": true
    },
    {
      "inputs": [
        {
          "internalType": "uint256",
          "name": "tokenId",
          "type": "uint256"
        }
      ],
      "name": "getVehicleDetailsByTokenId",
      "outputs": [
        {
          "internalType": "string",
          "name": "make",
          "type": "string"
        },
        {
          "internalType": "string",
          "name": "model",
          "type": "string"
        },
        {
          "internalType": "string",
          "name": "year",
          "type": "string"
        },
        {
          "internalType": "string",
          "name": "vehicleType",
          "type": "string"
        },
        {
          "internalType": "string",
          "name": "registrationNumber",
          "type": "string"
        },
        {
          "internalType": "string",
          "name": "inspectionId",
          "type": "string"
        },
        {
          "internalType": "address",
          "name": "mintedTo",
          "type": "address"
        },
        {
          "internalType": "uint256",
          "name": "mintTimestamp",
          "type": "uint256"
        }
      ],
      "stateMutability": "view",
      "type": "function",
      "constant": true
    },
    {
      "inputs": [],
      "name": "totalSupply",
      "outputs": [
        {
          "internalType": "uint256",
          "name": "",
          "type": "uint256"
        }
      ],
      "stateMutability": "view",
      "type": "function",
      "constant": true
    },
    {
      "inputs": [
        {
          "internalType": "string",
          "name": "inspectionId",
          "type": "string"
        },
        {
          "internalType": "address",
          "name": "to",
          "type": "address"
        },
        {
          "internalType": "string",
          "name": "tokenURI",
          "type": "string"
        },
        {
          "internalType": "string",
          "name": "make",
          "type": "string"
        },
        {
          "internalType": "string",
          "name": "model",
          "type": "string"
        },
        {
          "internalType": "string",
          "name": "year",
          "type": "string"
        },
        {
          "internalType": "string",
          "name": "vehicleType",
          "type": "string"
        },
        {
          "internalType": "string",
          "name": "registrationNumber",
          "type": "string"
        }
      ],
      "name": "adminMintNFT",
      "outputs": [
        {
          "internalType": "uint256",
          "name": "",
          "type": "uint256"
        }
      ],
      "stateMutability": "nonpayable",
      "type": "function"
    },
    {
      "inputs": [
        {
          "internalType": "uint256",
          "name": "tokenId",
          "type": "uint256"
        }
      ],
      "name": "tokenURI",
      "outputs": [
        {
          "internalType": "string",
          "name": "",
          "type": "string"
        }
      ],
      "stateMutability": "view",
      "type": "function",
      "constant": true
    },
    {
      "inputs": [
        {
          "internalType": "bytes4",
          "name": "interfaceId",
          "type": "bytes4"
        }
      ],
      "name": "supportsInterface",
      "outputs": [
        {
          "internalType": "bool",
          "name": "",
          "type": "bool"
        }
      ],
      "stateMutability": "view",
      "type": "function",
      "constant": true
    }
  ],
  "bytecode": "0x6080346200036c576001600160401b039060408181018381118382101762000356578152601782526020917f56656869636c65204365727469666963617465204e465400000000000000000083820152815193828501858110828211176200035657835260058552641590d3919560da1b84860152815181811162000356576000948554916001948584811c941680156200034b575b8385101462000337578190601f94858111620002e4575b5083908583116001146200028057899262000274575b5050600019600383901b1c191690851b1786555b8651928311620002605783548481811c9116801562000255575b828210146200024157828111620001f9575b50809183116001146200019257508495829394959262000186575b5050600019600383901b1c191690821b1790555b60078054336001600160a01b03198216811790925591519290916001600160a01b0316907f8be0079c531659141344cd1fd0a4f28419497f9722a3daafe3b4186f6b6457e09080a36125d79081620003728239f35b0151905038806200011d565b90601f198316968487528287209287905b898210620001e1575050838596979810620001c7575b505050811b01905562000131565b015160001960f88460031b161c19169055388080620001b9565b808785968294968601518155019501930190620001a3565b8487528187208380860160051c82019284871062000237575b0160051c019085905b8281106200022b57505062000102565b8881550185906200021b565b9250819262000212565b634e487b7160e01b87526022600452602487fd5b90607f1690620000f0565b634e487b7160e01b86526041600452602486fd5b015190503880620000c2565b898052848a208894509190601f1984168b5b87828210620002cd5750508411620002b3575b505050811b018655620000d6565b015160001960f88460031b161c19169055388080620002a5565b8385015186558b9790950194938401930162000292565b9091508880528389208580850160051c8201928686106200032d575b918991869594930160051c01915b8281106200031e575050620000ac565b8b81558594508991016200030e565b9250819262000300565b634e487b7160e01b88526022600452602488fd5b93607f169362000095565b634e487b7160e01b600052604160045260246000fd5b600080fdfe608060408181526004908136101561001657600080fd5b600092833560e01c90816301ffc9a714610f045750806306fdde0314610e5c578063081812fc14610e3c578063089fb0ac14610d9e578063095ea7b314610c3057806318160ddd14610c1157806323b872dd14610bec578063317d70f114610b9e57806342842e0e14610b6a5780636352211e14610b3957806370a0823114610aa3578063715018a614610a465780637c249495146106575780638da5cb5b14610a1d57806395d89b411461093a578063a22cb46514610870578063a3f2a14d14610826578063a5ec4802146107f9578063ab32c508146106f5578063b37a6d1e146106b8578063b8859a4414610657578063b88d4fde146105ce578063c02d2be41461051e578063c87b56dd146104a9578063d01f3bdf1461047d578063d99f47f2146103f6578063e985e9c5146103a4578063f2fde38b146102dd5763f5348e711461016357600080fd5b346102d957602092836003193601126102d6578235600081815260026020526040902054839291906001600160a01b0316151561019f9061255e565b8152600a8552206101af906110ee565b908051848184518181848801916101c592610f8a565b8101600c815203019020918151916101dc83610fd2565b6101e5846110ee565b83526101f3600185016110ee565b83870190815294610206600286016110ee565b84830190815290610219600387016110ee565b9060608601918252860161022c906110ee565b92836080870152600160a01b60019003600588015416968760a088015260060154958660c082015251975192519151928151998a99610100808c528b0161027291610fad565b908a8203908b015261028391610fad565b908882039089015261029491610fad565b86810360608801526102a591610fad565b85810360808701526102b691610fad565b84810360a08601526102c791610fad565b9160c084015260e08301520390f35b80fd5b8280fd5b5090346102d95760203660031901126102d9576102f8611208565b90610301611333565b6001600160a01b03918216928315610352575050600754826001600160601b0360a01b821617600755167f8be0079c531659141344cd1fd0a4f28419497f9722a3daafe3b4186f6b6457e08380a380f35b906020608492519162461bcd60e51b8352820152602660248201527f4f776e61626c653a206e6577206f776e657220697320746865207a65726f206160448201526564647265737360d01b6064820152fd5b8382346103f257806003193601126103f25760ff816020936103c4611208565b6103cc61121e565b6001600160a01b0391821683526005875283832091168252855220549151911615158152f35b5080fd5b5082346102d65760203660031901126102d6578235906001600160401b0382116102d65750602061042e819461046b93369101611096565b83519061045b60ff82519385818186019661044a81838a610f8a565b8101600b8152030190205416612507565b8451938492839251928391610f8a565b81016009815203019020549051908152f35b8382346103f2576020906104a261049336611269565b96959095949194939293611891565b9051908152f35b508290346103f25760203660031901126103f25761051a92356104e96104e482600052600260205260018060a01b0360406000205416151590565b61138b565b825260066020526104fb8183206110ee565b91815161050781611003565b5251918291602083526020830190610fad565b0390f35b5090346102d95760603660031901126102d9576001600160401b0381358181116105ca5761054f9036908401611096565b9161055861121e565b916044359081116105c657916105786104a2949260209794369101611096565b855161058381611003565b84815286519161059283611003565b8583528751936105a185611003565b8685528851956105b087611003565b8787528951976105bf89611003565b8852611891565b8580fd5b8480fd5b5050346103f25760803660031901126103f2576105e9611208565b906105f261121e565b91604435606435936001600160401b0385116105c657366023860112156105c65761062c61064f948660246106549836930135910161105a565b9261063f61063a8433611511565b611438565b61064a8383836115d9565b611806565b6114ed565b80f35b5082346102d65760203660031901126102d6578235906001600160401b0382116102d657506106a36020610691819560ff94369101611096565b81855193828580945193849201610f8a565b8101600b815203019020541690519015158152f35b5090346102d95760203660031901126102d9578161051a936106e292358152600a602052206110ee565b9051918291602083526020830190610fad565b5091346102d65760203660031901126102d6578135906001600160401b0382116102d6575061075b602061072f61051a9336908601611096565b85519061074b60ff82519385818186019661044a81838a610f8a565b8651938492839251928391610f8a565b8101600c81520301902083519061077182610fd2565b61077a816110ee565b8252610788600182016110ee565b936020830194855261079c600283016110ee565b958084019687526107c16107b2600385016110ee565b926060860193845284016110ee565b91826080860152600660018060a01b03600586015416948560a08801520154948560c082015251965197519051915197889788611194565b8382346103f2576020906104a261080f36611269565b96610821969196959295949394611333565b611891565b5082346102d65760203660031901126102d6578235906001600160401b0382116102d65750602061085e819461046b93369101611096565b81845193828580945193849201610f8a565b50346102d957806003193601126102d957610889611208565b90602435918215158093036105ca576001600160a01b0316923384146108f85750338452600560205280842083855260205280842060ff1981541660ff8416179055519081527f17307eab39ab6107e8899845ad3d59bd9653f200f220920489ca2b5937696c3160203392a380f35b6020606492519162461bcd60e51b8352820152601960248201527f4552433732313a20617070726f766520746f2063616c6c6572000000000000006044820152fd5b8382346103f257816003193601126103f25780519082600180549161095e836110b4565b808652928281169081156109f55750600114610999575b5050506109878261051a94038361101e565b51918291602083526020830190610fad565b94508085527fb10e2d527612073b26eecdfd717e6a320cf44b4afac2b0732d9fcbe2b7fa0cf65b8286106109dd5750505061098782602061051a9582010194610975565b805460208787018101919091529095019481016109c0565b61051a97508693506020925061098794915060ff191682840152151560051b82010194610975565b8382346103f257816003193601126103f25760075490516001600160a01b039091168152602090f35b83346102d657806003193601126102d657610a5f611333565b600780546001600160a01b0319811690915581906001600160a01b03167f8be0079c531659141344cd1fd0a4f28419497f9722a3daafe3b4186f6b6457e08280a380f35b509190346103f25760203660031901126103f2576001600160a01b03610ac7611208565b16908115610ae45760208480858581526003845220549051908152f35b608490602085519162461bcd60e51b8352820152602960248201527f4552433732313a2061646472657373207a65726f206973206e6f7420612076616044820152683634b21037bbb732b960b91b6064820152fd5b5082346102d65760203660031901126102d65750610b59602092356113d7565b90516001600160a01b039091168152f35b8382346103f25761064f61065491610b8136611234565b91925192610b8e84611003565b86845261063f61063a8433611511565b5090346102d95760203660031901126102d9573560008181526002602052604090205461051a936106e2928492610bdf906001600160a01b0316151561255e565b8152600a602052206110ee565b83346102d657610654610bfe36611234565b91610c0c61063a8433611511565b6115d9565b8382346103f257816003193601126103f2576020906008549051908152f35b5090346102d957816003193601126102d957610c4a611208565b6024359290916001600160a01b0391908280610c65876113d7565b16941693808514610d5157803314908115610d32575b5015610cca57848652602052842080546001600160a01b03191683179055610ca2836113d7565b167f8c5be1e5ebec7d5bd14f71427d1e84f3dd0314c0f7b2291e5b200ac8c7c3b9258480a480f35b6020608492519162461bcd60e51b8352820152603d60248201527f4552433732313a20617070726f76652063616c6c6572206973206e6f7420746f60448201527f6b656e206f776e6572206f7220617070726f76656420666f7220616c6c0000006064820152fd5b90508652600560205281862033875260205260ff828720541638610c7b565b506020608492519162461bcd60e51b8352820152602160248201527f4552433732313a20617070726f76616c20746f2063757272656e74206f776e656044820152603960f91b6064820152fd5b5082346102d65760203660031901126102d6578235906001600160401b0382116102d65750610dd8602061069161051a9336908701611096565b8101600c81520301902091610dec836110ee565b92610df9600182016110ee565b94610e06600283016110ee565b90610e1e610e16600385016110ee565b9184016110ee565b91600660018060a01b03600586015416940154945197889788611194565b5082346102d65760203660031901126102d65750610b59602092356113fa565b8382346103f257816003193601126103f257805190828054610e7d816110b4565b808552916001918083169081156109f55750600114610ea8575050506109878261051a94038361101e565b80809650527f290decd9548b62a8d60345a988386fc84ba6bc95484008f6362f93160ef3e5635b828610610eec5750505061098782602061051a9582010194610975565b80546020878701810191909152909501948101610ecf565b849084346102d95760203660031901126102d9573563ffffffff60e01b81168091036102d95760209250632483248360e11b8114908115610f47575b5015158152f35b6380ac58cd60e01b811491508115610f79575b8115610f68575b5083610f40565b6301ffc9a760e01b14905083610f61565b635b5e139f60e01b81149150610f5a565b60005b838110610f9d5750506000910152565b8181015183820152602001610f8d565b90602091610fc681518092818552858086019101610f8a565b601f01601f1916010190565b60e081019081106001600160401b03821117610fed57604052565b634e487b7160e01b600052604160045260246000fd5b602081019081106001600160401b03821117610fed57604052565b90601f801991011681019081106001600160401b03821117610fed57604052565b6001600160401b038111610fed57601f01601f191660200190565b9291926110668261103f565b91611074604051938461101e565b829481845281830111611091578281602093846000960137010152565b600080fd5b9080601f83011215611091578160206110b19335910161105a565b90565b90600182811c921680156110e4575b60208310146110ce57565b634e487b7160e01b600052602260045260246000fd5b91607f16916110c3565b9060405191826000825492611102846110b4565b908184526001948581169081600014611171575060011461112e575b505061112c9250038361101e565b565b9093915060005260209081600020936000915b81831061115957505061112c9350820101388061111e565b85548884018501529485019487945091830191611141565b91505061112c94506020925060ff191682840152151560051b820101388061111e565b936111d86111f4946111ca60c098956111bc6111e6969d9c9b9d60e08b5260e08b0190610fad565b9089820360208b0152610fad565b908782036040890152610fad565b908582036060870152610fad565b908382036080850152610fad565b6001600160a01b0390951660a08201520152565b600435906001600160a01b038216820361109157565b602435906001600160a01b038216820361109157565b6060906003190112611091576001600160a01b0390600435828116810361109157916024359081168103611091579060443590565b610100600319820112611091576004916001600160401b039083358281116110915783611297918601611096565b936024356001600160a01b0381168103611091579360443584811161109157816112c2918401611096565b9360643581811161109157826112d9918501611096565b9360843582811161109157836112f0918601611096565b9360a4358381116110915784611307918301611096565b9360c435848111611091578161131e918401611096565b9360e435908111611091576110b19201611096565b6007546001600160a01b0316330361134757565b606460405162461bcd60e51b815260206004820152602060248201527f4f776e61626c653a2063616c6c6572206973206e6f7420746865206f776e65726044820152fd5b1561139257565b60405162461bcd60e51b815260206004820152601860248201527f4552433732313a20696e76616c696420746f6b656e20494400000000000000006044820152606490fd5b6000908152600260205260409020546001600160a01b03166110b181151561138b565b60008181526002602052604090205461141d906001600160a01b0316151561138b565b6000908152600460205260409020546001600160a01b031690565b1561143f57565b60405162461bcd60e51b815260206004820152602d60248201527f4552433732313a2063616c6c6572206973206e6f7420746f6b656e206f776e6560448201526c1c881bdc88185c1c1c9bdd9959609a1b6064820152608490fd5b60809060208152603260208201527f4552433732313a207472616e7366657220746f206e6f6e20455243373231526560408201527131b2b4bb32b91034b6b83632b6b2b73a32b960711b60608201520190565b156114f457565b60405162461bcd60e51b81528061150d6004820161149a565b0390fd5b906001600160a01b038080611525846113d7565b16931691838314938415611558575b508315611542575b50505090565b61154e919293506113fa565b161438808061153c565b909350600052600560205260406000208260005260205260ff604060002054169238611534565b1561158657565b60405162461bcd60e51b815260206004820152602560248201527f4552433732313a207472616e736665722066726f6d20696e636f72726563742060448201526437bbb732b960d91b6064820152608490fd5b90611601916115e7846113d7565b6001600160a01b039391841692849290918316841461157f565b16918215611699578161161e91611617866113d7565b161461157f565b7fddf252ad1be2c89b69c2b068fc378daa952ba7f163c4a11628f55a4df523b3ef60008481526004602052604081206001600160601b0360a01b9081815416905583825260036020526040822060001981540190558482526040822060018154019055858252600260205284604083209182541617905580a4565b60405162461bcd60e51b8152602060048201526024808201527f4552433732313a207472616e7366657220746f20746865207a65726f206164646044820152637265737360e01b6064820152608490fd5b9192600092909190803b156117fc57611738946040518092630a85bd0160e11b9485835233600484015287602484015260448301526080606483015281878160209a8b966084830190610fad565b03926001600160a01b03165af18491816117bc575b506117ab575050503d6000146117a3573d6117678161103f565b90611775604051928361101e565b81528091833d92013e5b805191826117a05760405162461bcd60e51b81528061150d6004820161149a565b01fd5b50606061177f565b6001600160e01b0319161492509050565b9091508581813d83116117f5575b6117d4818361101e565b810103126105ca57516001600160e01b0319811681036105ca57903861174d565b503d6117ca565b5050915050600190565b9293600093909291803b15611886579484916118609660405180948193630a85bd0160e11b9788845233600485015260018060a01b0380921660248501526044840152608060648401528260209b8c976084830190610fad565b0393165af18491816117bc57506117ab575050503d6000146117a3573d6117678161103f565b505050915050600190565b979694979390919293805115612476576001600160a01b0383161561243f5760ff60405160208184516118c78183858901610f8a565b8101600b81520301902054166123ee5760085496600188016008556119a961064f6040516118f481611003565b60008082528b81526002602052604090205461191c906001600160a01b031615155b156124bb565b60008b81526002602052604090205461193f906001600160a01b03161515611916565b6001600160a01b0387166000818152600360209081526040808320805460010190558e83526002909152812080546001600160a01b031916831790558c91907fddf252ad1be2c89b69c2b068fc378daa952ba7f163c4a11628f55a4df523b3ef8180a48a876116ea565b6000888152600260205260409020546001600160a01b03161561239257876000526006602052604060002085516001600160401b038111610fed576119ee82546110b4565b601f811161234e575b50806020601f82116001146122e7576000916122dc575b508160011b916000199060031b1c19161790555b7ff8e1a15aba9398e019f0b49df1a4fde98ee17ae345cb5f6b5e2c27f5033e8ce760206040518a8152a1876040516020818551611a628183858a01610f8a565b810160098152030190205587600052600a602052604060002082516001600160401b038111610fed57611a9582546110b4565b601f8111612298575b50806020601f821160011461223157600091612226575b508160011b916000199060031b1c19161790555b6040516020818451611ade8183858901610f8a565b8101600b815203019020600160ff1982541617905560405199611b008b610fd2565b868b528360208c015260408b015260608a01528560808a015260018060a01b03831660a08a01524260c08a01526040516020818351611b428183858801610f8a565b8101600c81520301902089518051906001600160401b038211610fed578190611b6b84546110b4565b601f81116121d6575b50602090601f831160011461216a5760009261215f575b50508160011b916000199060031b1c19161781555b60208a01518051906001600160401b038211610fed578190611bc560018501546110b4565b601f811161210c575b50602090601f831160011461209a5760009261208f575b50508160011b916000199060031b1c19161760018201555b60408a01518051906001600160401b038211610fed578190611c2260028501546110b4565b601f811161203c575b50602090601f8311600114611fca57600092611fbf575b50508160011b916000199060031b1c19161760028201555b60608a01518051906001600160401b038211610fed578190611c7f60038501546110b4565b601f8111611f6c575b50602090601f8311600114611efa57600092611eef575b50508160011b916000199060031b1c19161760038201555b60808a0151998a516001600160401b038111610fed57611cda60048401546110b4565b9b601f8d11611ea4575b8a9b9c5060009a98999a50602090601f8311600114611df657611de595611db09895600660c0611dcc97877f900e2494d9e8ea8c594277b19fd4e792c0b2f20704db2852aa7911515a9438879e9c98611dbe98611d9698600092611deb575b50508160011b916000199060031b1c19161760048501555b6005840160018060a01b0360a0830151166001600160601b0360a01b8254161790550151910155602060405192828480945193849201610f8a565b810103902099604051978897608089526080890190610fad565b908782036020890152610fad565b908582036040870152610fad565b83810360608501526001600160a01b0390911697610fad565b0390a490565b015190503880611d43565b906004850160005260206000209160005b601f1985168110611e89575095611db09895600660c0611dcc976001887f900e2494d9e8ea8c594277b19fd4e792c0b2f20704db2852aa7911515a9438879f9d9998611d9698611de59e611dbe9b601f19811610611e70575b505050811b016004850155611d5b565b015160001960f88460031b161c19169055388080611e60565b8183015184558e9b5060019093019260209283019201611e07565b600484016000526020600020601f830160051c810160208410611ee8575b601f8f5b0160051c82018110611ed9575050611ce4565b60008155600101601f8f611ec6565b5080611ec2565b015190503880611c9f565b9250600384016000526020600020906000935b601f1984168510611f51576001945083601f19811610611f38575b505050811b016003820155611cb7565b015160001960f88460031b161c19169055388080611f28565b81810151835560209485019460019093019290910190611f0d565b909150600384016000526020600020601f840160051c810160208510611fb8575b90849392915b601f830160051c82018110611fa9575050611c88565b60008155859450600101611f93565b5080611f8d565b015190503880611c42565b9250600284016000526020600020906000935b601f1984168510612021576001945083601f19811610612008575b505050811b016002820155611c5a565b015160001960f88460031b161c19169055388080611ff8565b81810151835560209485019460019093019290910190611fdd565b909150600284016000526020600020601f840160051c810160208510612088575b90849392915b601f830160051c82018110612079575050611c2b565b60008155859450600101612063565b508061205d565b015190503880611be5565b9250600184016000526020600020906000935b601f19841685106120f1576001945083601f198116106120d8575b505050811b016001820155611bfd565b015160001960f88460031b161c191690553880806120c8565b818101518355602094850194600190930192909101906120ad565b909150600184016000526020600020601f840160051c810160208510612158575b90849392915b601f830160051c82018110612149575050611bce565b60008155859450600101612133565b508061212d565b015190503880611b8b565b9250836000526020600020906000935b601f19841685106121bb576001945083601f198116106121a2575b505050811b018155611ba0565b015160001960f88460031b161c19169055388080612195565b8181015183556020948501946001909301929091019061217a565b909150836000526020600020601f840160051c81016020851061221f575b90849392915b601f830160051c82018110612210575050611b74565b600081558594506001016121fa565b50806121f4565b905084015138611ab5565b91508260005260206000206000925b601f1983168410612280576001935082601f19811610612267575b5050811b019055611ac9565b86015160001960f88460031b161c19169055388061225b565b86810151825560209384019360019092019101612240565b826000526020600020601f830160051c8101602084106122d5575b601f830160051c820181106122c9575050611a9e565b600081556001016122b3565b50806122b3565b905087015138611a0e565b91508260005260206000206000925b601f1983168410612336576001935082601f1981161061231d575b5050811b019055611a22565b89015160001960f88460031b161c191690553880612311565b898101518255602093840193600190920191016122f6565b826000526020600020601f830160051c81016020841061238b575b601f830160051c8201811061237f5750506119f7565b60008155600101612369565b5080612369565b60405162461bcd60e51b815260206004820152602e60248201527f45524337323155524953746f726167653a2055524920736574206f66206e6f6e60448201526d32bc34b9ba32b73a103a37b5b2b760911b6064820152608490fd5b60405162461bcd60e51b815260206004820152602360248201527f4e465420616c7265616479206d696e74656420666f7220746869732076656869604482015262636c6560e81b6064820152608490fd5b60405162461bcd60e51b815260206004820152600f60248201526e496e76616c6964206164647265737360881b6044820152606490fd5b60405162461bcd60e51b815260206004820152601d60248201527f496e7370656374696f6e2049442063616e6e6f7420626520656d7074790000006044820152606490fd5b156124c257565b60405162461bcd60e51b815260206004820152601c60248201527f4552433732313a20746f6b656e20616c7265616479206d696e746564000000006044820152606490fd5b1561250e57565b60405162461bcd60e51b815260206004820152602260248201527f4e4654206e6f74206d696e74656420666f72207468697320696e73706563746960448201526137b760f11b6064820152608490fd5b1561256557565b60405162461bcd60e51b8152602060048201526014602482015273151bdad95b88191bd95cc81b9bdd08195e1a5cdd60621b6044820152606490fdfea2646970667358221220497fd579c58cdab3d9af67f5704e00180b65b4707a4fddb6189949ebaa8d590564736f6c63430008110033",
  "immutableReferences": {},
  "source": "// SPDX-License-Identifier: MIT\r\npragma solidity ^0.8.0;\r\n\r\nimport \"@openzeppelin/contracts/token/ERC721/ERC721.sol\";\r\nimport \"@openzeppelin/contracts/token/ERC721/extensions/ERC721URIStorage.sol\";\r\nimport \"@openzeppelin/contracts/access/Ownable.sol\";\r\nimport \"@openzeppelin/contracts/utils/Counters.sol\";\r\n\r\ncontract VehicleNFT is ERC721, ERC721URIStorage, Ownable {\r\n    using Counters for Counters.Counter;\r\n    \r\n    Counters.Counter private _tokenIdCounter;\r\n    \r\n    // Mapping from inspection ID to token ID\r\n    mapping(string => uint256) public inspectionToTokenId;\r\n    \r\n    // Mapping from token ID to inspection ID\r\n    mapping(uint256 => string) public tokenIdToInspection;\r\n    \r\n    // Mapping to track if NFT was minted for inspection ID\r\n    mapping(string => bool) public nftMinted;\r\n    \r\n    // Store vehicle data on-chain (optional, for reference)\r\n    struct VehicleInfo {\r\n        string make;\r\n        string model;\r\n        string year;\r\n        string vehicleType;\r\n        string registrationNumber;\r\n        address mintedTo;\r\n        uint256 mintTimestamp;\r\n    }\r\n    \r\n    mapping(string => VehicleInfo) public vehicleInfo;\r\n    \r\n    // Events\r\n    event VehicleNFTMinted(\r\n        uint256 indexed tokenId, \r\n        string indexed inspectionId, \r\n        address indexed owner,\r\n        string tokenURI,\r\n        string make,\r\n        string model,\r\n        string registrationNumber\r\n    );\r\n    \r\n    constructor() ERC721(\"Vehicle Certificate NFT\", \"VCNFT\") {\r\n        // No need for VehicleRegistration contract dependency\r\n    }\r\n    \r\n    /**\r\n     * @dev Mint NFT for a vehicle (independent version)\r\n     * @param inspectionId The vehicle inspection ID\r\n     * @param to Address to mint NFT to\r\n     * @param tokenURI Metadata URI for the NFT\r\n     * @param make Vehicle make (optional, for on-chain storage)\r\n     * @param model Vehicle model (optional, for on-chain storage)\r\n     * @param year Vehicle year (optional, for on-chain storage)\r\n     * @param vehicleType Vehicle type (optional, for on-chain storage)\r\n     * @param registrationNumber Registration number (optional, for on-chain storage)\r\n     */\r\n    function mintVehicleNFT(\r\n        string memory inspectionId,\r\n        address to,\r\n        string memory tokenURI,\r\n        string memory make,\r\n        string memory model,\r\n        string memory year,\r\n        string memory vehicleType,\r\n        string memory registrationNumber\r\n    ) public returns (uint256) {\r\n        // Basic validation\r\n        require(bytes(inspectionId).length > 0, \"Inspection ID cannot be empty\");\r\n        require(to != address(0), \"Invalid address\");\r\n        \r\n        // Check if NFT already minted\r\n        require(!nftMinted[inspectionId], \"NFT already minted for this vehicle\");\r\n        \r\n        // Mint the NFT\r\n        uint256 tokenId = _tokenIdCounter.current();\r\n        _tokenIdCounter.increment();\r\n        \r\n        _safeMint(to, tokenId);\r\n        _setTokenURI(tokenId, tokenURI);\r\n        \r\n        // Update mappings\r\n        inspectionToTokenId[inspectionId] = tokenId;\r\n        tokenIdToInspection[tokenId] = inspectionId;\r\n        nftMinted[inspectionId] = true;\r\n        \r\n        // Store vehicle info on-chain (optional)\r\n        vehicleInfo[inspectionId] = VehicleInfo({\r\n            make: make,\r\n            model: model,\r\n            year: year,\r\n            vehicleType: vehicleType,\r\n            registrationNumber: registrationNumber,\r\n            mintedTo: to,\r\n            mintTimestamp: block.timestamp\r\n        });\r\n        \r\n        emit VehicleNFTMinted(tokenId, inspectionId, to, tokenURI, make, model, registrationNumber);\r\n        \r\n        return tokenId;\r\n    }\r\n    \r\n    /**\r\n     * @dev Simplified mint function (backward compatibility)\r\n     */\r\n    function mintVehicleNFT(\r\n        string memory inspectionId,\r\n        address to,\r\n        string memory tokenURI\r\n    ) public returns (uint256) {\r\n        return mintVehicleNFT(inspectionId, to, tokenURI, \"\", \"\", \"\", \"\", \"\");\r\n    }\r\n    \r\n    /**\r\n     * @dev Get token ID for a given inspection ID\r\n     */\r\n    function getTokenIdByInspection(string memory inspectionId) \r\n        public \r\n        view \r\n        returns (uint256) \r\n    {\r\n        require(nftMinted[inspectionId], \"NFT not minted for this inspection\");\r\n        return inspectionToTokenId[inspectionId];\r\n    }\r\n    \r\n    /**\r\n     * @dev Get inspection ID for a given token ID\r\n     */\r\n    function getInspectionByTokenId(uint256 tokenId) \r\n        public \r\n        view \r\n        returns (string memory) \r\n    {\r\n        require(_exists(tokenId), \"Token does not exist\");\r\n        return tokenIdToInspection[tokenId];\r\n    }\r\n    \r\n    /**\r\n     * @dev Check if NFT exists for inspection ID\r\n     */\r\n    function nftExistsForInspection(string memory inspectionId) \r\n        public \r\n        view \r\n        returns (bool) \r\n    {\r\n        return nftMinted[inspectionId];\r\n    }\r\n    \r\n    /**\r\n     * @dev Get vehicle info stored on-chain\r\n     */\r\n    function getVehicleInfo(string memory inspectionId) \r\n        public \r\n        view \r\n        returns (\r\n            string memory make,\r\n            string memory model,\r\n            string memory year,\r\n            string memory vehicleType,\r\n            string memory registrationNumber,\r\n            address mintedTo,\r\n            uint256 mintTimestamp\r\n        ) \r\n    {\r\n        require(nftMinted[inspectionId], \"NFT not minted for this inspection\");\r\n        \r\n        VehicleInfo memory info = vehicleInfo[inspectionId];\r\n        return (\r\n            info.make,\r\n            info.model, \r\n            info.year,\r\n            info.vehicleType,\r\n            info.registrationNumber,\r\n            info.mintedTo,\r\n            info.mintTimestamp\r\n        );\r\n    }\r\n    \r\n    /**\r\n     * @dev Get vehicle details by token ID\r\n     */\r\n    function getVehicleDetailsByTokenId(uint256 tokenId) \r\n        public \r\n        view \r\n        returns (\r\n            string memory make,\r\n            string memory model,\r\n            string memory year,\r\n            string memory vehicleType,\r\n            string memory registrationNumber,\r\n            string memory inspectionId,\r\n            address mintedTo,\r\n            uint256 mintTimestamp\r\n        ) \r\n    {\r\n        require(_exists(tokenId), \"Token does not exist\");\r\n        \r\n        string memory inspection = tokenIdToInspection[tokenId];\r\n        VehicleInfo memory info = vehicleInfo[inspection];\r\n        \r\n        return (\r\n            info.make,\r\n            info.model,\r\n            info.year,\r\n            info.vehicleType,\r\n            info.registrationNumber,\r\n            inspection,\r\n            info.mintedTo,\r\n            info.mintTimestamp\r\n        );\r\n    }\r\n    \r\n    /**\r\n     * @dev Get total number of minted NFTs\r\n     */\r\n    function totalSupply() public view returns (uint256) {\r\n        return _tokenIdCounter.current();\r\n    }\r\n    \r\n    /**\r\n     * @dev Owner can mint NFT for any vehicle (admin function)\r\n     */\r\n    function adminMintNFT(\r\n        string memory inspectionId,\r\n        address to,\r\n        string memory tokenURI,\r\n        string memory make,\r\n        string memory model,\r\n        string memory year,\r\n        string memory vehicleType,\r\n        string memory registrationNumber\r\n    ) public onlyOwner returns (uint256) {\r\n        return mintVehicleNFT(inspectionId, to, tokenURI, make, model, year, vehicleType, registrationNumber);\r\n    }\r\n    \r\n    /**\r\n     * @dev Override required by Solidity for multiple inheritance\r\n     */\r\n    function _burn(uint256 tokenId) internal override(ERC721, ERC721URIStorage) {\r\n        super._burn(tokenId);\r\n        \r\n        // Clean up mappings\r\n        string memory inspectionId = tokenIdToInspection[tokenId];\r\n        delete inspectionToTokenId[inspectionId];\r\n        delete tokenIdToInspection[tokenId];\r\n        delete nftMinted[inspectionId];\r\n        delete vehicleInfo[inspectionId];\r\n    }\r\n    \r\n    /**\r\n     * @dev Override required by Solidity for multiple inheritance\r\n     */\r\n    function tokenURI(uint256 tokenId)\r\n        public\r\n        view\r\n        override(ERC721, ERC721URIStorage)\r\n        returns (string memory)\r\n    {\r\n        return super.tokenURI(tokenId);\r\n    }\r\n    \r\n    /**\r\n     * @dev Override required by Solidity for multiple inheritance\r\n     */\r\n    function supportsInterface(bytes4 interfaceId)\r\n        public\r\n        view\r\n        override(ERC721, ERC721URIStorage)\r\n        returns (bool)\r\n    {\r\n        return super.supportsInterface(interfaceId);\r\n    }\r\n}",
  "sourcePath": "F:\\TaxTron-FYP\\taxtron\\backend\\contracts\\NftMiniting.sol",
  "compiler": {
    "name": "solc",
    "version": "0.8.17+commit.8df45f5f.Emscripten.clang"
  },
  "schemaVersion": "3.4.16",
  "updatedAt": "2025-06-15T06:41:07.169Z",
  "networkType": "ethereum",
  "devdoc": {
    "kind": "dev",
    "methods": {
      "adminMintNFT(string,address,string,string,string,string,string,string)": {
        "details": "Owner can mint NFT for any vehicle (admin function)"
      },
      "approve(address,uint256)": {
        "details": "See {IERC721-approve}."
      },
      "balanceOf(address)": {
        "details": "See {IERC721-balanceOf}."
      },
      "getApproved(uint256)": {
        "details": "See {IERC721-getApproved}."
      },
      "getInspectionByTokenId(uint256)": {
        "details": "Get inspection ID for a given token ID"
      },
      "getTokenIdByInspection(string)": {
        "details": "Get token ID for a given inspection ID"
      },
      "getVehicleDetailsByTokenId(uint256)": {
        "details": "Get vehicle details by token ID"
      },
      "getVehicleInfo(string)": {
        "details": "Get vehicle info stored on-chain"
      },
      "isApprovedForAll(address,address)": {
        "details": "See {IERC721-isApprovedForAll}."
      },
      "mintVehicleNFT(string,address,string)": {
        "details": "Simplified mint function (backward compatibility)"
      },
      "mintVehicleNFT(string,address,string,string,string,string,string,string)": {
        "details": "Mint NFT for a vehicle (independent version)",
        "params": {
          "inspectionId": "The vehicle inspection ID",
          "make": "Vehicle make (optional, for on-chain storage)",
          "model": "Vehicle model (optional, for on-chain storage)",
          "registrationNumber": "Registration number (optional, for on-chain storage)",
          "to": "Address to mint NFT to",
          "tokenURI": "Metadata URI for the NFT",
          "vehicleType": "Vehicle type (optional, for on-chain storage)",
          "year": "Vehicle year (optional, for on-chain storage)"
        }
      },
      "name()": {
        "details": "See {IERC721Metadata-name}."
      },
      "nftExistsForInspection(string)": {
        "details": "Check if NFT exists for inspection ID"
      },
      "owner()": {
        "details": "Returns the address of the current owner."
      },
      "ownerOf(uint256)": {
        "details": "See {IERC721-ownerOf}."
      },
      "renounceOwnership()": {
        "details": "Leaves the contract without owner. It will not be possible to call `onlyOwner` functions. Can only be called by the current owner. NOTE: Renouncing ownership will leave the contract without an owner, thereby disabling any functionality that is only available to the owner."
      },
      "safeTransferFrom(address,address,uint256)": {
        "details": "See {IERC721-safeTransferFrom}."
      },
      "safeTransferFrom(address,address,uint256,bytes)": {
        "details": "See {IERC721-safeTransferFrom}."
      },
      "setApprovalForAll(address,bool)": {
        "details": "See {IERC721-setApprovalForAll}."
      },
      "supportsInterface(bytes4)": {
        "details": "Override required by Solidity for multiple inheritance"
      },
      "symbol()": {
        "details": "See {IERC721Metadata-symbol}."
      },
      "tokenURI(uint256)": {
        "details": "Override required by Solidity for multiple inheritance"
      },
      "totalSupply()": {
        "details": "Get total number of minted NFTs"
      },
      "transferFrom(address,address,uint256)": {
        "details": "See {IERC721-transferFrom}."
      },
      "transferOwnership(address)": {
        "details": "Transfers ownership of the contract to a new account (`newOwner`). Can only be called by the current owner."
      }
    },
    "version": 1
  },
  "userdoc": {
    "kind": "user",
    "methods": {},
    "version": 1
  }
}